{"contracts/VotingToken.sol":{"VotingToken":{"abi":[{"inputs":[],"stateMutability":"nonpayable","type":"constructor"},{"anonymous":false,"inputs":[{"indexed":false,"internalType":"address","name":"previousAdmin","type":"address"},{"indexed":false,"internalType":"address","name":"newAdmin","type":"address"}],"name":"AdminChanged","type":"event"},{"anonymous":false,"inputs":[{"indexed":true,"internalType":"address","name":"owner","type":"address"},{"indexed":true,"internalType":"address","name":"spender","type":"address"},{"indexed":false,"internalType":"uint256","name":"value","type":"uint256"}],"name":"Approval","type":"event"},{"anonymous":false,"inputs":[{"indexed":true,"internalType":"address","name":"beacon","type":"address"}],"name":"BeaconUpgraded","type":"event"},{"anonymous":false,"inputs":[{"indexed":true,"internalType":"address","name":"delegator","type":"address"},{"indexed":true,"internalType":"address","name":"fromDelegate","type":"address"},{"indexed":true,"internalType":"address","name":"toDelegate","type":"address"}],"name":"DelegateChanged","type":"event"},{"anonymous":false,"inputs":[{"indexed":true,"internalType":"address","name":"delegate","type":"address"},{"indexed":false,"internalType":"uint256","name":"previousBalance","type":"uint256"},{"indexed":false,"internalType":"uint256","name":"newBalance","type":"uint256"}],"name":"DelegateVotesChanged","type":"event"},{"anonymous":false,"inputs":[{"indexed":false,"internalType":"uint8","name":"version","type":"uint8"}],"name":"Initialized","type":"event"},{"anonymous":false,"inputs":[{"indexed":true,"internalType":"address","name":"previousOwner","type":"address"},{"indexed":true,"internalType":"address","name":"newOwner","type":"address"}],"name":"OwnershipTransferred","type":"event"},{"anonymous":false,"inputs":[{"indexed":false,"internalType":"address","name":"account","type":"address"}],"name":"Paused","type":"event"},{"anonymous":false,"inputs":[{"indexed":true,"internalType":"address","name":"from","type":"address"},{"indexed":true,"internalType":"address","name":"to","type":"address"},{"indexed":false,"internalType":"uint256","name":"value","type":"uint256"}],"name":"Transfer","type":"event"},{"anonymous":false,"inputs":[{"indexed":false,"internalType":"address","name":"account","type":"address"}],"name":"Unpaused","type":"event"},{"anonymous":false,"inputs":[{"indexed":true,"internalType":"address","name":"implementation","type":"address"}],"name":"Upgraded","type":"event"},{"inputs":[],"name":"DOMAIN_SEPARATOR","outputs":[{"internalType":"bytes32","name":"","type":"bytes32"}],"stateMutability":"view","type":"function"},{"inputs":[{"internalType":"address","name":"owner","type":"address"},{"internalType":"address","name":"spender","type":"address"}],"name":"allowance","outputs":[{"internalType":"uint256","name":"","type":"uint256"}],"stateMutability":"view","type":"function"},{"inputs":[{"internalType":"address","name":"spender","type":"address"},{"internalType":"uint256","name":"amount","type":"uint256"}],"name":"approve","outputs":[{"internalType":"bool","name":"","type":"bool"}],"stateMutability":"nonpayable","type":"function"},{"inputs":[{"internalType":"address","name":"account","type":"address"}],"name":"balanceOf","outputs":[{"internalType":"uint256","name":"","type":"uint256"}],"stateMutability":"view","type":"function"},{"inputs":[{"internalType":"address","name":"account","type":"address"},{"internalType":"uint32","name":"pos","type":"uint32"}],"name":"checkpoints","outputs":[{"components":[{"internalType":"uint32","name":"fromBlock","type":"uint32"},{"internalType":"uint224","name":"votes","type":"uint224"}],"internalType":"struct ERC20VotesUpgradeable.Checkpoint","name":"","type":"tuple"}],"stateMutability":"view","type":"function"},{"inputs":[],"name":"decimals","outputs":[{"internalType":"uint8","name":"","type":"uint8"}],"stateMutability":"view","type":"function"},{"inputs":[{"internalType":"address","name":"spender","type":"address"},{"internalType":"uint256","name":"subtractedValue","type":"uint256"}],"name":"decreaseAllowance","outputs":[{"internalType":"bool","name":"","type":"bool"}],"stateMutability":"nonpayable","type":"function"},{"inputs":[{"internalType":"address","name":"delegatee","type":"address"}],"name":"delegate","outputs":[],"stateMutability":"nonpayable","type":"function"},{"inputs":[{"internalType":"address","name":"delegatee","type":"address"},{"internalType":"uint256","name":"nonce","type":"uint256"},{"internalType":"uint256","name":"expiry","type":"uint256"},{"internalType":"uint8","name":"v","type":"uint8"},{"internalType":"bytes32","name":"r","type":"bytes32"},{"internalType":"bytes32","name":"s","type":"bytes32"}],"name":"delegateBySig","outputs":[],"stateMutability":"nonpayable","type":"function"},{"inputs":[{"internalType":"address","name":"account","type":"address"}],"name":"delegates","outputs":[{"internalType":"address","name":"","type":"address"}],"stateMutability":"view","type":"function"},{"inputs":[{"internalType":"uint256","name":"blockNumber","type":"uint256"}],"name":"getPastTotalSupply","outputs":[{"internalType":"uint256","name":"","type":"uint256"}],"stateMutability":"view","type":"function"},{"inputs":[{"internalType":"address","name":"account","type":"address"},{"internalType":"uint256","name":"blockNumber","type":"uint256"}],"name":"getPastVotes","outputs":[{"internalType":"uint256","name":"","type":"uint256"}],"stateMutability":"view","type":"function"},{"inputs":[{"internalType":"address","name":"account","type":"address"}],"name":"getVotes","outputs":[{"internalType":"uint256","name":"","type":"uint256"}],"stateMutability":"view","type":"function"},{"inputs":[{"internalType":"address","name":"spender","type":"address"},{"internalType":"uint256","name":"addedValue","type":"uint256"}],"name":"increaseAllowance","outputs":[{"internalType":"bool","name":"","type":"bool"}],"stateMutability":"nonpayable","type":"function"},{"inputs":[],"name":"initialize","outputs":[],"stateMutability":"nonpayable","type":"function"},{"inputs":[{"internalType":"address","name":"to","type":"address"},{"internalType":"uint256","name":"amount","type":"uint256"}],"name":"mint","outputs":[],"stateMutability":"nonpayable","type":"function"},{"inputs":[],"name":"name","outputs":[{"internalType":"string","name":"","type":"string"}],"stateMutability":"view","type":"function"},{"inputs":[{"internalType":"address","name":"owner","type":"address"}],"name":"nonces","outputs":[{"internalType":"uint256","name":"","type":"uint256"}],"stateMutability":"view","type":"function"},{"inputs":[{"internalType":"address","name":"account","type":"address"}],"name":"numCheckpoints","outputs":[{"internalType":"uint32","name":"","type":"uint32"}],"stateMutability":"view","type":"function"},{"inputs":[],"name":"owner","outputs":[{"internalType":"address","name":"","type":"address"}],"stateMutability":"view","type":"function"},{"inputs":[],"name":"pause","outputs":[],"stateMutability":"nonpayable","type":"function"},{"inputs":[],"name":"paused","outputs":[{"internalType":"bool","name":"","type":"bool"}],"stateMutability":"view","type":"function"},{"inputs":[{"internalType":"address","name":"owner","type":"address"},{"internalType":"address","name":"spender","type":"address"},{"internalType":"uint256","name":"value","type":"uint256"},{"internalType":"uint256","name":"deadline","type":"uint256"},{"internalType":"uint8","name":"v","type":"uint8"},{"internalType":"bytes32","name":"r","type":"bytes32"},{"internalType":"bytes32","name":"s","type":"bytes32"}],"name":"permit","outputs":[],"stateMutability":"nonpayable","type":"function"},{"inputs":[],"name":"proxiableUUID","outputs":[{"internalType":"bytes32","name":"","type":"bytes32"}],"stateMutability":"view","type":"function"},{"inputs":[],"name":"renounceOwnership","outputs":[],"stateMutability":"nonpayable","type":"function"},{"inputs":[],"name":"symbol","outputs":[{"internalType":"string","name":"","type":"string"}],"stateMutability":"view","type":"function"},{"inputs":[],"name":"totalSupply","outputs":[{"internalType":"uint256","name":"","type":"uint256"}],"stateMutability":"view","type":"function"},{"inputs":[{"internalType":"address","name":"to","type":"address"},{"internalType":"uint256","name":"amount","type":"uint256"}],"name":"transfer","outputs":[{"internalType":"bool","name":"","type":"bool"}],"stateMutability":"nonpayable","type":"function"},{"inputs":[{"internalType":"address","name":"from","type":"address"},{"internalType":"address","name":"to","type":"address"},{"internalType":"uint256","name":"amount","type":"uint256"}],"name":"transferFrom","outputs":[{"internalType":"bool","name":"","type":"bool"}],"stateMutability":"nonpayable","type":"function"},{"inputs":[{"internalType":"address","name":"newOwner","type":"address"}],"name":"transferOwnership","outputs":[],"stateMutability":"nonpayable","type":"function"},{"inputs":[],"name":"unpause","outputs":[],"stateMutability":"nonpayable","type":"function"},{"inputs":[{"internalType":"address","name":"newImplementation","type":"address"}],"name":"upgradeTo","outputs":[],"stateMutability":"nonpayable","type":"function"},{"inputs":[{"internalType":"address","name":"newImplementation","type":"address"},{"internalType":"bytes","name":"data","type":"bytes"}],"name":"upgradeToAndCall","outputs":[],"stateMutability":"payable","type":"function"}],"evm":{"bytecode":{"linkReferences":{},"object":"60a06040523073ffffffffffffffffffffffffffffffffffffffff1660809073ffffffffffffffffffffffffffffffffffffffff168152503480156200004457600080fd5b50620000556200005b60201b60201c565b62000206565b600060019054906101000a900460ff1615620000ae576040517f08c379a0000000000000000000000000000000000000000000000000000000008152600401620000a590620001a9565b60405180910390fd5b60ff801660008054906101000a900460ff1660ff161015620001205760ff6000806101000a81548160ff021916908360ff1602179055507f7f26b83ff96e1f2b6a682f133852f6798a09c465da95921460cefb384740249860ff604051620001179190620001e9565b60405180910390a15b565b600082825260208201905092915050565b7f496e697469616c697a61626c653a20636f6e747261637420697320696e69746960008201527f616c697a696e6700000000000000000000000000000000000000000000000000602082015250565b60006200019160278362000122565b91506200019e8262000133565b604082019050919050565b60006020820190508181036000830152620001c48162000182565b9050919050565b600060ff82169050919050565b620001e381620001cb565b82525050565b6000602082019050620002006000830184620001d8565b92915050565b6080516158196200023e60003960008181610917015281816109a601528181610b9401528181610c230152610cd301526158196000f3fe6080604052600436106101ee5760003560e01c80636fcfff451161010d57806395d89b41116100a0578063c3cda5201161006f578063c3cda5201461071a578063d505accf14610743578063dd62ed3e1461076c578063f1127ed8146107a9578063f2fde38b146107e6576101ee565b806395d89b41146106385780639ab24eb014610663578063a457c2d7146106a0578063a9059cbb146106dd576101ee565b80638129fc1c116100dc5780638129fc1c146105a25780638456cb59146105b95780638da5cb5b146105d05780638e539e8c146105fb576101ee565b80636fcfff45146104d457806370a0823114610511578063715018a61461054e5780637ecebe0014610565576101ee565b80633a46b1a81161018557806352d1902d1161015457806352d1902d14610418578063587cde1e146104435780635c19a95c146104805780635c975abb146104a9576101ee565b80633a46b1a81461037f5780633f4ba83a146103bc57806340c10f19146103d35780634f1ef286146103fc576101ee565b8063313ce567116101c1578063313ce567146102c35780633644e515146102ee5780633659cfe6146103195780633950935114610342576101ee565b806306fdde03146101f3578063095ea7b31461021e57806318160ddd1461025b57806323b872dd14610286575b600080fd5b3480156101ff57600080fd5b5061020861080f565b60405161021591906138b2565b60405180910390f35b34801561022a57600080fd5b506102456004803603810190610240919061397c565b6108a1565b60405161025291906139d7565b60405180910390f35b34801561026757600080fd5b506102706108c4565b60405161027d9190613a01565b60405180910390f35b34801561029257600080fd5b506102ad60048036038101906102a89190613a1c565b6108ce565b6040516102ba91906139d7565b60405180910390f35b3480156102cf57600080fd5b506102d86108fd565b6040516102e59190613a8b565b60405180910390f35b3480156102fa57600080fd5b50610303610906565b6040516103109190613abf565b60405180910390f35b34801561032557600080fd5b50610340600480360381019061033b9190613ada565b610915565b005b34801561034e57600080fd5b506103696004803603810190610364919061397c565b610a9e565b60405161037691906139d7565b60405180910390f35b34801561038b57600080fd5b506103a660048036038101906103a1919061397c565b610ad5565b6040516103b39190613a01565b60405180910390f35b3480156103c857600080fd5b506103d1610b6a565b005b3480156103df57600080fd5b506103fa60048036038101906103f5919061397c565b610b7c565b005b61041660048036038101906104119190613c3c565b610b92565b005b34801561042457600080fd5b5061042d610ccf565b60405161043a9190613abf565b60405180910390f35b34801561044f57600080fd5b5061046a60048036038101906104659190613ada565b610d88565b6040516104779190613ca7565b60405180910390f35b34801561048c57600080fd5b506104a760048036038101906104a29190613ada565b610df2565b005b3480156104b557600080fd5b506104be610e06565b6040516104cb91906139d7565b60405180910390f35b3480156104e057600080fd5b506104fb60048036038101906104f69190613ada565b610e1d565b6040516105089190613ce1565b60405180910390f35b34801561051d57600080fd5b5061053860048036038101906105339190613ada565b610e72565b6040516105459190613a01565b60405180910390f35b34801561055a57600080fd5b50610563610ebb565b005b34801561057157600080fd5b5061058c60048036038101906105879190613ada565b610ecf565b6040516105999190613a01565b60405180910390f35b3480156105ae57600080fd5b506105b7610f1f565b005b3480156105c557600080fd5b506105ce611152565b005b3480156105dc57600080fd5b506105e5611164565b6040516105f29190613ca7565b60405180910390f35b34801561060757600080fd5b50610622600480360381019061061d9190613cfc565b61118e565b60405161062f9190613a01565b60405180910390f35b34801561064457600080fd5b5061064d6111e5565b60405161065a91906138b2565b60405180910390f35b34801561066f57600080fd5b5061068a60048036038101906106859190613ada565b611277565b6040516106979190613a01565b60405180910390f35b3480156106ac57600080fd5b506106c760048036038101906106c2919061397c565b61138a565b6040516106d491906139d7565b60405180910390f35b3480156106e957600080fd5b5061070460048036038101906106ff919061397c565b611401565b60405161071191906139d7565b60405180910390f35b34801561072657600080fd5b50610741600480360381019061073c9190613d81565b611424565b005b34801561074f57600080fd5b5061076a60048036038101906107659190613e0e565b611528565b005b34801561077857600080fd5b50610793600480360381019061078e9190613eb0565b61166a565b6040516107a09190613a01565b60405180910390f35b3480156107b557600080fd5b506107d060048036038101906107cb9190613f1c565b6116f1565b6040516107dd9190613fd1565b60405180910390f35b3480156107f257600080fd5b5061080d60048036038101906108089190613ada565b611802565b005b60606036805461081e9061401b565b80601f016020809104026020016040519081016040528092919081815260200182805461084a9061401b565b80156108975780601f1061086c57610100808354040283529160200191610897565b820191906000526020600020905b81548152906001019060200180831161087a57829003601f168201915b5050505050905090565b6000806108ac611886565b90506108b981858561188e565b600191505092915050565b6000603554905090565b6000806108d9611886565b90506108e6858285611a59565b6108f1858585611ae5565b60019150509392505050565b60006012905090565b6000610910611d69565b905090565b7f000000000000000000000000000000000000000000000000000000000000000073ffffffffffffffffffffffffffffffffffffffff163073ffffffffffffffffffffffffffffffffffffffff1614156109a4576040517f08c379a000000000000000000000000000000000000000000000000000000000815260040161099b906140bf565b60405180910390fd5b7f000000000000000000000000000000000000000000000000000000000000000073ffffffffffffffffffffffffffffffffffffffff166109e3611da9565b73ffffffffffffffffffffffffffffffffffffffff1614610a39576040517f08c379a0000000000000000000000000000000000000000000000000000000008152600401610a3090614151565b60405180910390fd5b610a4281611e00565b610a9b81600067ffffffffffffffff811115610a6157610a60613b11565b5b6040519080825280601f01601f191660200182016040528015610a935781602001600182028036833780820191505090505b506000611e0b565b50565b600080610aa9611886565b9050610aca818585610abb858961166a565b610ac591906141a0565b61188e565b600191505092915050565b6000438210610b19576040517f08c379a0000000000000000000000000000000000000000000000000000000008152600401610b1090614242565b60405180910390fd5b610b6261013160008573ffffffffffffffffffffffffffffffffffffffff1673ffffffffffffffffffffffffffffffffffffffff16815260200190815260200160002083611f88565b905092915050565b610b72612094565b610b7a612112565b565b610b84612094565b610b8e8282612175565b5050565b7f000000000000000000000000000000000000000000000000000000000000000073ffffffffffffffffffffffffffffffffffffffff163073ffffffffffffffffffffffffffffffffffffffff161415610c21576040517f08c379a0000000000000000000000000000000000000000000000000000000008152600401610c18906140bf565b60405180910390fd5b7f000000000000000000000000000000000000000000000000000000000000000073ffffffffffffffffffffffffffffffffffffffff16610c60611da9565b73ffffffffffffffffffffffffffffffffffffffff1614610cb6576040517f08c379a0000000000000000000000000000000000000000000000000000000008152600401610cad90614151565b60405180910390fd5b610cbf82611e00565b610ccb82826001611e0b565b5050565b60007f000000000000000000000000000000000000000000000000000000000000000073ffffffffffffffffffffffffffffffffffffffff163073ffffffffffffffffffffffffffffffffffffffff1614610d5f576040517f08c379a0000000000000000000000000000000000000000000000000000000008152600401610d56906142d4565b60405180910390fd5b7f360894a13ba1a3210667c828492db98dca3e2076cc3735a920a3ca505d382bbc60001b905090565b600061013060008373ffffffffffffffffffffffffffffffffffffffff1673ffffffffffffffffffffffffffffffffffffffff16815260200190815260200160002060009054906101000a900473ffffffffffffffffffffffffffffffffffffffff169050919050565b610e03610dfd611886565b82612183565b50565b6000606560009054906101000a900460ff16905090565b6000610e6b61013160008473ffffffffffffffffffffffffffffffffffffffff1673ffffffffffffffffffffffffffffffffffffffff1681526020019081526020016000208054905061229e565b9050919050565b6000603360008373ffffffffffffffffffffffffffffffffffffffff1673ffffffffffffffffffffffffffffffffffffffff168152602001908152602001600020549050919050565b610ec3612094565b610ecd60006122f1565b565b6000610f1860fd60008473ffffffffffffffffffffffffffffffffffffffff1673ffffffffffffffffffffffffffffffffffffffff1681526020019081526020016000206123b7565b9050919050565b60008060019054906101000a900460ff16159050808015610f505750600160008054906101000a900460ff1660ff16105b80610f7d5750610f5f306123c5565b158015610f7c5750600160008054906101000a900460ff1660ff16145b5b610fbc576040517f08c379a0000000000000000000000000000000000000000000000000000000008152600401610fb390614366565b60405180910390fd5b60016000806101000a81548160ff021916908360ff1602179055508015610ff9576001600060016101000a81548160ff0219169083151502179055505b61106d6040518060400160405280600b81526020017f566f74696e67546f6b656e0000000000000000000000000000000000000000008152506040518060400160405280600381526020017f564f5400000000000000000000000000000000000000000000000000000000008152506123e8565b611075612445565b61107d61249e565b6110bb6040518060400160405280600b81526020017f566f74696e67546f6b656e0000000000000000000000000000000000000000008152506124f7565b6110c3612588565b6110cb6125d9565b6110f6336110d76108fd565b600a6110e391906144b9565b620f42406110f19190614504565b612175565b801561114f5760008060016101000a81548160ff0219169083151502179055507f7f26b83ff96e1f2b6a682f133852f6798a09c465da95921460cefb3847402498600160405161114691906145a3565b60405180910390a15b50565b61115a612094565b61116261262a565b565b6000609760009054906101000a900473ffffffffffffffffffffffffffffffffffffffff16905090565b60004382106111d2576040517f08c379a00000000000000000000000000000000000000000000000000000000081526004016111c990614242565b60405180910390fd5b6111de61013283611f88565b9050919050565b6060603780546111f49061401b565b80601f01602080910402602001604051908101604052809291908181526020018280546112209061401b565b801561126d5780601f106112425761010080835404028352916020019161126d565b820191906000526020600020905b81548152906001019060200180831161125057829003601f168201915b5050505050905090565b60008061013160008473ffffffffffffffffffffffffffffffffffffffff1673ffffffffffffffffffffffffffffffffffffffff168152602001908152602001600020805490509050600081146113615761013160008473ffffffffffffffffffffffffffffffffffffffff1673ffffffffffffffffffffffffffffffffffffffff16815260200190815260200160002060018261131591906145be565b81548110611326576113256145f2565b5b9060005260206000200160000160049054906101000a90047bffffffffffffffffffffffffffffffffffffffffffffffffffffffff16611364565b60005b7bffffffffffffffffffffffffffffffffffffffffffffffffffffffff16915050919050565b600080611395611886565b905060006113a3828661166a565b9050838110156113e8576040517f08c379a00000000000000000000000000000000000000000000000000000000081526004016113df90614693565b60405180910390fd5b6113f5828686840361188e565b60019250505092915050565b60008061140c611886565b9050611419818585611ae5565b600191505092915050565b83421115611467576040517f08c379a000000000000000000000000000000000000000000000000000000000815260040161145e906146ff565b60405180910390fd5b60006114c96114c17fe48329057bfd03d55e49b547132e39cffd9c1820ad7b9d4c5307691425d15adf8989896040516020016114a6949392919061471f565b6040516020818303038152906040528051906020012061268d565b8585856126a7565b90506114d4816126d2565b8614611515576040517f08c379a000000000000000000000000000000000000000000000000000000000815260040161150c906147b0565b60405180910390fd5b61151f8188612183565b50505050505050565b8342111561156b576040517f08c379a00000000000000000000000000000000000000000000000000000000081526004016115629061481c565b60405180910390fd5b60007f6e71edae12b1b97f4d1f60370fef10105fa2faae0126114a169c64845d6126c988888861159a8c6126d2565b896040516020016115b09695949392919061483c565b60405160208183030381529060405280519060200120905060006115d38261268d565b905060006115e3828787876126a7565b90508973ffffffffffffffffffffffffffffffffffffffff168173ffffffffffffffffffffffffffffffffffffffff1614611653576040517f08c379a000000000000000000000000000000000000000000000000000000000815260040161164a906148e9565b60405180910390fd5b61165e8a8a8a61188e565b50505050505050505050565b6000603460008473ffffffffffffffffffffffffffffffffffffffff1673ffffffffffffffffffffffffffffffffffffffff16815260200190815260200160002060008373ffffffffffffffffffffffffffffffffffffffff1673ffffffffffffffffffffffffffffffffffffffff16815260200190815260200160002054905092915050565b6116f9613738565b61013160008473ffffffffffffffffffffffffffffffffffffffff1673ffffffffffffffffffffffffffffffffffffffff1681526020019081526020016000208263ffffffff1681548110611751576117506145f2565b5b906000526020600020016040518060400160405290816000820160009054906101000a900463ffffffff1663ffffffff1663ffffffff1681526020016000820160049054906101000a90047bffffffffffffffffffffffffffffffffffffffffffffffffffffffff167bffffffffffffffffffffffffffffffffffffffffffffffffffffffff167bffffffffffffffffffffffffffffffffffffffffffffffffffffffff1681525050905092915050565b61180a612094565b600073ffffffffffffffffffffffffffffffffffffffff168173ffffffffffffffffffffffffffffffffffffffff16141561187a576040517f08c379a00000000000000000000000000000000000000000000000000000000081526004016118719061497b565b60405180910390fd5b611883816122f1565b50565b600033905090565b600073ffffffffffffffffffffffffffffffffffffffff168373ffffffffffffffffffffffffffffffffffffffff1614156118fe576040517f08c379a00000000000000000000000000000000000000000000000000000000081526004016118f590614a0d565b60405180910390fd5b600073ffffffffffffffffffffffffffffffffffffffff168273ffffffffffffffffffffffffffffffffffffffff16141561196e576040517f08c379a000000000000000000000000000000000000000000000000000000000815260040161196590614a9f565b60405180910390fd5b80603460008573ffffffffffffffffffffffffffffffffffffffff1673ffffffffffffffffffffffffffffffffffffffff16815260200190815260200160002060008473ffffffffffffffffffffffffffffffffffffffff1673ffffffffffffffffffffffffffffffffffffffff168152602001908152602001600020819055508173ffffffffffffffffffffffffffffffffffffffff168373ffffffffffffffffffffffffffffffffffffffff167f8c5be1e5ebec7d5bd14f71427d1e84f3dd0314c0f7b2291e5b200ac8c7c3b92583604051611a4c9190613a01565b60405180910390a3505050565b6000611a65848461166a565b90507fffffffffffffffffffffffffffffffffffffffffffffffffffffffffffffffff8114611adf5781811015611ad1576040517f08c379a0000000000000000000000000000000000000000000000000000000008152600401611ac890614b0b565b60405180910390fd5b611ade848484840361188e565b5b50505050565b600073ffffffffffffffffffffffffffffffffffffffff168373ffffffffffffffffffffffffffffffffffffffff161415611b55576040517f08c379a0000000000000000000000000000000000000000000000000000000008152600401611b4c90614b9d565b60405180910390fd5b600073ffffffffffffffffffffffffffffffffffffffff168273ffffffffffffffffffffffffffffffffffffffff161415611bc5576040517f08c379a0000000000000000000000000000000000000000000000000000000008152600401611bbc90614c2f565b60405180910390fd5b611bd0838383612730565b6000603360008573ffffffffffffffffffffffffffffffffffffffff1673ffffffffffffffffffffffffffffffffffffffff16815260200190815260200160002054905081811015611c57576040517f08c379a0000000000000000000000000000000000000000000000000000000008152600401611c4e90614cc1565b60405180910390fd5b818103603360008673ffffffffffffffffffffffffffffffffffffffff1673ffffffffffffffffffffffffffffffffffffffff1681526020019081526020016000208190555081603360008573ffffffffffffffffffffffffffffffffffffffff1673ffffffffffffffffffffffffffffffffffffffff1681526020019081526020016000206000828254611cec91906141a0565b925050819055508273ffffffffffffffffffffffffffffffffffffffff168473ffffffffffffffffffffffffffffffffffffffff167fddf252ad1be2c89b69c2b068fc378daa952ba7f163c4a11628f55a4df523b3ef84604051611d509190613a01565b60405180910390a3611d63848484612748565b50505050565b6000611da47f8b73c3c69bb8fe3d512ecc4cf759cc79239f7b179b0ffacaa9a75d522b39400f611d97612758565b611d9f612762565b61276c565b905090565b6000611dd77f360894a13ba1a3210667c828492db98dca3e2076cc3735a920a3ca505d382bbc60001b6127a6565b60000160009054906101000a900473ffffffffffffffffffffffffffffffffffffffff16905090565b611e08612094565b50565b611e377f4910fdfa16fed3260ed0e7147f7cc6da11a60208b5b9406d12a635614ffd914360001b6127b0565b60000160009054906101000a900460ff1615611e5b57611e56836127ba565b611f83565b8273ffffffffffffffffffffffffffffffffffffffff166352d1902d6040518163ffffffff1660e01b815260040160206040518083038186803b158015611ea157600080fd5b505afa925050508015611ed257506040513d601f19601f82011682018060405250810190611ecf9190614cf6565b60015b611f11576040517f08c379a0000000000000000000000000000000000000000000000000000000008152600401611f0890614d95565b60405180910390fd5b7f360894a13ba1a3210667c828492db98dca3e2076cc3735a920a3ca505d382bbc60001b8114611f76576040517f08c379a0000000000000000000000000000000000000000000000000000000008152600401611f6d90614e27565b60405180910390fd5b50611f82838383612873565b5b505050565b6000808380549050905060005b81811015612007576000611fa9828461289f565b905084868281548110611fbf57611fbe6145f2565b5b9060005260206000200160000160009054906101000a900463ffffffff1663ffffffff161115611ff157809250612001565b600181611ffe91906141a0565b91505b50611f95565b60008214612069578460018361201d91906145be565b8154811061202e5761202d6145f2565b5b9060005260206000200160000160049054906101000a90047bffffffffffffffffffffffffffffffffffffffffffffffffffffffff1661206c565b60005b7bffffffffffffffffffffffffffffffffffffffffffffffffffffffff169250505092915050565b61209c611886565b73ffffffffffffffffffffffffffffffffffffffff166120ba611164565b73ffffffffffffffffffffffffffffffffffffffff1614612110576040517f08c379a000000000000000000000000000000000000000000000000000000000815260040161210790614e93565b60405180910390fd5b565b61211a6128c5565b6000606560006101000a81548160ff0219169083151502179055507f5db9ee0a495bf2e6ff9c91a7834c1ba4fdd244a5e8aa4e537bd38aeae4b073aa61215e611886565b60405161216b9190613ca7565b60405180910390a1565b61217f828261290e565b5050565b600061218e83610d88565b9050600061219b84610e72565b90508261013060008673ffffffffffffffffffffffffffffffffffffffff1673ffffffffffffffffffffffffffffffffffffffff16815260200190815260200160002060006101000a81548173ffffffffffffffffffffffffffffffffffffffff021916908373ffffffffffffffffffffffffffffffffffffffff1602179055508273ffffffffffffffffffffffffffffffffffffffff168273ffffffffffffffffffffffffffffffffffffffff168573ffffffffffffffffffffffffffffffffffffffff167f3134e8a2e6d97e929a7e54011ea5485d7d196dd5f0ba4d4ef95803e8e3fc257f60405160405180910390a461229882848361299c565b50505050565b600063ffffffff80168211156122e9576040517f08c379a00000000000000000000000000000000000000000000000000000000081526004016122e090614f25565b60405180910390fd5b819050919050565b6000609760009054906101000a900473ffffffffffffffffffffffffffffffffffffffff16905081609760006101000a81548173ffffffffffffffffffffffffffffffffffffffff021916908373ffffffffffffffffffffffffffffffffffffffff1602179055508173ffffffffffffffffffffffffffffffffffffffff168173ffffffffffffffffffffffffffffffffffffffff167f8be0079c531659141344cd1fd0a4f28419497f9722a3daafe3b4186f6b6457e060405160405180910390a35050565b600081600001549050919050565b6000808273ffffffffffffffffffffffffffffffffffffffff163b119050919050565b600060019054906101000a900460ff16612437576040517f08c379a000000000000000000000000000000000000000000000000000000000815260040161242e90614fb7565b60405180910390fd5b6124418282612b97565b5050565b600060019054906101000a900460ff16612494576040517f08c379a000000000000000000000000000000000000000000000000000000000815260040161248b90614fb7565b60405180910390fd5b61249c612c18565b565b600060019054906101000a900460ff166124ed576040517f08c379a00000000000000000000000000000000000000000000000000000000081526004016124e490614fb7565b60405180910390fd5b6124f5612c84565b565b600060019054906101000a900460ff16612546576040517f08c379a000000000000000000000000000000000000000000000000000000000815260040161253d90614fb7565b60405180910390fd5b612585816040518060400160405280600181526020017f3100000000000000000000000000000000000000000000000000000000000000815250612ce5565b50565b600060019054906101000a900460ff166125d7576040517f08c379a00000000000000000000000000000000000000000000000000000000081526004016125ce90614fb7565b60405180910390fd5b565b600060019054906101000a900460ff16612628576040517f08c379a000000000000000000000000000000000000000000000000000000000815260040161261f90614fb7565b60405180910390fd5b565b612632612d60565b6001606560006101000a81548160ff0219169083151502179055507f62e78cea01bee320cd4e420270b5ea74000d11b0c9f74754ebdbfc544b05a258612676611886565b6040516126839190613ca7565b60405180910390a1565b60006126a061269a611d69565b83612daa565b9050919050565b60008060006126b887878787612ddd565b915091506126c581612eea565b8192505050949350505050565b60008060fd60008473ffffffffffffffffffffffffffffffffffffffff1673ffffffffffffffffffffffffffffffffffffffff168152602001908152602001600020905061271f816123b7565b915061272a816130bf565b50919050565b612738612d60565b6127438383836130d5565b505050565b6127538383836130da565b505050565b600060c954905090565b600060ca54905090565b60008383834630604051602001612787959493929190614fd7565b6040516020818303038152906040528051906020012090509392505050565b6000819050919050565b6000819050919050565b6127c3816123c5565b612802576040517f08c379a00000000000000000000000000000000000000000000000000000000081526004016127f99061509c565b60405180910390fd5b8061282f7f360894a13ba1a3210667c828492db98dca3e2076cc3735a920a3ca505d382bbc60001b6127a6565b60000160006101000a81548173ffffffffffffffffffffffffffffffffffffffff021916908373ffffffffffffffffffffffffffffffffffffffff16021790555050565b61287c83613105565b6000825111806128895750805b1561289a576128988383613154565b505b505050565b600060028284186128b091906150eb565b8284166128bd91906141a0565b905092915050565b6128cd610e06565b61290c576040517f08c379a000000000000000000000000000000000000000000000000000000000815260040161290390615168565b60405180910390fd5b565b6129188282613238565b612920613399565b7bffffffffffffffffffffffffffffffffffffffffffffffffffffffff166129466108c4565b1115612987576040517f08c379a000000000000000000000000000000000000000000000000000000000815260040161297e906151fa565b60405180910390fd5b6129966101326133bd836133d3565b50505050565b8173ffffffffffffffffffffffffffffffffffffffff168373ffffffffffffffffffffffffffffffffffffffff16141580156129d85750600081115b15612b9257600073ffffffffffffffffffffffffffffffffffffffff168373ffffffffffffffffffffffffffffffffffffffff1614612ab757600080612a6061013160008773ffffffffffffffffffffffffffffffffffffffff1673ffffffffffffffffffffffffffffffffffffffff16815260200190815260200160002061364b856133d3565b915091508473ffffffffffffffffffffffffffffffffffffffff167fdec2bacdd2f05b59de34da9b523dff8be42e5e38e818c82fdb0bae774387a7248383604051612aac92919061521a565b60405180910390a250505b600073ffffffffffffffffffffffffffffffffffffffff168273ffffffffffffffffffffffffffffffffffffffff1614612b9157600080612b3a61013160008673ffffffffffffffffffffffffffffffffffffffff1673ffffffffffffffffffffffffffffffffffffffff1681526020019081526020016000206133bd856133d3565b915091508373ffffffffffffffffffffffffffffffffffffffff167fdec2bacdd2f05b59de34da9b523dff8be42e5e38e818c82fdb0bae774387a7248383604051612b8692919061521a565b60405180910390a250505b5b505050565b600060019054906101000a900460ff16612be6576040517f08c379a0000000000000000000000000000000000000000000000000000000008152600401612bdd90614fb7565b60405180910390fd5b8160369080519060200190612bfc929190613776565b508060379080519060200190612c13929190613776565b505050565b600060019054906101000a900460ff16612c67576040517f08c379a0000000000000000000000000000000000000000000000000000000008152600401612c5e90614fb7565b60405180910390fd5b6000606560006101000a81548160ff021916908315150217905550565b600060019054906101000a900460ff16612cd3576040517f08c379a0000000000000000000000000000000000000000000000000000000008152600401612cca90614fb7565b60405180910390fd5b612ce3612cde611886565b6122f1565b565b600060019054906101000a900460ff16612d34576040517f08c379a0000000000000000000000000000000000000000000000000000000008152600401612d2b90614fb7565b60405180910390fd5b6000828051906020012090506000828051906020012090508160c9819055508060ca8190555050505050565b612d68610e06565b15612da8576040517f08c379a0000000000000000000000000000000000000000000000000000000008152600401612d9f9061528f565b60405180910390fd5b565b60008282604051602001612dbf929190615327565b60405160208183030381529060405280519060200120905092915050565b6000807f7fffffffffffffffffffffffffffffff5d576e7357a4501ddfe92f46681b20a08360001c1115612e18576000600391509150612ee1565b601b8560ff1614158015612e305750601c8560ff1614155b15612e42576000600491509150612ee1565b600060018787878760405160008152602001604052604051612e67949392919061535e565b6020604051602081039080840390855afa158015612e89573d6000803e3d6000fd5b505050602060405103519050600073ffffffffffffffffffffffffffffffffffffffff168173ffffffffffffffffffffffffffffffffffffffff161415612ed857600060019250925050612ee1565b80600092509250505b94509492505050565b60006004811115612efe57612efd6153a3565b5b816004811115612f1157612f106153a3565b5b1415612f1c576130bc565b60016004811115612f3057612f2f6153a3565b5b816004811115612f4357612f426153a3565b5b1415612f84576040517f08c379a0000000000000000000000000000000000000000000000000000000008152600401612f7b9061541e565b60405180910390fd5b60026004811115612f9857612f976153a3565b5b816004811115612fab57612faa6153a3565b5b1415612fec576040517f08c379a0000000000000000000000000000000000000000000000000000000008152600401612fe39061548a565b60405180910390fd5b6003600481111561300057612fff6153a3565b5b816004811115613013576130126153a3565b5b1415613054576040517f08c379a000000000000000000000000000000000000000000000000000000000815260040161304b9061551c565b60405180910390fd5b600480811115613067576130666153a3565b5b81600481111561307a576130796153a3565b5b14156130bb576040517f08c379a00000000000000000000000000000000000000000000000000000000081526004016130b2906155ae565b60405180910390fd5b5b50565b6001816000016000828254019250508190555050565b505050565b6130e5838383613661565b6131006130f184610d88565b6130fa84610d88565b8361299c565b505050565b61310e816127ba565b8073ffffffffffffffffffffffffffffffffffffffff167fbc7cd75a20ee27fd9adebab32041f755214dbc6bffa90cc0225b39da2e5c2d3b60405160405180910390a250565b606061315f836123c5565b61319e576040517f08c379a000000000000000000000000000000000000000000000000000000000815260040161319590615640565b60405180910390fd5b6000808473ffffffffffffffffffffffffffffffffffffffff16846040516131c691906156a7565b600060405180830381855af49150503d8060008114613201576040519150601f19603f3d011682016040523d82523d6000602084013e613206565b606091505b509150915061322e82826040518060600160405280602781526020016157bd60279139613666565b9250505092915050565b600073ffffffffffffffffffffffffffffffffffffffff168273ffffffffffffffffffffffffffffffffffffffff1614156132a8576040517f08c379a000000000000000000000000000000000000000000000000000000000815260040161329f9061570a565b60405180910390fd5b6132b460008383612730565b80603560008282546132c691906141a0565b9250508190555080603360008473ffffffffffffffffffffffffffffffffffffffff1673ffffffffffffffffffffffffffffffffffffffff168152602001908152602001600020600082825461331c91906141a0565b925050819055508173ffffffffffffffffffffffffffffffffffffffff16600073ffffffffffffffffffffffffffffffffffffffff167fddf252ad1be2c89b69c2b068fc378daa952ba7f163c4a11628f55a4df523b3ef836040516133819190613a01565b60405180910390a361339560008383612748565b5050565b60007bffffffffffffffffffffffffffffffffffffffffffffffffffffffff905090565b600081836133cb91906141a0565b905092915050565b6000806000858054905090506000811461344157856001826133f591906145be565b81548110613406576134056145f2565b5b9060005260206000200160000160049054906101000a90047bffffffffffffffffffffffffffffffffffffffffffffffffffffffff16613444565b60005b7bffffffffffffffffffffffffffffffffffffffffffffffffffffffff16925061347283858763ffffffff16565b91506000811180156134c55750438660018361348e91906145be565b8154811061349f5761349e6145f2565b5b9060005260206000200160000160009054906101000a900463ffffffff1663ffffffff16145b15613552576134d3826136cd565b866001836134e191906145be565b815481106134f2576134f16145f2565b5b9060005260206000200160000160046101000a8154817bffffffffffffffffffffffffffffffffffffffffffffffffffffffff02191690837bffffffffffffffffffffffffffffffffffffffffffffffffffffffff160217905550613642565b8560405180604001604052806135674361229e565b63ffffffff16815260200161357b856136cd565b7bffffffffffffffffffffffffffffffffffffffffffffffffffffffff168152509080600181540180825580915050600190039060005260206000200160009091909190915060008201518160000160006101000a81548163ffffffff021916908363ffffffff16021790555060208201518160000160046101000a8154817bffffffffffffffffffffffffffffffffffffffffffffffffffffffff02191690837bffffffffffffffffffffffffffffffffffffffffffffffffffffffff16021790555050505b50935093915050565b6000818361365991906145be565b905092915050565b505050565b60608315613676578290506136c6565b6000835111156136895782518084602001fd5b816040517f08c379a00000000000000000000000000000000000000000000000000000000081526004016136bd91906138b2565b60405180910390fd5b9392505050565b60007bffffffffffffffffffffffffffffffffffffffffffffffffffffffff8016821115613730576040517f08c379a00000000000000000000000000000000000000000000000000000000081526004016137279061579c565b60405180910390fd5b819050919050565b6040518060400160405280600063ffffffff16815260200160007bffffffffffffffffffffffffffffffffffffffffffffffffffffffff1681525090565b8280546137829061401b565b90600052602060002090601f0160209004810192826137a457600085556137eb565b82601f106137bd57805160ff19168380011785556137eb565b828001600101855582156137eb579182015b828111156137ea5782518255916020019190600101906137cf565b5b5090506137f891906137fc565b5090565b5b808211156138155760008160009055506001016137fd565b5090565b600081519050919050565b600082825260208201905092915050565b60005b83811015613853578082015181840152602081019050613838565b83811115613862576000848401525b50505050565b6000601f19601f8301169050919050565b600061388482613819565b61388e8185613824565b935061389e818560208601613835565b6138a781613868565b840191505092915050565b600060208201905081810360008301526138cc8184613879565b905092915050565b6000604051905090565b600080fd5b600080fd5b600073ffffffffffffffffffffffffffffffffffffffff82169050919050565b6000613913826138e8565b9050919050565b61392381613908565b811461392e57600080fd5b50565b6000813590506139408161391a565b92915050565b6000819050919050565b61395981613946565b811461396457600080fd5b50565b60008135905061397681613950565b92915050565b60008060408385031215613993576139926138de565b5b60006139a185828601613931565b92505060206139b285828601613967565b9150509250929050565b60008115159050919050565b6139d1816139bc565b82525050565b60006020820190506139ec60008301846139c8565b92915050565b6139fb81613946565b82525050565b6000602082019050613a1660008301846139f2565b92915050565b600080600060608486031215613a3557613a346138de565b5b6000613a4386828701613931565b9350506020613a5486828701613931565b9250506040613a6586828701613967565b9150509250925092565b600060ff82169050919050565b613a8581613a6f565b82525050565b6000602082019050613aa06000830184613a7c565b92915050565b6000819050919050565b613ab981613aa6565b82525050565b6000602082019050613ad46000830184613ab0565b92915050565b600060208284031215613af057613aef6138de565b5b6000613afe84828501613931565b91505092915050565b600080fd5b600080fd5b7f4e487b7100000000000000000000000000000000000000000000000000000000600052604160045260246000fd5b613b4982613868565b810181811067ffffffffffffffff82111715613b6857613b67613b11565b5b80604052505050565b6000613b7b6138d4565b9050613b878282613b40565b919050565b600067ffffffffffffffff821115613ba757613ba6613b11565b5b613bb082613868565b9050602081019050919050565b82818337600083830152505050565b6000613bdf613bda84613b8c565b613b71565b905082815260208101848484011115613bfb57613bfa613b0c565b5b613c06848285613bbd565b509392505050565b600082601f830112613c2357613c22613b07565b5b8135613c33848260208601613bcc565b91505092915050565b60008060408385031215613c5357613c526138de565b5b6000613c6185828601613931565b925050602083013567ffffffffffffffff811115613c8257613c816138e3565b5b613c8e85828601613c0e565b9150509250929050565b613ca181613908565b82525050565b6000602082019050613cbc6000830184613c98565b92915050565b600063ffffffff82169050919050565b613cdb81613cc2565b82525050565b6000602082019050613cf66000830184613cd2565b92915050565b600060208284031215613d1257613d116138de565b5b6000613d2084828501613967565b91505092915050565b613d3281613a6f565b8114613d3d57600080fd5b50565b600081359050613d4f81613d29565b92915050565b613d5e81613aa6565b8114613d6957600080fd5b50565b600081359050613d7b81613d55565b92915050565b60008060008060008060c08789031215613d9e57613d9d6138de565b5b6000613dac89828a01613931565b9650506020613dbd89828a01613967565b9550506040613dce89828a01613967565b9450506060613ddf89828a01613d40565b9350506080613df089828a01613d6c565b92505060a0613e0189828a01613d6c565b9150509295509295509295565b600080600080600080600060e0888a031215613e2d57613e2c6138de565b5b6000613e3b8a828b01613931565b9750506020613e4c8a828b01613931565b9650506040613e5d8a828b01613967565b9550506060613e6e8a828b01613967565b9450506080613e7f8a828b01613d40565b93505060a0613e908a828b01613d6c565b92505060c0613ea18a828b01613d6c565b91505092959891949750929550565b60008060408385031215613ec757613ec66138de565b5b6000613ed585828601613931565b9250506020613ee685828601613931565b9150509250929050565b613ef981613cc2565b8114613f0457600080fd5b50565b600081359050613f1681613ef0565b92915050565b60008060408385031215613f3357613f326138de565b5b6000613f4185828601613931565b9250506020613f5285828601613f07565b9150509250929050565b613f6581613cc2565b82525050565b60007bffffffffffffffffffffffffffffffffffffffffffffffffffffffff82169050919050565b613f9c81613f6b565b82525050565b604082016000820151613fb86000850182613f5c565b506020820151613fcb6020850182613f93565b50505050565b6000604082019050613fe66000830184613fa2565b92915050565b7f4e487b7100000000000000000000000000000000000000000000000000000000600052602260045260246000fd5b6000600282049050600182168061403357607f821691505b6020821081141561404757614046613fec565b5b50919050565b7f46756e6374696f6e206d7573742062652063616c6c6564207468726f7567682060008201527f64656c656761746563616c6c0000000000000000000000000000000000000000602082015250565b60006140a9602c83613824565b91506140b48261404d565b604082019050919050565b600060208201905081810360008301526140d88161409c565b9050919050565b7f46756e6374696f6e206d7573742062652063616c6c6564207468726f7567682060008201527f6163746976652070726f78790000000000000000000000000000000000000000602082015250565b600061413b602c83613824565b9150614146826140df565b604082019050919050565b6000602082019050818103600083015261416a8161412e565b9050919050565b7f4e487b7100000000000000000000000000000000000000000000000000000000600052601160045260246000fd5b60006141ab82613946565b91506141b683613946565b9250827fffffffffffffffffffffffffffffffffffffffffffffffffffffffffffffffff038211156141eb576141ea614171565b5b828201905092915050565b7f4552433230566f7465733a20626c6f636b206e6f7420796574206d696e656400600082015250565b600061422c601f83613824565b9150614237826141f6565b602082019050919050565b6000602082019050818103600083015261425b8161421f565b9050919050565b7f555550535570677261646561626c653a206d757374206e6f742062652063616c60008201527f6c6564207468726f7567682064656c656761746563616c6c0000000000000000602082015250565b60006142be603883613824565b91506142c982614262565b604082019050919050565b600060208201905081810360008301526142ed816142b1565b9050919050565b7f496e697469616c697a61626c653a20636f6e747261637420697320616c72656160008201527f647920696e697469616c697a6564000000000000000000000000000000000000602082015250565b6000614350602e83613824565b915061435b826142f4565b604082019050919050565b6000602082019050818103600083015261437f81614343565b9050919050565b60008160011c9050919050565b6000808291508390505b60018511156143dd578086048111156143b9576143b8614171565b5b60018516156143c85780820291505b80810290506143d685614386565b945061439d565b94509492505050565b6000826143f657600190506144b2565b8161440457600090506144b2565b816001811461441a576002811461442457614453565b60019150506144b2565b60ff84111561443657614435614171565b5b8360020a91508482111561444d5761444c614171565b5b506144b2565b5060208310610133831016604e8410600b84101617156144885782820a90508381111561448357614482614171565b5b6144b2565b6144958484846001614393565b925090508184048111156144ac576144ab614171565b5b81810290505b9392505050565b60006144c482613946565b91506144cf83613a6f565b92506144fc7fffffffffffffffffffffffffffffffffffffffffffffffffffffffffffffffff84846143e6565b905092915050565b600061450f82613946565b915061451a83613946565b9250817fffffffffffffffffffffffffffffffffffffffffffffffffffffffffffffffff048311821515161561455357614552614171565b5b828202905092915050565b6000819050919050565b6000819050919050565b600061458d6145886145838461455e565b614568565b613a6f565b9050919050565b61459d81614572565b82525050565b60006020820190506145b86000830184614594565b92915050565b60006145c982613946565b91506145d483613946565b9250828210156145e7576145e6614171565b5b828203905092915050565b7f4e487b7100000000000000000000000000000000000000000000000000000000600052603260045260246000fd5b7f45524332303a2064656372656173656420616c6c6f77616e63652062656c6f7760008201527f207a65726f000000000000000000000000000000000000000000000000000000602082015250565b600061467d602583613824565b915061468882614621565b604082019050919050565b600060208201905081810360008301526146ac81614670565b9050919050565b7f4552433230566f7465733a207369676e61747572652065787069726564000000600082015250565b60006146e9601d83613824565b91506146f4826146b3565b602082019050919050565b60006020820190508181036000830152614718816146dc565b9050919050565b60006080820190506147346000830187613ab0565b6147416020830186613c98565b61474e60408301856139f2565b61475b60608301846139f2565b95945050505050565b7f4552433230566f7465733a20696e76616c6964206e6f6e636500000000000000600082015250565b600061479a601983613824565b91506147a582614764565b602082019050919050565b600060208201905081810360008301526147c98161478d565b9050919050565b7f45524332305065726d69743a206578706972656420646561646c696e65000000600082015250565b6000614806601d83613824565b9150614811826147d0565b602082019050919050565b60006020820190508181036000830152614835816147f9565b9050919050565b600060c0820190506148516000830189613ab0565b61485e6020830188613c98565b61486b6040830187613c98565b61487860608301866139f2565b61488560808301856139f2565b61489260a08301846139f2565b979650505050505050565b7f45524332305065726d69743a20696e76616c6964207369676e61747572650000600082015250565b60006148d3601e83613824565b91506148de8261489d565b602082019050919050565b60006020820190508181036000830152614902816148c6565b9050919050565b7f4f776e61626c653a206e6577206f776e657220697320746865207a65726f206160008201527f6464726573730000000000000000000000000000000000000000000000000000602082015250565b6000614965602683613824565b915061497082614909565b604082019050919050565b6000602082019050818103600083015261499481614958565b9050919050565b7f45524332303a20617070726f76652066726f6d20746865207a65726f2061646460008201527f7265737300000000000000000000000000000000000000000000000000000000602082015250565b60006149f7602483613824565b9150614a028261499b565b604082019050919050565b60006020820190508181036000830152614a26816149ea565b9050919050565b7f45524332303a20617070726f766520746f20746865207a65726f20616464726560008201527f7373000000000000000000000000000000000000000000000000000000000000602082015250565b6000614a89602283613824565b9150614a9482614a2d565b604082019050919050565b60006020820190508181036000830152614ab881614a7c565b9050919050565b7f45524332303a20696e73756666696369656e7420616c6c6f77616e6365000000600082015250565b6000614af5601d83613824565b9150614b0082614abf565b602082019050919050565b60006020820190508181036000830152614b2481614ae8565b9050919050565b7f45524332303a207472616e736665722066726f6d20746865207a65726f20616460008201527f6472657373000000000000000000000000000000000000000000000000000000602082015250565b6000614b87602583613824565b9150614b9282614b2b565b604082019050919050565b60006020820190508181036000830152614bb681614b7a565b9050919050565b7f45524332303a207472616e7366657220746f20746865207a65726f206164647260008201527f6573730000000000000000000000000000000000000000000000000000000000602082015250565b6000614c19602383613824565b9150614c2482614bbd565b604082019050919050565b60006020820190508181036000830152614c4881614c0c565b9050919050565b7f45524332303a207472616e7366657220616d6f756e742065786365656473206260008201527f616c616e63650000000000000000000000000000000000000000000000000000602082015250565b6000614cab602683613824565b9150614cb682614c4f565b604082019050919050565b60006020820190508181036000830152614cda81614c9e565b9050919050565b600081519050614cf081613d55565b92915050565b600060208284031215614d0c57614d0b6138de565b5b6000614d1a84828501614ce1565b91505092915050565b7f45524331393637557067726164653a206e657720696d706c656d656e7461746960008201527f6f6e206973206e6f742055555053000000000000000000000000000000000000602082015250565b6000614d7f602e83613824565b9150614d8a82614d23565b604082019050919050565b60006020820190508181036000830152614dae81614d72565b9050919050565b7f45524331393637557067726164653a20756e737570706f727465642070726f7860008201527f6961626c65555549440000000000000000000000000000000000000000000000602082015250565b6000614e11602983613824565b9150614e1c82614db5565b604082019050919050565b60006020820190508181036000830152614e4081614e04565b9050919050565b7f4f776e61626c653a2063616c6c6572206973206e6f7420746865206f776e6572600082015250565b6000614e7d602083613824565b9150614e8882614e47565b602082019050919050565b60006020820190508181036000830152614eac81614e70565b9050919050565b7f53616665436173743a2076616c756520646f65736e27742066697420696e203360008201527f3220626974730000000000000000000000000000000000000000000000000000602082015250565b6000614f0f602683613824565b9150614f1a82614eb3565b604082019050919050565b60006020820190508181036000830152614f3e81614f02565b9050919050565b7f496e697469616c697a61626c653a20636f6e7472616374206973206e6f74206960008201527f6e697469616c697a696e67000000000000000000000000000000000000000000602082015250565b6000614fa1602b83613824565b9150614fac82614f45565b604082019050919050565b60006020820190508181036000830152614fd081614f94565b9050919050565b600060a082019050614fec6000830188613ab0565b614ff96020830187613ab0565b6150066040830186613ab0565b61501360608301856139f2565b6150206080830184613c98565b9695505050505050565b7f455243313936373a206e657720696d706c656d656e746174696f6e206973206e60008201527f6f74206120636f6e747261637400000000000000000000000000000000000000602082015250565b6000615086602d83613824565b91506150918261502a565b604082019050919050565b600060208201905081810360008301526150b581615079565b9050919050565b7f4e487b7100000000000000000000000000000000000000000000000000000000600052601260045260246000fd5b60006150f682613946565b915061510183613946565b925082615111576151106150bc565b5b828204905092915050565b7f5061757361626c653a206e6f7420706175736564000000000000000000000000600082015250565b6000615152601483613824565b915061515d8261511c565b602082019050919050565b6000602082019050818103600083015261518181615145565b9050919050565b7f4552433230566f7465733a20746f74616c20737570706c79207269736b73206f60008201527f766572666c6f77696e6720766f74657300000000000000000000000000000000602082015250565b60006151e4603083613824565b91506151ef82615188565b604082019050919050565b60006020820190508181036000830152615213816151d7565b9050919050565b600060408201905061522f60008301856139f2565b61523c60208301846139f2565b9392505050565b7f5061757361626c653a2070617573656400000000000000000000000000000000600082015250565b6000615279601083613824565b915061528482615243565b602082019050919050565b600060208201905081810360008301526152a88161526c565b9050919050565b600081905092915050565b7f1901000000000000000000000000000000000000000000000000000000000000600082015250565b60006152f06002836152af565b91506152fb826152ba565b600282019050919050565b6000819050919050565b61532161531c82613aa6565b615306565b82525050565b6000615332826152e3565b915061533e8285615310565b60208201915061534e8284615310565b6020820191508190509392505050565b60006080820190506153736000830187613ab0565b6153806020830186613a7c565b61538d6040830185613ab0565b61539a6060830184613ab0565b95945050505050565b7f4e487b7100000000000000000000000000000000000000000000000000000000600052602160045260246000fd5b7f45434453413a20696e76616c6964207369676e61747572650000000000000000600082015250565b6000615408601883613824565b9150615413826153d2565b602082019050919050565b60006020820190508181036000830152615437816153fb565b9050919050565b7f45434453413a20696e76616c6964207369676e6174757265206c656e67746800600082015250565b6000615474601f83613824565b915061547f8261543e565b602082019050919050565b600060208201905081810360008301526154a381615467565b9050919050565b7f45434453413a20696e76616c6964207369676e6174757265202773272076616c60008201527f7565000000000000000000000000000000000000000000000000000000000000602082015250565b6000615506602283613824565b9150615511826154aa565b604082019050919050565b60006020820190508181036000830152615535816154f9565b9050919050565b7f45434453413a20696e76616c6964207369676e6174757265202776272076616c60008201527f7565000000000000000000000000000000000000000000000000000000000000602082015250565b6000615598602283613824565b91506155a38261553c565b604082019050919050565b600060208201905081810360008301526155c78161558b565b9050919050565b7f416464726573733a2064656c65676174652063616c6c20746f206e6f6e2d636f60008201527f6e74726163740000000000000000000000000000000000000000000000000000602082015250565b600061562a602683613824565b9150615635826155ce565b604082019050919050565b600060208201905081810360008301526156598161561d565b9050919050565b600081519050919050565b600081905092915050565b600061568182615660565b61568b818561566b565b935061569b818560208601613835565b80840191505092915050565b60006156b38284615676565b915081905092915050565b7f45524332303a206d696e7420746f20746865207a65726f206164647265737300600082015250565b60006156f4601f83613824565b91506156ff826156be565b602082019050919050565b60006020820190508181036000830152615723816156e7565b9050919050565b7f53616665436173743a2076616c756520646f65736e27742066697420696e203260008201527f3234206269747300000000000000000000000000000000000000000000000000602082015250565b6000615786602783613824565b91506157918261572a565b604082019050919050565b600060208201905081810360008301526157b581615779565b905091905056fe416464726573733a206c6f772d6c6576656c2064656c65676174652063616c6c206661696c6564a26469706673582212207bd224d18db0988d647946b316b2ea02aaed73b4f0e79aeeb05be7e474f29a7464736f6c63430008090033","opcodes":"PUSH1 0xA0 PUSH1 0x40 MSTORE ADDRESS PUSH20 0xFFFFFFFFFFFFFFFFFFFFFFFFFFFFFFFFFFFFFFFF AND PUSH1 0x80 SWAP1 PUSH20 0xFFFFFFFFFFFFFFFFFFFFFFFFFFFFFFFFFFFFFFFF AND DUP2 MSTORE POP CALLVALUE DUP1 ISZERO PUSH3 0x44 JUMPI PUSH1 0x0 DUP1 REVERT JUMPDEST POP PUSH3 0x55 PUSH3 0x5B PUSH1 0x20 SHL PUSH1 0x20 SHR JUMP JUMPDEST PUSH3 0x206 JUMP JUMPDEST PUSH1 0x0 PUSH1 0x1 SWAP1 SLOAD SWAP1 PUSH2 0x100 EXP SWAP1 DIV PUSH1 0xFF AND ISZERO PUSH3 0xAE JUMPI PUSH1 0x40 MLOAD PUSH32 0x8C379A000000000000000000000000000000000000000000000000000000000 DUP2 MSTORE PUSH1 0x4 ADD PUSH3 0xA5 SWAP1 PUSH3 0x1A9 JUMP JUMPDEST PUSH1 0x40 MLOAD DUP1 SWAP2 SUB SWAP1 REVERT JUMPDEST PUSH1 0xFF DUP1 AND PUSH1 0x0 DUP1 SLOAD SWAP1 PUSH2 0x100 EXP SWAP1 DIV PUSH1 0xFF AND PUSH1 0xFF AND LT ISZERO PUSH3 0x120 JUMPI PUSH1 0xFF PUSH1 0x0 DUP1 PUSH2 0x100 EXP DUP2 SLOAD DUP2 PUSH1 0xFF MUL NOT AND SWAP1 DUP4 PUSH1 0xFF AND MUL OR SWAP1 SSTORE POP PUSH32 0x7F26B83FF96E1F2B6A682F133852F6798A09C465DA95921460CEFB3847402498 PUSH1 0xFF PUSH1 0x40 MLOAD PUSH3 0x117 SWAP2 SWAP1 PUSH3 0x1E9 JUMP JUMPDEST PUSH1 0x40 MLOAD DUP1 SWAP2 SUB SWAP1 LOG1 JUMPDEST JUMP JUMPDEST PUSH1 0x0 DUP3 DUP3 MSTORE PUSH1 0x20 DUP3 ADD SWAP1 POP SWAP3 SWAP2 POP POP JUMP JUMPDEST PUSH32 0x496E697469616C697A61626C653A20636F6E747261637420697320696E697469 PUSH1 0x0 DUP3 ADD MSTORE PUSH32 0x616C697A696E6700000000000000000000000000000000000000000000000000 PUSH1 0x20 DUP3 ADD MSTORE POP JUMP JUMPDEST PUSH1 0x0 PUSH3 0x191 PUSH1 0x27 DUP4 PUSH3 0x122 JUMP JUMPDEST SWAP2 POP PUSH3 0x19E DUP3 PUSH3 0x133 JUMP JUMPDEST PUSH1 0x40 DUP3 ADD SWAP1 POP SWAP2 SWAP1 POP JUMP JUMPDEST PUSH1 0x0 PUSH1 0x20 DUP3 ADD SWAP1 POP DUP2 DUP2 SUB PUSH1 0x0 DUP4 ADD MSTORE PUSH3 0x1C4 DUP2 PUSH3 0x182 JUMP JUMPDEST SWAP1 POP SWAP2 SWAP1 POP JUMP JUMPDEST PUSH1 0x0 PUSH1 0xFF DUP3 AND SWAP1 POP SWAP2 SWAP1 POP JUMP JUMPDEST PUSH3 0x1E3 DUP2 PUSH3 0x1CB JUMP JUMPDEST DUP3 MSTORE POP POP JUMP JUMPDEST PUSH1 0x0 PUSH1 0x20 DUP3 ADD SWAP1 POP PUSH3 0x200 PUSH1 0x0 DUP4 ADD DUP5 PUSH3 0x1D8 JUMP JUMPDEST SWAP3 SWAP2 POP POP JUMP JUMPDEST PUSH1 0x80 MLOAD PUSH2 0x5819 PUSH3 0x23E PUSH1 0x0 CODECOPY PUSH1 0x0 DUP2 DUP2 PUSH2 0x917 ADD MSTORE DUP2 DUP2 PUSH2 0x9A6 ADD MSTORE DUP2 DUP2 PUSH2 0xB94 ADD MSTORE DUP2 DUP2 PUSH2 0xC23 ADD MSTORE PUSH2 0xCD3 ADD MSTORE PUSH2 0x5819 PUSH1 0x0 RETURN INVALID PUSH1 0x80 PUSH1 0x40 MSTORE PUSH1 0x4 CALLDATASIZE LT PUSH2 0x1EE JUMPI PUSH1 0x0 CALLDATALOAD PUSH1 0xE0 SHR DUP1 PUSH4 0x6FCFFF45 GT PUSH2 0x10D JUMPI DUP1 PUSH4 0x95D89B41 GT PUSH2 0xA0 JUMPI DUP1 PUSH4 0xC3CDA520 GT PUSH2 0x6F JUMPI DUP1 PUSH4 0xC3CDA520 EQ PUSH2 0x71A JUMPI DUP1 PUSH4 0xD505ACCF EQ PUSH2 0x743 JUMPI DUP1 PUSH4 0xDD62ED3E EQ PUSH2 0x76C JUMPI DUP1 PUSH4 0xF1127ED8 EQ PUSH2 0x7A9 JUMPI DUP1 PUSH4 0xF2FDE38B EQ PUSH2 0x7E6 JUMPI PUSH2 0x1EE JUMP JUMPDEST DUP1 PUSH4 0x95D89B41 EQ PUSH2 0x638 JUMPI DUP1 PUSH4 0x9AB24EB0 EQ PUSH2 0x663 JUMPI DUP1 PUSH4 0xA457C2D7 EQ PUSH2 0x6A0 JUMPI DUP1 PUSH4 0xA9059CBB EQ PUSH2 0x6DD JUMPI PUSH2 0x1EE JUMP JUMPDEST DUP1 PUSH4 0x8129FC1C GT PUSH2 0xDC JUMPI DUP1 PUSH4 0x8129FC1C EQ PUSH2 0x5A2 JUMPI DUP1 PUSH4 0x8456CB59 EQ PUSH2 0x5B9 JUMPI DUP1 PUSH4 0x8DA5CB5B EQ PUSH2 0x5D0 JUMPI DUP1 PUSH4 0x8E539E8C EQ PUSH2 0x5FB JUMPI PUSH2 0x1EE JUMP JUMPDEST DUP1 PUSH4 0x6FCFFF45 EQ PUSH2 0x4D4 JUMPI DUP1 PUSH4 0x70A08231 EQ PUSH2 0x511 JUMPI DUP1 PUSH4 0x715018A6 EQ PUSH2 0x54E JUMPI DUP1 PUSH4 0x7ECEBE00 EQ PUSH2 0x565 JUMPI PUSH2 0x1EE JUMP JUMPDEST DUP1 PUSH4 0x3A46B1A8 GT PUSH2 0x185 JUMPI DUP1 PUSH4 0x52D1902D GT PUSH2 0x154 JUMPI DUP1 PUSH4 0x52D1902D EQ PUSH2 0x418 JUMPI DUP1 PUSH4 0x587CDE1E EQ PUSH2 0x443 JUMPI DUP1 PUSH4 0x5C19A95C EQ PUSH2 0x480 JUMPI DUP1 PUSH4 0x5C975ABB EQ PUSH2 0x4A9 JUMPI PUSH2 0x1EE JUMP JUMPDEST DUP1 PUSH4 0x3A46B1A8 EQ PUSH2 0x37F JUMPI DUP1 PUSH4 0x3F4BA83A EQ PUSH2 0x3BC JUMPI DUP1 PUSH4 0x40C10F19 EQ PUSH2 0x3D3 JUMPI DUP1 PUSH4 0x4F1EF286 EQ PUSH2 0x3FC JUMPI PUSH2 0x1EE JUMP JUMPDEST DUP1 PUSH4 0x313CE567 GT PUSH2 0x1C1 JUMPI DUP1 PUSH4 0x313CE567 EQ PUSH2 0x2C3 JUMPI DUP1 PUSH4 0x3644E515 EQ PUSH2 0x2EE JUMPI DUP1 PUSH4 0x3659CFE6 EQ PUSH2 0x319 JUMPI DUP1 PUSH4 0x39509351 EQ PUSH2 0x342 JUMPI PUSH2 0x1EE JUMP JUMPDEST DUP1 PUSH4 0x6FDDE03 EQ PUSH2 0x1F3 JUMPI DUP1 PUSH4 0x95EA7B3 EQ PUSH2 0x21E JUMPI DUP1 PUSH4 0x18160DDD EQ PUSH2 0x25B JUMPI DUP1 PUSH4 0x23B872DD EQ PUSH2 0x286 JUMPI JUMPDEST PUSH1 0x0 DUP1 REVERT JUMPDEST CALLVALUE DUP1 ISZERO PUSH2 0x1FF JUMPI PUSH1 0x0 DUP1 REVERT JUMPDEST POP PUSH2 0x208 PUSH2 0x80F JUMP JUMPDEST PUSH1 0x40 MLOAD PUSH2 0x215 SWAP2 SWAP1 PUSH2 0x38B2 JUMP JUMPDEST PUSH1 0x40 MLOAD DUP1 SWAP2 SUB SWAP1 RETURN JUMPDEST CALLVALUE DUP1 ISZERO PUSH2 0x22A JUMPI PUSH1 0x0 DUP1 REVERT JUMPDEST POP PUSH2 0x245 PUSH1 0x4 DUP1 CALLDATASIZE SUB DUP2 ADD SWAP1 PUSH2 0x240 SWAP2 SWAP1 PUSH2 0x397C JUMP JUMPDEST PUSH2 0x8A1 JUMP JUMPDEST PUSH1 0x40 MLOAD PUSH2 0x252 SWAP2 SWAP1 PUSH2 0x39D7 JUMP JUMPDEST PUSH1 0x40 MLOAD DUP1 SWAP2 SUB SWAP1 RETURN JUMPDEST CALLVALUE DUP1 ISZERO PUSH2 0x267 JUMPI PUSH1 0x0 DUP1 REVERT JUMPDEST POP PUSH2 0x270 PUSH2 0x8C4 JUMP JUMPDEST PUSH1 0x40 MLOAD PUSH2 0x27D SWAP2 SWAP1 PUSH2 0x3A01 JUMP JUMPDEST PUSH1 0x40 MLOAD DUP1 SWAP2 SUB SWAP1 RETURN JUMPDEST CALLVALUE DUP1 ISZERO PUSH2 0x292 JUMPI PUSH1 0x0 DUP1 REVERT JUMPDEST POP PUSH2 0x2AD PUSH1 0x4 DUP1 CALLDATASIZE SUB DUP2 ADD SWAP1 PUSH2 0x2A8 SWAP2 SWAP1 PUSH2 0x3A1C JUMP JUMPDEST PUSH2 0x8CE JUMP JUMPDEST PUSH1 0x40 MLOAD PUSH2 0x2BA SWAP2 SWAP1 PUSH2 0x39D7 JUMP JUMPDEST PUSH1 0x40 MLOAD DUP1 SWAP2 SUB SWAP1 RETURN JUMPDEST CALLVALUE DUP1 ISZERO PUSH2 0x2CF JUMPI PUSH1 0x0 DUP1 REVERT JUMPDEST POP PUSH2 0x2D8 PUSH2 0x8FD JUMP JUMPDEST PUSH1 0x40 MLOAD PUSH2 0x2E5 SWAP2 SWAP1 PUSH2 0x3A8B JUMP JUMPDEST PUSH1 0x40 MLOAD DUP1 SWAP2 SUB SWAP1 RETURN JUMPDEST CALLVALUE DUP1 ISZERO PUSH2 0x2FA JUMPI PUSH1 0x0 DUP1 REVERT JUMPDEST POP PUSH2 0x303 PUSH2 0x906 JUMP JUMPDEST PUSH1 0x40 MLOAD PUSH2 0x310 SWAP2 SWAP1 PUSH2 0x3ABF JUMP JUMPDEST PUSH1 0x40 MLOAD DUP1 SWAP2 SUB SWAP1 RETURN JUMPDEST CALLVALUE DUP1 ISZERO PUSH2 0x325 JUMPI PUSH1 0x0 DUP1 REVERT JUMPDEST POP PUSH2 0x340 PUSH1 0x4 DUP1 CALLDATASIZE SUB DUP2 ADD SWAP1 PUSH2 0x33B SWAP2 SWAP1 PUSH2 0x3ADA JUMP JUMPDEST PUSH2 0x915 JUMP JUMPDEST STOP JUMPDEST CALLVALUE DUP1 ISZERO PUSH2 0x34E JUMPI PUSH1 0x0 DUP1 REVERT JUMPDEST POP PUSH2 0x369 PUSH1 0x4 DUP1 CALLDATASIZE SUB DUP2 ADD SWAP1 PUSH2 0x364 SWAP2 SWAP1 PUSH2 0x397C JUMP JUMPDEST PUSH2 0xA9E JUMP JUMPDEST PUSH1 0x40 MLOAD PUSH2 0x376 SWAP2 SWAP1 PUSH2 0x39D7 JUMP JUMPDEST PUSH1 0x40 MLOAD DUP1 SWAP2 SUB SWAP1 RETURN JUMPDEST CALLVALUE DUP1 ISZERO PUSH2 0x38B JUMPI PUSH1 0x0 DUP1 REVERT JUMPDEST POP PUSH2 0x3A6 PUSH1 0x4 DUP1 CALLDATASIZE SUB DUP2 ADD SWAP1 PUSH2 0x3A1 SWAP2 SWAP1 PUSH2 0x397C JUMP JUMPDEST PUSH2 0xAD5 JUMP JUMPDEST PUSH1 0x40 MLOAD PUSH2 0x3B3 SWAP2 SWAP1 PUSH2 0x3A01 JUMP JUMPDEST PUSH1 0x40 MLOAD DUP1 SWAP2 SUB SWAP1 RETURN JUMPDEST CALLVALUE DUP1 ISZERO PUSH2 0x3C8 JUMPI PUSH1 0x0 DUP1 REVERT JUMPDEST POP PUSH2 0x3D1 PUSH2 0xB6A JUMP JUMPDEST STOP JUMPDEST CALLVALUE DUP1 ISZERO PUSH2 0x3DF JUMPI PUSH1 0x0 DUP1 REVERT JUMPDEST POP PUSH2 0x3FA PUSH1 0x4 DUP1 CALLDATASIZE SUB DUP2 ADD SWAP1 PUSH2 0x3F5 SWAP2 SWAP1 PUSH2 0x397C JUMP JUMPDEST PUSH2 0xB7C JUMP JUMPDEST STOP JUMPDEST PUSH2 0x416 PUSH1 0x4 DUP1 CALLDATASIZE SUB DUP2 ADD SWAP1 PUSH2 0x411 SWAP2 SWAP1 PUSH2 0x3C3C JUMP JUMPDEST PUSH2 0xB92 JUMP JUMPDEST STOP JUMPDEST CALLVALUE DUP1 ISZERO PUSH2 0x424 JUMPI PUSH1 0x0 DUP1 REVERT JUMPDEST POP PUSH2 0x42D PUSH2 0xCCF JUMP JUMPDEST PUSH1 0x40 MLOAD PUSH2 0x43A SWAP2 SWAP1 PUSH2 0x3ABF JUMP JUMPDEST PUSH1 0x40 MLOAD DUP1 SWAP2 SUB SWAP1 RETURN JUMPDEST CALLVALUE DUP1 ISZERO PUSH2 0x44F JUMPI PUSH1 0x0 DUP1 REVERT JUMPDEST POP PUSH2 0x46A PUSH1 0x4 DUP1 CALLDATASIZE SUB DUP2 ADD SWAP1 PUSH2 0x465 SWAP2 SWAP1 PUSH2 0x3ADA JUMP JUMPDEST PUSH2 0xD88 JUMP JUMPDEST PUSH1 0x40 MLOAD PUSH2 0x477 SWAP2 SWAP1 PUSH2 0x3CA7 JUMP JUMPDEST PUSH1 0x40 MLOAD DUP1 SWAP2 SUB SWAP1 RETURN JUMPDEST CALLVALUE DUP1 ISZERO PUSH2 0x48C JUMPI PUSH1 0x0 DUP1 REVERT JUMPDEST POP PUSH2 0x4A7 PUSH1 0x4 DUP1 CALLDATASIZE SUB DUP2 ADD SWAP1 PUSH2 0x4A2 SWAP2 SWAP1 PUSH2 0x3ADA JUMP JUMPDEST PUSH2 0xDF2 JUMP JUMPDEST STOP JUMPDEST CALLVALUE DUP1 ISZERO PUSH2 0x4B5 JUMPI PUSH1 0x0 DUP1 REVERT JUMPDEST POP PUSH2 0x4BE PUSH2 0xE06 JUMP JUMPDEST PUSH1 0x40 MLOAD PUSH2 0x4CB SWAP2 SWAP1 PUSH2 0x39D7 JUMP JUMPDEST PUSH1 0x40 MLOAD DUP1 SWAP2 SUB SWAP1 RETURN JUMPDEST CALLVALUE DUP1 ISZERO PUSH2 0x4E0 JUMPI PUSH1 0x0 DUP1 REVERT JUMPDEST POP PUSH2 0x4FB PUSH1 0x4 DUP1 CALLDATASIZE SUB DUP2 ADD SWAP1 PUSH2 0x4F6 SWAP2 SWAP1 PUSH2 0x3ADA JUMP JUMPDEST PUSH2 0xE1D JUMP JUMPDEST PUSH1 0x40 MLOAD PUSH2 0x508 SWAP2 SWAP1 PUSH2 0x3CE1 JUMP JUMPDEST PUSH1 0x40 MLOAD DUP1 SWAP2 SUB SWAP1 RETURN JUMPDEST CALLVALUE DUP1 ISZERO PUSH2 0x51D JUMPI PUSH1 0x0 DUP1 REVERT JUMPDEST POP PUSH2 0x538 PUSH1 0x4 DUP1 CALLDATASIZE SUB DUP2 ADD SWAP1 PUSH2 0x533 SWAP2 SWAP1 PUSH2 0x3ADA JUMP JUMPDEST PUSH2 0xE72 JUMP JUMPDEST PUSH1 0x40 MLOAD PUSH2 0x545 SWAP2 SWAP1 PUSH2 0x3A01 JUMP JUMPDEST PUSH1 0x40 MLOAD DUP1 SWAP2 SUB SWAP1 RETURN JUMPDEST CALLVALUE DUP1 ISZERO PUSH2 0x55A JUMPI PUSH1 0x0 DUP1 REVERT JUMPDEST POP PUSH2 0x563 PUSH2 0xEBB JUMP JUMPDEST STOP JUMPDEST CALLVALUE DUP1 ISZERO PUSH2 0x571 JUMPI PUSH1 0x0 DUP1 REVERT JUMPDEST POP PUSH2 0x58C PUSH1 0x4 DUP1 CALLDATASIZE SUB DUP2 ADD SWAP1 PUSH2 0x587 SWAP2 SWAP1 PUSH2 0x3ADA JUMP JUMPDEST PUSH2 0xECF JUMP JUMPDEST PUSH1 0x40 MLOAD PUSH2 0x599 SWAP2 SWAP1 PUSH2 0x3A01 JUMP JUMPDEST PUSH1 0x40 MLOAD DUP1 SWAP2 SUB SWAP1 RETURN JUMPDEST CALLVALUE DUP1 ISZERO PUSH2 0x5AE JUMPI PUSH1 0x0 DUP1 REVERT JUMPDEST POP PUSH2 0x5B7 PUSH2 0xF1F JUMP JUMPDEST STOP JUMPDEST CALLVALUE DUP1 ISZERO PUSH2 0x5C5 JUMPI PUSH1 0x0 DUP1 REVERT JUMPDEST POP PUSH2 0x5CE PUSH2 0x1152 JUMP JUMPDEST STOP JUMPDEST CALLVALUE DUP1 ISZERO PUSH2 0x5DC JUMPI PUSH1 0x0 DUP1 REVERT JUMPDEST POP PUSH2 0x5E5 PUSH2 0x1164 JUMP JUMPDEST PUSH1 0x40 MLOAD PUSH2 0x5F2 SWAP2 SWAP1 PUSH2 0x3CA7 JUMP JUMPDEST PUSH1 0x40 MLOAD DUP1 SWAP2 SUB SWAP1 RETURN JUMPDEST CALLVALUE DUP1 ISZERO PUSH2 0x607 JUMPI PUSH1 0x0 DUP1 REVERT JUMPDEST POP PUSH2 0x622 PUSH1 0x4 DUP1 CALLDATASIZE SUB DUP2 ADD SWAP1 PUSH2 0x61D SWAP2 SWAP1 PUSH2 0x3CFC JUMP JUMPDEST PUSH2 0x118E JUMP JUMPDEST PUSH1 0x40 MLOAD PUSH2 0x62F SWAP2 SWAP1 PUSH2 0x3A01 JUMP JUMPDEST PUSH1 0x40 MLOAD DUP1 SWAP2 SUB SWAP1 RETURN JUMPDEST CALLVALUE DUP1 ISZERO PUSH2 0x644 JUMPI PUSH1 0x0 DUP1 REVERT JUMPDEST POP PUSH2 0x64D PUSH2 0x11E5 JUMP JUMPDEST PUSH1 0x40 MLOAD PUSH2 0x65A SWAP2 SWAP1 PUSH2 0x38B2 JUMP JUMPDEST PUSH1 0x40 MLOAD DUP1 SWAP2 SUB SWAP1 RETURN JUMPDEST CALLVALUE DUP1 ISZERO PUSH2 0x66F JUMPI PUSH1 0x0 DUP1 REVERT JUMPDEST POP PUSH2 0x68A PUSH1 0x4 DUP1 CALLDATASIZE SUB DUP2 ADD SWAP1 PUSH2 0x685 SWAP2 SWAP1 PUSH2 0x3ADA JUMP JUMPDEST PUSH2 0x1277 JUMP JUMPDEST PUSH1 0x40 MLOAD PUSH2 0x697 SWAP2 SWAP1 PUSH2 0x3A01 JUMP JUMPDEST PUSH1 0x40 MLOAD DUP1 SWAP2 SUB SWAP1 RETURN JUMPDEST CALLVALUE DUP1 ISZERO PUSH2 0x6AC JUMPI PUSH1 0x0 DUP1 REVERT JUMPDEST POP PUSH2 0x6C7 PUSH1 0x4 DUP1 CALLDATASIZE SUB DUP2 ADD SWAP1 PUSH2 0x6C2 SWAP2 SWAP1 PUSH2 0x397C JUMP JUMPDEST PUSH2 0x138A JUMP JUMPDEST PUSH1 0x40 MLOAD PUSH2 0x6D4 SWAP2 SWAP1 PUSH2 0x39D7 JUMP JUMPDEST PUSH1 0x40 MLOAD DUP1 SWAP2 SUB SWAP1 RETURN JUMPDEST CALLVALUE DUP1 ISZERO PUSH2 0x6E9 JUMPI PUSH1 0x0 DUP1 REVERT JUMPDEST POP PUSH2 0x704 PUSH1 0x4 DUP1 CALLDATASIZE SUB DUP2 ADD SWAP1 PUSH2 0x6FF SWAP2 SWAP1 PUSH2 0x397C JUMP JUMPDEST PUSH2 0x1401 JUMP JUMPDEST PUSH1 0x40 MLOAD PUSH2 0x711 SWAP2 SWAP1 PUSH2 0x39D7 JUMP JUMPDEST PUSH1 0x40 MLOAD DUP1 SWAP2 SUB SWAP1 RETURN JUMPDEST CALLVALUE DUP1 ISZERO PUSH2 0x726 JUMPI PUSH1 0x0 DUP1 REVERT JUMPDEST POP PUSH2 0x741 PUSH1 0x4 DUP1 CALLDATASIZE SUB DUP2 ADD SWAP1 PUSH2 0x73C SWAP2 SWAP1 PUSH2 0x3D81 JUMP JUMPDEST PUSH2 0x1424 JUMP JUMPDEST STOP JUMPDEST CALLVALUE DUP1 ISZERO PUSH2 0x74F JUMPI PUSH1 0x0 DUP1 REVERT JUMPDEST POP PUSH2 0x76A PUSH1 0x4 DUP1 CALLDATASIZE SUB DUP2 ADD SWAP1 PUSH2 0x765 SWAP2 SWAP1 PUSH2 0x3E0E JUMP JUMPDEST PUSH2 0x1528 JUMP JUMPDEST STOP JUMPDEST CALLVALUE DUP1 ISZERO PUSH2 0x778 JUMPI PUSH1 0x0 DUP1 REVERT JUMPDEST POP PUSH2 0x793 PUSH1 0x4 DUP1 CALLDATASIZE SUB DUP2 ADD SWAP1 PUSH2 0x78E SWAP2 SWAP1 PUSH2 0x3EB0 JUMP JUMPDEST PUSH2 0x166A JUMP JUMPDEST PUSH1 0x40 MLOAD PUSH2 0x7A0 SWAP2 SWAP1 PUSH2 0x3A01 JUMP JUMPDEST PUSH1 0x40 MLOAD DUP1 SWAP2 SUB SWAP1 RETURN JUMPDEST CALLVALUE DUP1 ISZERO PUSH2 0x7B5 JUMPI PUSH1 0x0 DUP1 REVERT JUMPDEST POP PUSH2 0x7D0 PUSH1 0x4 DUP1 CALLDATASIZE SUB DUP2 ADD SWAP1 PUSH2 0x7CB SWAP2 SWAP1 PUSH2 0x3F1C JUMP JUMPDEST PUSH2 0x16F1 JUMP JUMPDEST PUSH1 0x40 MLOAD PUSH2 0x7DD SWAP2 SWAP1 PUSH2 0x3FD1 JUMP JUMPDEST PUSH1 0x40 MLOAD DUP1 SWAP2 SUB SWAP1 RETURN JUMPDEST CALLVALUE DUP1 ISZERO PUSH2 0x7F2 JUMPI PUSH1 0x0 DUP1 REVERT JUMPDEST POP PUSH2 0x80D PUSH1 0x4 DUP1 CALLDATASIZE SUB DUP2 ADD SWAP1 PUSH2 0x808 SWAP2 SWAP1 PUSH2 0x3ADA JUMP JUMPDEST PUSH2 0x1802 JUMP JUMPDEST STOP JUMPDEST PUSH1 0x60 PUSH1 0x36 DUP1 SLOAD PUSH2 0x81E SWAP1 PUSH2 0x401B JUMP JUMPDEST DUP1 PUSH1 0x1F ADD PUSH1 0x20 DUP1 SWAP2 DIV MUL PUSH1 0x20 ADD PUSH1 0x40 MLOAD SWAP1 DUP2 ADD PUSH1 0x40 MSTORE DUP1 SWAP3 SWAP2 SWAP1 DUP2 DUP2 MSTORE PUSH1 0x20 ADD DUP3 DUP1 SLOAD PUSH2 0x84A SWAP1 PUSH2 0x401B JUMP JUMPDEST DUP1 ISZERO PUSH2 0x897 JUMPI DUP1 PUSH1 0x1F LT PUSH2 0x86C JUMPI PUSH2 0x100 DUP1 DUP4 SLOAD DIV MUL DUP4 MSTORE SWAP2 PUSH1 0x20 ADD SWAP2 PUSH2 0x897 JUMP JUMPDEST DUP3 ADD SWAP2 SWAP1 PUSH1 0x0 MSTORE PUSH1 0x20 PUSH1 0x0 KECCAK256 SWAP1 JUMPDEST DUP2 SLOAD DUP2 MSTORE SWAP1 PUSH1 0x1 ADD SWAP1 PUSH1 0x20 ADD DUP1 DUP4 GT PUSH2 0x87A JUMPI DUP3 SWAP1 SUB PUSH1 0x1F AND DUP3 ADD SWAP2 JUMPDEST POP POP POP POP POP SWAP1 POP SWAP1 JUMP JUMPDEST PUSH1 0x0 DUP1 PUSH2 0x8AC PUSH2 0x1886 JUMP JUMPDEST SWAP1 POP PUSH2 0x8B9 DUP2 DUP6 DUP6 PUSH2 0x188E JUMP JUMPDEST PUSH1 0x1 SWAP2 POP POP SWAP3 SWAP2 POP POP JUMP JUMPDEST PUSH1 0x0 PUSH1 0x35 SLOAD SWAP1 POP SWAP1 JUMP JUMPDEST PUSH1 0x0 DUP1 PUSH2 0x8D9 PUSH2 0x1886 JUMP JUMPDEST SWAP1 POP PUSH2 0x8E6 DUP6 DUP3 DUP6 PUSH2 0x1A59 JUMP JUMPDEST PUSH2 0x8F1 DUP6 DUP6 DUP6 PUSH2 0x1AE5 JUMP JUMPDEST PUSH1 0x1 SWAP2 POP POP SWAP4 SWAP3 POP POP POP JUMP JUMPDEST PUSH1 0x0 PUSH1 0x12 SWAP1 POP SWAP1 JUMP JUMPDEST PUSH1 0x0 PUSH2 0x910 PUSH2 0x1D69 JUMP JUMPDEST SWAP1 POP SWAP1 JUMP JUMPDEST PUSH32 0x0 PUSH20 0xFFFFFFFFFFFFFFFFFFFFFFFFFFFFFFFFFFFFFFFF AND ADDRESS PUSH20 0xFFFFFFFFFFFFFFFFFFFFFFFFFFFFFFFFFFFFFFFF AND EQ ISZERO PUSH2 0x9A4 JUMPI PUSH1 0x40 MLOAD PUSH32 0x8C379A000000000000000000000000000000000000000000000000000000000 DUP2 MSTORE PUSH1 0x4 ADD PUSH2 0x99B SWAP1 PUSH2 0x40BF JUMP JUMPDEST PUSH1 0x40 MLOAD DUP1 SWAP2 SUB SWAP1 REVERT JUMPDEST PUSH32 0x0 PUSH20 0xFFFFFFFFFFFFFFFFFFFFFFFFFFFFFFFFFFFFFFFF AND PUSH2 0x9E3 PUSH2 0x1DA9 JUMP JUMPDEST PUSH20 0xFFFFFFFFFFFFFFFFFFFFFFFFFFFFFFFFFFFFFFFF AND EQ PUSH2 0xA39 JUMPI PUSH1 0x40 MLOAD PUSH32 0x8C379A000000000000000000000000000000000000000000000000000000000 DUP2 MSTORE PUSH1 0x4 ADD PUSH2 0xA30 SWAP1 PUSH2 0x4151 JUMP JUMPDEST PUSH1 0x40 MLOAD DUP1 SWAP2 SUB SWAP1 REVERT JUMPDEST PUSH2 0xA42 DUP2 PUSH2 0x1E00 JUMP JUMPDEST PUSH2 0xA9B DUP2 PUSH1 0x0 PUSH8 0xFFFFFFFFFFFFFFFF DUP2 GT ISZERO PUSH2 0xA61 JUMPI PUSH2 0xA60 PUSH2 0x3B11 JUMP JUMPDEST JUMPDEST PUSH1 0x40 MLOAD SWAP1 DUP1 DUP3 MSTORE DUP1 PUSH1 0x1F ADD PUSH1 0x1F NOT AND PUSH1 0x20 ADD DUP3 ADD PUSH1 0x40 MSTORE DUP1 ISZERO PUSH2 0xA93 JUMPI DUP2 PUSH1 0x20 ADD PUSH1 0x1 DUP3 MUL DUP1 CALLDATASIZE DUP4 CALLDATACOPY DUP1 DUP3 ADD SWAP2 POP POP SWAP1 POP JUMPDEST POP PUSH1 0x0 PUSH2 0x1E0B JUMP JUMPDEST POP JUMP JUMPDEST PUSH1 0x0 DUP1 PUSH2 0xAA9 PUSH2 0x1886 JUMP JUMPDEST SWAP1 POP PUSH2 0xACA DUP2 DUP6 DUP6 PUSH2 0xABB DUP6 DUP10 PUSH2 0x166A JUMP JUMPDEST PUSH2 0xAC5 SWAP2 SWAP1 PUSH2 0x41A0 JUMP JUMPDEST PUSH2 0x188E JUMP JUMPDEST PUSH1 0x1 SWAP2 POP POP SWAP3 SWAP2 POP POP JUMP JUMPDEST PUSH1 0x0 NUMBER DUP3 LT PUSH2 0xB19 JUMPI PUSH1 0x40 MLOAD PUSH32 0x8C379A000000000000000000000000000000000000000000000000000000000 DUP2 MSTORE PUSH1 0x4 ADD PUSH2 0xB10 SWAP1 PUSH2 0x4242 JUMP JUMPDEST PUSH1 0x40 MLOAD DUP1 SWAP2 SUB SWAP1 REVERT JUMPDEST PUSH2 0xB62 PUSH2 0x131 PUSH1 0x0 DUP6 PUSH20 0xFFFFFFFFFFFFFFFFFFFFFFFFFFFFFFFFFFFFFFFF AND PUSH20 0xFFFFFFFFFFFFFFFFFFFFFFFFFFFFFFFFFFFFFFFF AND DUP2 MSTORE PUSH1 0x20 ADD SWAP1 DUP2 MSTORE PUSH1 0x20 ADD PUSH1 0x0 KECCAK256 DUP4 PUSH2 0x1F88 JUMP JUMPDEST SWAP1 POP SWAP3 SWAP2 POP POP JUMP JUMPDEST PUSH2 0xB72 PUSH2 0x2094 JUMP JUMPDEST PUSH2 0xB7A PUSH2 0x2112 JUMP JUMPDEST JUMP JUMPDEST PUSH2 0xB84 PUSH2 0x2094 JUMP JUMPDEST PUSH2 0xB8E DUP3 DUP3 PUSH2 0x2175 JUMP JUMPDEST POP POP JUMP JUMPDEST PUSH32 0x0 PUSH20 0xFFFFFFFFFFFFFFFFFFFFFFFFFFFFFFFFFFFFFFFF AND ADDRESS PUSH20 0xFFFFFFFFFFFFFFFFFFFFFFFFFFFFFFFFFFFFFFFF AND EQ ISZERO PUSH2 0xC21 JUMPI PUSH1 0x40 MLOAD PUSH32 0x8C379A000000000000000000000000000000000000000000000000000000000 DUP2 MSTORE PUSH1 0x4 ADD PUSH2 0xC18 SWAP1 PUSH2 0x40BF JUMP JUMPDEST PUSH1 0x40 MLOAD DUP1 SWAP2 SUB SWAP1 REVERT JUMPDEST PUSH32 0x0 PUSH20 0xFFFFFFFFFFFFFFFFFFFFFFFFFFFFFFFFFFFFFFFF AND PUSH2 0xC60 PUSH2 0x1DA9 JUMP JUMPDEST PUSH20 0xFFFFFFFFFFFFFFFFFFFFFFFFFFFFFFFFFFFFFFFF AND EQ PUSH2 0xCB6 JUMPI PUSH1 0x40 MLOAD PUSH32 0x8C379A000000000000000000000000000000000000000000000000000000000 DUP2 MSTORE PUSH1 0x4 ADD PUSH2 0xCAD SWAP1 PUSH2 0x4151 JUMP JUMPDEST PUSH1 0x40 MLOAD DUP1 SWAP2 SUB SWAP1 REVERT JUMPDEST PUSH2 0xCBF DUP3 PUSH2 0x1E00 JUMP JUMPDEST PUSH2 0xCCB DUP3 DUP3 PUSH1 0x1 PUSH2 0x1E0B JUMP JUMPDEST POP POP JUMP JUMPDEST PUSH1 0x0 PUSH32 0x0 PUSH20 0xFFFFFFFFFFFFFFFFFFFFFFFFFFFFFFFFFFFFFFFF AND ADDRESS PUSH20 0xFFFFFFFFFFFFFFFFFFFFFFFFFFFFFFFFFFFFFFFF AND EQ PUSH2 0xD5F JUMPI PUSH1 0x40 MLOAD PUSH32 0x8C379A000000000000000000000000000000000000000000000000000000000 DUP2 MSTORE PUSH1 0x4 ADD PUSH2 0xD56 SWAP1 PUSH2 0x42D4 JUMP JUMPDEST PUSH1 0x40 MLOAD DUP1 SWAP2 SUB SWAP1 REVERT JUMPDEST PUSH32 0x360894A13BA1A3210667C828492DB98DCA3E2076CC3735A920A3CA505D382BBC PUSH1 0x0 SHL SWAP1 POP SWAP1 JUMP JUMPDEST PUSH1 0x0 PUSH2 0x130 PUSH1 0x0 DUP4 PUSH20 0xFFFFFFFFFFFFFFFFFFFFFFFFFFFFFFFFFFFFFFFF AND PUSH20 0xFFFFFFFFFFFFFFFFFFFFFFFFFFFFFFFFFFFFFFFF AND DUP2 MSTORE PUSH1 0x20 ADD SWAP1 DUP2 MSTORE PUSH1 0x20 ADD PUSH1 0x0 KECCAK256 PUSH1 0x0 SWAP1 SLOAD SWAP1 PUSH2 0x100 EXP SWAP1 DIV PUSH20 0xFFFFFFFFFFFFFFFFFFFFFFFFFFFFFFFFFFFFFFFF AND SWAP1 POP SWAP2 SWAP1 POP JUMP JUMPDEST PUSH2 0xE03 PUSH2 0xDFD PUSH2 0x1886 JUMP JUMPDEST DUP3 PUSH2 0x2183 JUMP JUMPDEST POP JUMP JUMPDEST PUSH1 0x0 PUSH1 0x65 PUSH1 0x0 SWAP1 SLOAD SWAP1 PUSH2 0x100 EXP SWAP1 DIV PUSH1 0xFF AND SWAP1 POP SWAP1 JUMP JUMPDEST PUSH1 0x0 PUSH2 0xE6B PUSH2 0x131 PUSH1 0x0 DUP5 PUSH20 0xFFFFFFFFFFFFFFFFFFFFFFFFFFFFFFFFFFFFFFFF AND PUSH20 0xFFFFFFFFFFFFFFFFFFFFFFFFFFFFFFFFFFFFFFFF AND DUP2 MSTORE PUSH1 0x20 ADD SWAP1 DUP2 MSTORE PUSH1 0x20 ADD PUSH1 0x0 KECCAK256 DUP1 SLOAD SWAP1 POP PUSH2 0x229E JUMP JUMPDEST SWAP1 POP SWAP2 SWAP1 POP JUMP JUMPDEST PUSH1 0x0 PUSH1 0x33 PUSH1 0x0 DUP4 PUSH20 0xFFFFFFFFFFFFFFFFFFFFFFFFFFFFFFFFFFFFFFFF AND PUSH20 0xFFFFFFFFFFFFFFFFFFFFFFFFFFFFFFFFFFFFFFFF AND DUP2 MSTORE PUSH1 0x20 ADD SWAP1 DUP2 MSTORE PUSH1 0x20 ADD PUSH1 0x0 KECCAK256 SLOAD SWAP1 POP SWAP2 SWAP1 POP JUMP JUMPDEST PUSH2 0xEC3 PUSH2 0x2094 JUMP JUMPDEST PUSH2 0xECD PUSH1 0x0 PUSH2 0x22F1 JUMP JUMPDEST JUMP JUMPDEST PUSH1 0x0 PUSH2 0xF18 PUSH1 0xFD PUSH1 0x0 DUP5 PUSH20 0xFFFFFFFFFFFFFFFFFFFFFFFFFFFFFFFFFFFFFFFF AND PUSH20 0xFFFFFFFFFFFFFFFFFFFFFFFFFFFFFFFFFFFFFFFF AND DUP2 MSTORE PUSH1 0x20 ADD SWAP1 DUP2 MSTORE PUSH1 0x20 ADD PUSH1 0x0 KECCAK256 PUSH2 0x23B7 JUMP JUMPDEST SWAP1 POP SWAP2 SWAP1 POP JUMP JUMPDEST PUSH1 0x0 DUP1 PUSH1 0x1 SWAP1 SLOAD SWAP1 PUSH2 0x100 EXP SWAP1 DIV PUSH1 0xFF AND ISZERO SWAP1 POP DUP1 DUP1 ISZERO PUSH2 0xF50 JUMPI POP PUSH1 0x1 PUSH1 0x0 DUP1 SLOAD SWAP1 PUSH2 0x100 EXP SWAP1 DIV PUSH1 0xFF AND PUSH1 0xFF AND LT JUMPDEST DUP1 PUSH2 0xF7D JUMPI POP PUSH2 0xF5F ADDRESS PUSH2 0x23C5 JUMP JUMPDEST ISZERO DUP1 ISZERO PUSH2 0xF7C JUMPI POP PUSH1 0x1 PUSH1 0x0 DUP1 SLOAD SWAP1 PUSH2 0x100 EXP SWAP1 DIV PUSH1 0xFF AND PUSH1 0xFF AND EQ JUMPDEST JUMPDEST PUSH2 0xFBC JUMPI PUSH1 0x40 MLOAD PUSH32 0x8C379A000000000000000000000000000000000000000000000000000000000 DUP2 MSTORE PUSH1 0x4 ADD PUSH2 0xFB3 SWAP1 PUSH2 0x4366 JUMP JUMPDEST PUSH1 0x40 MLOAD DUP1 SWAP2 SUB SWAP1 REVERT JUMPDEST PUSH1 0x1 PUSH1 0x0 DUP1 PUSH2 0x100 EXP DUP2 SLOAD DUP2 PUSH1 0xFF MUL NOT AND SWAP1 DUP4 PUSH1 0xFF AND MUL OR SWAP1 SSTORE POP DUP1 ISZERO PUSH2 0xFF9 JUMPI PUSH1 0x1 PUSH1 0x0 PUSH1 0x1 PUSH2 0x100 EXP DUP2 SLOAD DUP2 PUSH1 0xFF MUL NOT AND SWAP1 DUP4 ISZERO ISZERO MUL OR SWAP1 SSTORE POP JUMPDEST PUSH2 0x106D PUSH1 0x40 MLOAD DUP1 PUSH1 0x40 ADD PUSH1 0x40 MSTORE DUP1 PUSH1 0xB DUP2 MSTORE PUSH1 0x20 ADD PUSH32 0x566F74696E67546F6B656E000000000000000000000000000000000000000000 DUP2 MSTORE POP PUSH1 0x40 MLOAD DUP1 PUSH1 0x40 ADD PUSH1 0x40 MSTORE DUP1 PUSH1 0x3 DUP2 MSTORE PUSH1 0x20 ADD PUSH32 0x564F540000000000000000000000000000000000000000000000000000000000 DUP2 MSTORE POP PUSH2 0x23E8 JUMP JUMPDEST PUSH2 0x1075 PUSH2 0x2445 JUMP JUMPDEST PUSH2 0x107D PUSH2 0x249E JUMP JUMPDEST PUSH2 0x10BB PUSH1 0x40 MLOAD DUP1 PUSH1 0x40 ADD PUSH1 0x40 MSTORE DUP1 PUSH1 0xB DUP2 MSTORE PUSH1 0x20 ADD PUSH32 0x566F74696E67546F6B656E000000000000000000000000000000000000000000 DUP2 MSTORE POP PUSH2 0x24F7 JUMP JUMPDEST PUSH2 0x10C3 PUSH2 0x2588 JUMP JUMPDEST PUSH2 0x10CB PUSH2 0x25D9 JUMP JUMPDEST PUSH2 0x10F6 CALLER PUSH2 0x10D7 PUSH2 0x8FD JUMP JUMPDEST PUSH1 0xA PUSH2 0x10E3 SWAP2 SWAP1 PUSH2 0x44B9 JUMP JUMPDEST PUSH3 0xF4240 PUSH2 0x10F1 SWAP2 SWAP1 PUSH2 0x4504 JUMP JUMPDEST PUSH2 0x2175 JUMP JUMPDEST DUP1 ISZERO PUSH2 0x114F JUMPI PUSH1 0x0 DUP1 PUSH1 0x1 PUSH2 0x100 EXP DUP2 SLOAD DUP2 PUSH1 0xFF MUL NOT AND SWAP1 DUP4 ISZERO ISZERO MUL OR SWAP1 SSTORE POP PUSH32 0x7F26B83FF96E1F2B6A682F133852F6798A09C465DA95921460CEFB3847402498 PUSH1 0x1 PUSH1 0x40 MLOAD PUSH2 0x1146 SWAP2 SWAP1 PUSH2 0x45A3 JUMP JUMPDEST PUSH1 0x40 MLOAD DUP1 SWAP2 SUB SWAP1 LOG1 JUMPDEST POP JUMP JUMPDEST PUSH2 0x115A PUSH2 0x2094 JUMP JUMPDEST PUSH2 0x1162 PUSH2 0x262A JUMP JUMPDEST JUMP JUMPDEST PUSH1 0x0 PUSH1 0x97 PUSH1 0x0 SWAP1 SLOAD SWAP1 PUSH2 0x100 EXP SWAP1 DIV PUSH20 0xFFFFFFFFFFFFFFFFFFFFFFFFFFFFFFFFFFFFFFFF AND SWAP1 POP SWAP1 JUMP JUMPDEST PUSH1 0x0 NUMBER DUP3 LT PUSH2 0x11D2 JUMPI PUSH1 0x40 MLOAD PUSH32 0x8C379A000000000000000000000000000000000000000000000000000000000 DUP2 MSTORE PUSH1 0x4 ADD PUSH2 0x11C9 SWAP1 PUSH2 0x4242 JUMP JUMPDEST PUSH1 0x40 MLOAD DUP1 SWAP2 SUB SWAP1 REVERT JUMPDEST PUSH2 0x11DE PUSH2 0x132 DUP4 PUSH2 0x1F88 JUMP JUMPDEST SWAP1 POP SWAP2 SWAP1 POP JUMP JUMPDEST PUSH1 0x60 PUSH1 0x37 DUP1 SLOAD PUSH2 0x11F4 SWAP1 PUSH2 0x401B JUMP JUMPDEST DUP1 PUSH1 0x1F ADD PUSH1 0x20 DUP1 SWAP2 DIV MUL PUSH1 0x20 ADD PUSH1 0x40 MLOAD SWAP1 DUP2 ADD PUSH1 0x40 MSTORE DUP1 SWAP3 SWAP2 SWAP1 DUP2 DUP2 MSTORE PUSH1 0x20 ADD DUP3 DUP1 SLOAD PUSH2 0x1220 SWAP1 PUSH2 0x401B JUMP JUMPDEST DUP1 ISZERO PUSH2 0x126D JUMPI DUP1 PUSH1 0x1F LT PUSH2 0x1242 JUMPI PUSH2 0x100 DUP1 DUP4 SLOAD DIV MUL DUP4 MSTORE SWAP2 PUSH1 0x20 ADD SWAP2 PUSH2 0x126D JUMP JUMPDEST DUP3 ADD SWAP2 SWAP1 PUSH1 0x0 MSTORE PUSH1 0x20 PUSH1 0x0 KECCAK256 SWAP1 JUMPDEST DUP2 SLOAD DUP2 MSTORE SWAP1 PUSH1 0x1 ADD SWAP1 PUSH1 0x20 ADD DUP1 DUP4 GT PUSH2 0x1250 JUMPI DUP3 SWAP1 SUB PUSH1 0x1F AND DUP3 ADD SWAP2 JUMPDEST POP POP POP POP POP SWAP1 POP SWAP1 JUMP JUMPDEST PUSH1 0x0 DUP1 PUSH2 0x131 PUSH1 0x0 DUP5 PUSH20 0xFFFFFFFFFFFFFFFFFFFFFFFFFFFFFFFFFFFFFFFF AND PUSH20 0xFFFFFFFFFFFFFFFFFFFFFFFFFFFFFFFFFFFFFFFF AND DUP2 MSTORE PUSH1 0x20 ADD SWAP1 DUP2 MSTORE PUSH1 0x20 ADD PUSH1 0x0 KECCAK256 DUP1 SLOAD SWAP1 POP SWAP1 POP PUSH1 0x0 DUP2 EQ PUSH2 0x1361 JUMPI PUSH2 0x131 PUSH1 0x0 DUP5 PUSH20 0xFFFFFFFFFFFFFFFFFFFFFFFFFFFFFFFFFFFFFFFF AND PUSH20 0xFFFFFFFFFFFFFFFFFFFFFFFFFFFFFFFFFFFFFFFF AND DUP2 MSTORE PUSH1 0x20 ADD SWAP1 DUP2 MSTORE PUSH1 0x20 ADD PUSH1 0x0 KECCAK256 PUSH1 0x1 DUP3 PUSH2 0x1315 SWAP2 SWAP1 PUSH2 0x45BE JUMP JUMPDEST DUP2 SLOAD DUP2 LT PUSH2 0x1326 JUMPI PUSH2 0x1325 PUSH2 0x45F2 JUMP JUMPDEST JUMPDEST SWAP1 PUSH1 0x0 MSTORE PUSH1 0x20 PUSH1 0x0 KECCAK256 ADD PUSH1 0x0 ADD PUSH1 0x4 SWAP1 SLOAD SWAP1 PUSH2 0x100 EXP SWAP1 DIV PUSH28 0xFFFFFFFFFFFFFFFFFFFFFFFFFFFFFFFFFFFFFFFFFFFFFFFFFFFFFFFF AND PUSH2 0x1364 JUMP JUMPDEST PUSH1 0x0 JUMPDEST PUSH28 0xFFFFFFFFFFFFFFFFFFFFFFFFFFFFFFFFFFFFFFFFFFFFFFFFFFFFFFFF AND SWAP2 POP POP SWAP2 SWAP1 POP JUMP JUMPDEST PUSH1 0x0 DUP1 PUSH2 0x1395 PUSH2 0x1886 JUMP JUMPDEST SWAP1 POP PUSH1 0x0 PUSH2 0x13A3 DUP3 DUP7 PUSH2 0x166A JUMP JUMPDEST SWAP1 POP DUP4 DUP2 LT ISZERO PUSH2 0x13E8 JUMPI PUSH1 0x40 MLOAD PUSH32 0x8C379A000000000000000000000000000000000000000000000000000000000 DUP2 MSTORE PUSH1 0x4 ADD PUSH2 0x13DF SWAP1 PUSH2 0x4693 JUMP JUMPDEST PUSH1 0x40 MLOAD DUP1 SWAP2 SUB SWAP1 REVERT JUMPDEST PUSH2 0x13F5 DUP3 DUP7 DUP7 DUP5 SUB PUSH2 0x188E JUMP JUMPDEST PUSH1 0x1 SWAP3 POP POP POP SWAP3 SWAP2 POP POP JUMP JUMPDEST PUSH1 0x0 DUP1 PUSH2 0x140C PUSH2 0x1886 JUMP JUMPDEST SWAP1 POP PUSH2 0x1419 DUP2 DUP6 DUP6 PUSH2 0x1AE5 JUMP JUMPDEST PUSH1 0x1 SWAP2 POP POP SWAP3 SWAP2 POP POP JUMP JUMPDEST DUP4 TIMESTAMP GT ISZERO PUSH2 0x1467 JUMPI PUSH1 0x40 MLOAD PUSH32 0x8C379A000000000000000000000000000000000000000000000000000000000 DUP2 MSTORE PUSH1 0x4 ADD PUSH2 0x145E SWAP1 PUSH2 0x46FF JUMP JUMPDEST PUSH1 0x40 MLOAD DUP1 SWAP2 SUB SWAP1 REVERT JUMPDEST PUSH1 0x0 PUSH2 0x14C9 PUSH2 0x14C1 PUSH32 0xE48329057BFD03D55E49B547132E39CFFD9C1820AD7B9D4C5307691425D15ADF DUP10 DUP10 DUP10 PUSH1 0x40 MLOAD PUSH1 0x20 ADD PUSH2 0x14A6 SWAP5 SWAP4 SWAP3 SWAP2 SWAP1 PUSH2 0x471F JUMP JUMPDEST PUSH1 0x40 MLOAD PUSH1 0x20 DUP2 DUP4 SUB SUB DUP2 MSTORE SWAP1 PUSH1 0x40 MSTORE DUP1 MLOAD SWAP1 PUSH1 0x20 ADD KECCAK256 PUSH2 0x268D JUMP JUMPDEST DUP6 DUP6 DUP6 PUSH2 0x26A7 JUMP JUMPDEST SWAP1 POP PUSH2 0x14D4 DUP2 PUSH2 0x26D2 JUMP JUMPDEST DUP7 EQ PUSH2 0x1515 JUMPI PUSH1 0x40 MLOAD PUSH32 0x8C379A000000000000000000000000000000000000000000000000000000000 DUP2 MSTORE PUSH1 0x4 ADD PUSH2 0x150C SWAP1 PUSH2 0x47B0 JUMP JUMPDEST PUSH1 0x40 MLOAD DUP1 SWAP2 SUB SWAP1 REVERT JUMPDEST PUSH2 0x151F DUP2 DUP9 PUSH2 0x2183 JUMP JUMPDEST POP POP POP POP POP POP POP JUMP JUMPDEST DUP4 TIMESTAMP GT ISZERO PUSH2 0x156B JUMPI PUSH1 0x40 MLOAD PUSH32 0x8C379A000000000000000000000000000000000000000000000000000000000 DUP2 MSTORE PUSH1 0x4 ADD PUSH2 0x1562 SWAP1 PUSH2 0x481C JUMP JUMPDEST PUSH1 0x40 MLOAD DUP1 SWAP2 SUB SWAP1 REVERT JUMPDEST PUSH1 0x0 PUSH32 0x6E71EDAE12B1B97F4D1F60370FEF10105FA2FAAE0126114A169C64845D6126C9 DUP9 DUP9 DUP9 PUSH2 0x159A DUP13 PUSH2 0x26D2 JUMP JUMPDEST DUP10 PUSH1 0x40 MLOAD PUSH1 0x20 ADD PUSH2 0x15B0 SWAP7 SWAP6 SWAP5 SWAP4 SWAP3 SWAP2 SWAP1 PUSH2 0x483C JUMP JUMPDEST PUSH1 0x40 MLOAD PUSH1 0x20 DUP2 DUP4 SUB SUB DUP2 MSTORE SWAP1 PUSH1 0x40 MSTORE DUP1 MLOAD SWAP1 PUSH1 0x20 ADD KECCAK256 SWAP1 POP PUSH1 0x0 PUSH2 0x15D3 DUP3 PUSH2 0x268D JUMP JUMPDEST SWAP1 POP PUSH1 0x0 PUSH2 0x15E3 DUP3 DUP8 DUP8 DUP8 PUSH2 0x26A7 JUMP JUMPDEST SWAP1 POP DUP10 PUSH20 0xFFFFFFFFFFFFFFFFFFFFFFFFFFFFFFFFFFFFFFFF AND DUP2 PUSH20 0xFFFFFFFFFFFFFFFFFFFFFFFFFFFFFFFFFFFFFFFF AND EQ PUSH2 0x1653 JUMPI PUSH1 0x40 MLOAD PUSH32 0x8C379A000000000000000000000000000000000000000000000000000000000 DUP2 MSTORE PUSH1 0x4 ADD PUSH2 0x164A SWAP1 PUSH2 0x48E9 JUMP JUMPDEST PUSH1 0x40 MLOAD DUP1 SWAP2 SUB SWAP1 REVERT JUMPDEST PUSH2 0x165E DUP11 DUP11 DUP11 PUSH2 0x188E JUMP JUMPDEST POP POP POP POP POP POP POP POP POP POP JUMP JUMPDEST PUSH1 0x0 PUSH1 0x34 PUSH1 0x0 DUP5 PUSH20 0xFFFFFFFFFFFFFFFFFFFFFFFFFFFFFFFFFFFFFFFF AND PUSH20 0xFFFFFFFFFFFFFFFFFFFFFFFFFFFFFFFFFFFFFFFF AND DUP2 MSTORE PUSH1 0x20 ADD SWAP1 DUP2 MSTORE PUSH1 0x20 ADD PUSH1 0x0 KECCAK256 PUSH1 0x0 DUP4 PUSH20 0xFFFFFFFFFFFFFFFFFFFFFFFFFFFFFFFFFFFFFFFF AND PUSH20 0xFFFFFFFFFFFFFFFFFFFFFFFFFFFFFFFFFFFFFFFF AND DUP2 MSTORE PUSH1 0x20 ADD SWAP1 DUP2 MSTORE PUSH1 0x20 ADD PUSH1 0x0 KECCAK256 SLOAD SWAP1 POP SWAP3 SWAP2 POP POP JUMP JUMPDEST PUSH2 0x16F9 PUSH2 0x3738 JUMP JUMPDEST PUSH2 0x131 PUSH1 0x0 DUP5 PUSH20 0xFFFFFFFFFFFFFFFFFFFFFFFFFFFFFFFFFFFFFFFF AND PUSH20 0xFFFFFFFFFFFFFFFFFFFFFFFFFFFFFFFFFFFFFFFF AND DUP2 MSTORE PUSH1 0x20 ADD SWAP1 DUP2 MSTORE PUSH1 0x20 ADD PUSH1 0x0 KECCAK256 DUP3 PUSH4 0xFFFFFFFF AND DUP2 SLOAD DUP2 LT PUSH2 0x1751 JUMPI PUSH2 0x1750 PUSH2 0x45F2 JUMP JUMPDEST JUMPDEST SWAP1 PUSH1 0x0 MSTORE PUSH1 0x20 PUSH1 0x0 KECCAK256 ADD PUSH1 0x40 MLOAD DUP1 PUSH1 0x40 ADD PUSH1 0x40 MSTORE SWAP1 DUP2 PUSH1 0x0 DUP3 ADD PUSH1 0x0 SWAP1 SLOAD SWAP1 PUSH2 0x100 EXP SWAP1 DIV PUSH4 0xFFFFFFFF AND PUSH4 0xFFFFFFFF AND PUSH4 0xFFFFFFFF AND DUP2 MSTORE PUSH1 0x20 ADD PUSH1 0x0 DUP3 ADD PUSH1 0x4 SWAP1 SLOAD SWAP1 PUSH2 0x100 EXP SWAP1 DIV PUSH28 0xFFFFFFFFFFFFFFFFFFFFFFFFFFFFFFFFFFFFFFFFFFFFFFFFFFFFFFFF AND PUSH28 0xFFFFFFFFFFFFFFFFFFFFFFFFFFFFFFFFFFFFFFFFFFFFFFFFFFFFFFFF AND PUSH28 0xFFFFFFFFFFFFFFFFFFFFFFFFFFFFFFFFFFFFFFFFFFFFFFFFFFFFFFFF AND DUP2 MSTORE POP POP SWAP1 POP SWAP3 SWAP2 POP POP JUMP JUMPDEST PUSH2 0x180A PUSH2 0x2094 JUMP JUMPDEST PUSH1 0x0 PUSH20 0xFFFFFFFFFFFFFFFFFFFFFFFFFFFFFFFFFFFFFFFF AND DUP2 PUSH20 0xFFFFFFFFFFFFFFFFFFFFFFFFFFFFFFFFFFFFFFFF AND EQ ISZERO PUSH2 0x187A JUMPI PUSH1 0x40 MLOAD PUSH32 0x8C379A000000000000000000000000000000000000000000000000000000000 DUP2 MSTORE PUSH1 0x4 ADD PUSH2 0x1871 SWAP1 PUSH2 0x497B JUMP JUMPDEST PUSH1 0x40 MLOAD DUP1 SWAP2 SUB SWAP1 REVERT JUMPDEST PUSH2 0x1883 DUP2 PUSH2 0x22F1 JUMP JUMPDEST POP JUMP JUMPDEST PUSH1 0x0 CALLER SWAP1 POP SWAP1 JUMP JUMPDEST PUSH1 0x0 PUSH20 0xFFFFFFFFFFFFFFFFFFFFFFFFFFFFFFFFFFFFFFFF AND DUP4 PUSH20 0xFFFFFFFFFFFFFFFFFFFFFFFFFFFFFFFFFFFFFFFF AND EQ ISZERO PUSH2 0x18FE JUMPI PUSH1 0x40 MLOAD PUSH32 0x8C379A000000000000000000000000000000000000000000000000000000000 DUP2 MSTORE PUSH1 0x4 ADD PUSH2 0x18F5 SWAP1 PUSH2 0x4A0D JUMP JUMPDEST PUSH1 0x40 MLOAD DUP1 SWAP2 SUB SWAP1 REVERT JUMPDEST PUSH1 0x0 PUSH20 0xFFFFFFFFFFFFFFFFFFFFFFFFFFFFFFFFFFFFFFFF AND DUP3 PUSH20 0xFFFFFFFFFFFFFFFFFFFFFFFFFFFFFFFFFFFFFFFF AND EQ ISZERO PUSH2 0x196E JUMPI PUSH1 0x40 MLOAD PUSH32 0x8C379A000000000000000000000000000000000000000000000000000000000 DUP2 MSTORE PUSH1 0x4 ADD PUSH2 0x1965 SWAP1 PUSH2 0x4A9F JUMP JUMPDEST PUSH1 0x40 MLOAD DUP1 SWAP2 SUB SWAP1 REVERT JUMPDEST DUP1 PUSH1 0x34 PUSH1 0x0 DUP6 PUSH20 0xFFFFFFFFFFFFFFFFFFFFFFFFFFFFFFFFFFFFFFFF AND PUSH20 0xFFFFFFFFFFFFFFFFFFFFFFFFFFFFFFFFFFFFFFFF AND DUP2 MSTORE PUSH1 0x20 ADD SWAP1 DUP2 MSTORE PUSH1 0x20 ADD PUSH1 0x0 KECCAK256 PUSH1 0x0 DUP5 PUSH20 0xFFFFFFFFFFFFFFFFFFFFFFFFFFFFFFFFFFFFFFFF AND PUSH20 0xFFFFFFFFFFFFFFFFFFFFFFFFFFFFFFFFFFFFFFFF AND DUP2 MSTORE PUSH1 0x20 ADD SWAP1 DUP2 MSTORE PUSH1 0x20 ADD PUSH1 0x0 KECCAK256 DUP2 SWAP1 SSTORE POP DUP2 PUSH20 0xFFFFFFFFFFFFFFFFFFFFFFFFFFFFFFFFFFFFFFFF AND DUP4 PUSH20 0xFFFFFFFFFFFFFFFFFFFFFFFFFFFFFFFFFFFFFFFF AND PUSH32 0x8C5BE1E5EBEC7D5BD14F71427D1E84F3DD0314C0F7B2291E5B200AC8C7C3B925 DUP4 PUSH1 0x40 MLOAD PUSH2 0x1A4C SWAP2 SWAP1 PUSH2 0x3A01 JUMP JUMPDEST PUSH1 0x40 MLOAD DUP1 SWAP2 SUB SWAP1 LOG3 POP POP POP JUMP JUMPDEST PUSH1 0x0 PUSH2 0x1A65 DUP5 DUP5 PUSH2 0x166A JUMP JUMPDEST SWAP1 POP PUSH32 0xFFFFFFFFFFFFFFFFFFFFFFFFFFFFFFFFFFFFFFFFFFFFFFFFFFFFFFFFFFFFFFFF DUP2 EQ PUSH2 0x1ADF JUMPI DUP2 DUP2 LT ISZERO PUSH2 0x1AD1 JUMPI PUSH1 0x40 MLOAD PUSH32 0x8C379A000000000000000000000000000000000000000000000000000000000 DUP2 MSTORE PUSH1 0x4 ADD PUSH2 0x1AC8 SWAP1 PUSH2 0x4B0B JUMP JUMPDEST PUSH1 0x40 MLOAD DUP1 SWAP2 SUB SWAP1 REVERT JUMPDEST PUSH2 0x1ADE DUP5 DUP5 DUP5 DUP5 SUB PUSH2 0x188E JUMP JUMPDEST JUMPDEST POP POP POP POP JUMP JUMPDEST PUSH1 0x0 PUSH20 0xFFFFFFFFFFFFFFFFFFFFFFFFFFFFFFFFFFFFFFFF AND DUP4 PUSH20 0xFFFFFFFFFFFFFFFFFFFFFFFFFFFFFFFFFFFFFFFF AND EQ ISZERO PUSH2 0x1B55 JUMPI PUSH1 0x40 MLOAD PUSH32 0x8C379A000000000000000000000000000000000000000000000000000000000 DUP2 MSTORE PUSH1 0x4 ADD PUSH2 0x1B4C SWAP1 PUSH2 0x4B9D JUMP JUMPDEST PUSH1 0x40 MLOAD DUP1 SWAP2 SUB SWAP1 REVERT JUMPDEST PUSH1 0x0 PUSH20 0xFFFFFFFFFFFFFFFFFFFFFFFFFFFFFFFFFFFFFFFF AND DUP3 PUSH20 0xFFFFFFFFFFFFFFFFFFFFFFFFFFFFFFFFFFFFFFFF AND EQ ISZERO PUSH2 0x1BC5 JUMPI PUSH1 0x40 MLOAD PUSH32 0x8C379A000000000000000000000000000000000000000000000000000000000 DUP2 MSTORE PUSH1 0x4 ADD PUSH2 0x1BBC SWAP1 PUSH2 0x4C2F JUMP JUMPDEST PUSH1 0x40 MLOAD DUP1 SWAP2 SUB SWAP1 REVERT JUMPDEST PUSH2 0x1BD0 DUP4 DUP4 DUP4 PUSH2 0x2730 JUMP JUMPDEST PUSH1 0x0 PUSH1 0x33 PUSH1 0x0 DUP6 PUSH20 0xFFFFFFFFFFFFFFFFFFFFFFFFFFFFFFFFFFFFFFFF AND PUSH20 0xFFFFFFFFFFFFFFFFFFFFFFFFFFFFFFFFFFFFFFFF AND DUP2 MSTORE PUSH1 0x20 ADD SWAP1 DUP2 MSTORE PUSH1 0x20 ADD PUSH1 0x0 KECCAK256 SLOAD SWAP1 POP DUP2 DUP2 LT ISZERO PUSH2 0x1C57 JUMPI PUSH1 0x40 MLOAD PUSH32 0x8C379A000000000000000000000000000000000000000000000000000000000 DUP2 MSTORE PUSH1 0x4 ADD PUSH2 0x1C4E SWAP1 PUSH2 0x4CC1 JUMP JUMPDEST PUSH1 0x40 MLOAD DUP1 SWAP2 SUB SWAP1 REVERT JUMPDEST DUP2 DUP2 SUB PUSH1 0x33 PUSH1 0x0 DUP7 PUSH20 0xFFFFFFFFFFFFFFFFFFFFFFFFFFFFFFFFFFFFFFFF AND PUSH20 0xFFFFFFFFFFFFFFFFFFFFFFFFFFFFFFFFFFFFFFFF AND DUP2 MSTORE PUSH1 0x20 ADD SWAP1 DUP2 MSTORE PUSH1 0x20 ADD PUSH1 0x0 KECCAK256 DUP2 SWAP1 SSTORE POP DUP2 PUSH1 0x33 PUSH1 0x0 DUP6 PUSH20 0xFFFFFFFFFFFFFFFFFFFFFFFFFFFFFFFFFFFFFFFF AND PUSH20 0xFFFFFFFFFFFFFFFFFFFFFFFFFFFFFFFFFFFFFFFF AND DUP2 MSTORE PUSH1 0x20 ADD SWAP1 DUP2 MSTORE PUSH1 0x20 ADD PUSH1 0x0 KECCAK256 PUSH1 0x0 DUP3 DUP3 SLOAD PUSH2 0x1CEC SWAP2 SWAP1 PUSH2 0x41A0 JUMP JUMPDEST SWAP3 POP POP DUP2 SWAP1 SSTORE POP DUP3 PUSH20 0xFFFFFFFFFFFFFFFFFFFFFFFFFFFFFFFFFFFFFFFF AND DUP5 PUSH20 0xFFFFFFFFFFFFFFFFFFFFFFFFFFFFFFFFFFFFFFFF AND PUSH32 0xDDF252AD1BE2C89B69C2B068FC378DAA952BA7F163C4A11628F55A4DF523B3EF DUP5 PUSH1 0x40 MLOAD PUSH2 0x1D50 SWAP2 SWAP1 PUSH2 0x3A01 JUMP JUMPDEST PUSH1 0x40 MLOAD DUP1 SWAP2 SUB SWAP1 LOG3 PUSH2 0x1D63 DUP5 DUP5 DUP5 PUSH2 0x2748 JUMP JUMPDEST POP POP POP POP JUMP JUMPDEST PUSH1 0x0 PUSH2 0x1DA4 PUSH32 0x8B73C3C69BB8FE3D512ECC4CF759CC79239F7B179B0FFACAA9A75D522B39400F PUSH2 0x1D97 PUSH2 0x2758 JUMP JUMPDEST PUSH2 0x1D9F PUSH2 0x2762 JUMP JUMPDEST PUSH2 0x276C JUMP JUMPDEST SWAP1 POP SWAP1 JUMP JUMPDEST PUSH1 0x0 PUSH2 0x1DD7 PUSH32 0x360894A13BA1A3210667C828492DB98DCA3E2076CC3735A920A3CA505D382BBC PUSH1 0x0 SHL PUSH2 0x27A6 JUMP JUMPDEST PUSH1 0x0 ADD PUSH1 0x0 SWAP1 SLOAD SWAP1 PUSH2 0x100 EXP SWAP1 DIV PUSH20 0xFFFFFFFFFFFFFFFFFFFFFFFFFFFFFFFFFFFFFFFF AND SWAP1 POP SWAP1 JUMP JUMPDEST PUSH2 0x1E08 PUSH2 0x2094 JUMP JUMPDEST POP JUMP JUMPDEST PUSH2 0x1E37 PUSH32 0x4910FDFA16FED3260ED0E7147F7CC6DA11A60208B5B9406D12A635614FFD9143 PUSH1 0x0 SHL PUSH2 0x27B0 JUMP JUMPDEST PUSH1 0x0 ADD PUSH1 0x0 SWAP1 SLOAD SWAP1 PUSH2 0x100 EXP SWAP1 DIV PUSH1 0xFF AND ISZERO PUSH2 0x1E5B JUMPI PUSH2 0x1E56 DUP4 PUSH2 0x27BA JUMP JUMPDEST PUSH2 0x1F83 JUMP JUMPDEST DUP3 PUSH20 0xFFFFFFFFFFFFFFFFFFFFFFFFFFFFFFFFFFFFFFFF AND PUSH4 0x52D1902D PUSH1 0x40 MLOAD DUP2 PUSH4 0xFFFFFFFF AND PUSH1 0xE0 SHL DUP2 MSTORE PUSH1 0x4 ADD PUSH1 0x20 PUSH1 0x40 MLOAD DUP1 DUP4 SUB DUP2 DUP7 DUP1 EXTCODESIZE ISZERO DUP1 ISZERO PUSH2 0x1EA1 JUMPI PUSH1 0x0 DUP1 REVERT JUMPDEST POP GAS STATICCALL SWAP3 POP POP POP DUP1 ISZERO PUSH2 0x1ED2 JUMPI POP PUSH1 0x40 MLOAD RETURNDATASIZE PUSH1 0x1F NOT PUSH1 0x1F DUP3 ADD AND DUP3 ADD DUP1 PUSH1 0x40 MSTORE POP DUP2 ADD SWAP1 PUSH2 0x1ECF SWAP2 SWAP1 PUSH2 0x4CF6 JUMP JUMPDEST PUSH1 0x1 JUMPDEST PUSH2 0x1F11 JUMPI PUSH1 0x40 MLOAD PUSH32 0x8C379A000000000000000000000000000000000000000000000000000000000 DUP2 MSTORE PUSH1 0x4 ADD PUSH2 0x1F08 SWAP1 PUSH2 0x4D95 JUMP JUMPDEST PUSH1 0x40 MLOAD DUP1 SWAP2 SUB SWAP1 REVERT JUMPDEST PUSH32 0x360894A13BA1A3210667C828492DB98DCA3E2076CC3735A920A3CA505D382BBC PUSH1 0x0 SHL DUP2 EQ PUSH2 0x1F76 JUMPI PUSH1 0x40 MLOAD PUSH32 0x8C379A000000000000000000000000000000000000000000000000000000000 DUP2 MSTORE PUSH1 0x4 ADD PUSH2 0x1F6D SWAP1 PUSH2 0x4E27 JUMP JUMPDEST PUSH1 0x40 MLOAD DUP1 SWAP2 SUB SWAP1 REVERT JUMPDEST POP PUSH2 0x1F82 DUP4 DUP4 DUP4 PUSH2 0x2873 JUMP JUMPDEST JUMPDEST POP POP POP JUMP JUMPDEST PUSH1 0x0 DUP1 DUP4 DUP1 SLOAD SWAP1 POP SWAP1 POP PUSH1 0x0 JUMPDEST DUP2 DUP2 LT ISZERO PUSH2 0x2007 JUMPI PUSH1 0x0 PUSH2 0x1FA9 DUP3 DUP5 PUSH2 0x289F JUMP JUMPDEST SWAP1 POP DUP5 DUP7 DUP3 DUP2 SLOAD DUP2 LT PUSH2 0x1FBF JUMPI PUSH2 0x1FBE PUSH2 0x45F2 JUMP JUMPDEST JUMPDEST SWAP1 PUSH1 0x0 MSTORE PUSH1 0x20 PUSH1 0x0 KECCAK256 ADD PUSH1 0x0 ADD PUSH1 0x0 SWAP1 SLOAD SWAP1 PUSH2 0x100 EXP SWAP1 DIV PUSH4 0xFFFFFFFF AND PUSH4 0xFFFFFFFF AND GT ISZERO PUSH2 0x1FF1 JUMPI DUP1 SWAP3 POP PUSH2 0x2001 JUMP JUMPDEST PUSH1 0x1 DUP2 PUSH2 0x1FFE SWAP2 SWAP1 PUSH2 0x41A0 JUMP JUMPDEST SWAP2 POP JUMPDEST POP PUSH2 0x1F95 JUMP JUMPDEST PUSH1 0x0 DUP3 EQ PUSH2 0x2069 JUMPI DUP5 PUSH1 0x1 DUP4 PUSH2 0x201D SWAP2 SWAP1 PUSH2 0x45BE JUMP JUMPDEST DUP2 SLOAD DUP2 LT PUSH2 0x202E JUMPI PUSH2 0x202D PUSH2 0x45F2 JUMP JUMPDEST JUMPDEST SWAP1 PUSH1 0x0 MSTORE PUSH1 0x20 PUSH1 0x0 KECCAK256 ADD PUSH1 0x0 ADD PUSH1 0x4 SWAP1 SLOAD SWAP1 PUSH2 0x100 EXP SWAP1 DIV PUSH28 0xFFFFFFFFFFFFFFFFFFFFFFFFFFFFFFFFFFFFFFFFFFFFFFFFFFFFFFFF AND PUSH2 0x206C JUMP JUMPDEST PUSH1 0x0 JUMPDEST PUSH28 0xFFFFFFFFFFFFFFFFFFFFFFFFFFFFFFFFFFFFFFFFFFFFFFFFFFFFFFFF AND SWAP3 POP POP POP SWAP3 SWAP2 POP POP JUMP JUMPDEST PUSH2 0x209C PUSH2 0x1886 JUMP JUMPDEST PUSH20 0xFFFFFFFFFFFFFFFFFFFFFFFFFFFFFFFFFFFFFFFF AND PUSH2 0x20BA PUSH2 0x1164 JUMP JUMPDEST PUSH20 0xFFFFFFFFFFFFFFFFFFFFFFFFFFFFFFFFFFFFFFFF AND EQ PUSH2 0x2110 JUMPI PUSH1 0x40 MLOAD PUSH32 0x8C379A000000000000000000000000000000000000000000000000000000000 DUP2 MSTORE PUSH1 0x4 ADD PUSH2 0x2107 SWAP1 PUSH2 0x4E93 JUMP JUMPDEST PUSH1 0x40 MLOAD DUP1 SWAP2 SUB SWAP1 REVERT JUMPDEST JUMP JUMPDEST PUSH2 0x211A PUSH2 0x28C5 JUMP JUMPDEST PUSH1 0x0 PUSH1 0x65 PUSH1 0x0 PUSH2 0x100 EXP DUP2 SLOAD DUP2 PUSH1 0xFF MUL NOT AND SWAP1 DUP4 ISZERO ISZERO MUL OR SWAP1 SSTORE POP PUSH32 0x5DB9EE0A495BF2E6FF9C91A7834C1BA4FDD244A5E8AA4E537BD38AEAE4B073AA PUSH2 0x215E PUSH2 0x1886 JUMP JUMPDEST PUSH1 0x40 MLOAD PUSH2 0x216B SWAP2 SWAP1 PUSH2 0x3CA7 JUMP JUMPDEST PUSH1 0x40 MLOAD DUP1 SWAP2 SUB SWAP1 LOG1 JUMP JUMPDEST PUSH2 0x217F DUP3 DUP3 PUSH2 0x290E JUMP JUMPDEST POP POP JUMP JUMPDEST PUSH1 0x0 PUSH2 0x218E DUP4 PUSH2 0xD88 JUMP JUMPDEST SWAP1 POP PUSH1 0x0 PUSH2 0x219B DUP5 PUSH2 0xE72 JUMP JUMPDEST SWAP1 POP DUP3 PUSH2 0x130 PUSH1 0x0 DUP7 PUSH20 0xFFFFFFFFFFFFFFFFFFFFFFFFFFFFFFFFFFFFFFFF AND PUSH20 0xFFFFFFFFFFFFFFFFFFFFFFFFFFFFFFFFFFFFFFFF AND DUP2 MSTORE PUSH1 0x20 ADD SWAP1 DUP2 MSTORE PUSH1 0x20 ADD PUSH1 0x0 KECCAK256 PUSH1 0x0 PUSH2 0x100 EXP DUP2 SLOAD DUP2 PUSH20 0xFFFFFFFFFFFFFFFFFFFFFFFFFFFFFFFFFFFFFFFF MUL NOT AND SWAP1 DUP4 PUSH20 0xFFFFFFFFFFFFFFFFFFFFFFFFFFFFFFFFFFFFFFFF AND MUL OR SWAP1 SSTORE POP DUP3 PUSH20 0xFFFFFFFFFFFFFFFFFFFFFFFFFFFFFFFFFFFFFFFF AND DUP3 PUSH20 0xFFFFFFFFFFFFFFFFFFFFFFFFFFFFFFFFFFFFFFFF AND DUP6 PUSH20 0xFFFFFFFFFFFFFFFFFFFFFFFFFFFFFFFFFFFFFFFF AND PUSH32 0x3134E8A2E6D97E929A7E54011EA5485D7D196DD5F0BA4D4EF95803E8E3FC257F PUSH1 0x40 MLOAD PUSH1 0x40 MLOAD DUP1 SWAP2 SUB SWAP1 LOG4 PUSH2 0x2298 DUP3 DUP5 DUP4 PUSH2 0x299C JUMP JUMPDEST POP POP POP POP JUMP JUMPDEST PUSH1 0x0 PUSH4 0xFFFFFFFF DUP1 AND DUP3 GT ISZERO PUSH2 0x22E9 JUMPI PUSH1 0x40 MLOAD PUSH32 0x8C379A000000000000000000000000000000000000000000000000000000000 DUP2 MSTORE PUSH1 0x4 ADD PUSH2 0x22E0 SWAP1 PUSH2 0x4F25 JUMP JUMPDEST PUSH1 0x40 MLOAD DUP1 SWAP2 SUB SWAP1 REVERT JUMPDEST DUP2 SWAP1 POP SWAP2 SWAP1 POP JUMP JUMPDEST PUSH1 0x0 PUSH1 0x97 PUSH1 0x0 SWAP1 SLOAD SWAP1 PUSH2 0x100 EXP SWAP1 DIV PUSH20 0xFFFFFFFFFFFFFFFFFFFFFFFFFFFFFFFFFFFFFFFF AND SWAP1 POP DUP2 PUSH1 0x97 PUSH1 0x0 PUSH2 0x100 EXP DUP2 SLOAD DUP2 PUSH20 0xFFFFFFFFFFFFFFFFFFFFFFFFFFFFFFFFFFFFFFFF MUL NOT AND SWAP1 DUP4 PUSH20 0xFFFFFFFFFFFFFFFFFFFFFFFFFFFFFFFFFFFFFFFF AND MUL OR SWAP1 SSTORE POP DUP2 PUSH20 0xFFFFFFFFFFFFFFFFFFFFFFFFFFFFFFFFFFFFFFFF AND DUP2 PUSH20 0xFFFFFFFFFFFFFFFFFFFFFFFFFFFFFFFFFFFFFFFF AND PUSH32 0x8BE0079C531659141344CD1FD0A4F28419497F9722A3DAAFE3B4186F6B6457E0 PUSH1 0x40 MLOAD PUSH1 0x40 MLOAD DUP1 SWAP2 SUB SWAP1 LOG3 POP POP JUMP JUMPDEST PUSH1 0x0 DUP2 PUSH1 0x0 ADD SLOAD SWAP1 POP SWAP2 SWAP1 POP JUMP JUMPDEST PUSH1 0x0 DUP1 DUP3 PUSH20 0xFFFFFFFFFFFFFFFFFFFFFFFFFFFFFFFFFFFFFFFF AND EXTCODESIZE GT SWAP1 POP SWAP2 SWAP1 POP JUMP JUMPDEST PUSH1 0x0 PUSH1 0x1 SWAP1 SLOAD SWAP1 PUSH2 0x100 EXP SWAP1 DIV PUSH1 0xFF AND PUSH2 0x2437 JUMPI PUSH1 0x40 MLOAD PUSH32 0x8C379A000000000000000000000000000000000000000000000000000000000 DUP2 MSTORE PUSH1 0x4 ADD PUSH2 0x242E SWAP1 PUSH2 0x4FB7 JUMP JUMPDEST PUSH1 0x40 MLOAD DUP1 SWAP2 SUB SWAP1 REVERT JUMPDEST PUSH2 0x2441 DUP3 DUP3 PUSH2 0x2B97 JUMP JUMPDEST POP POP JUMP JUMPDEST PUSH1 0x0 PUSH1 0x1 SWAP1 SLOAD SWAP1 PUSH2 0x100 EXP SWAP1 DIV PUSH1 0xFF AND PUSH2 0x2494 JUMPI PUSH1 0x40 MLOAD PUSH32 0x8C379A000000000000000000000000000000000000000000000000000000000 DUP2 MSTORE PUSH1 0x4 ADD PUSH2 0x248B SWAP1 PUSH2 0x4FB7 JUMP JUMPDEST PUSH1 0x40 MLOAD DUP1 SWAP2 SUB SWAP1 REVERT JUMPDEST PUSH2 0x249C PUSH2 0x2C18 JUMP JUMPDEST JUMP JUMPDEST PUSH1 0x0 PUSH1 0x1 SWAP1 SLOAD SWAP1 PUSH2 0x100 EXP SWAP1 DIV PUSH1 0xFF AND PUSH2 0x24ED JUMPI PUSH1 0x40 MLOAD PUSH32 0x8C379A000000000000000000000000000000000000000000000000000000000 DUP2 MSTORE PUSH1 0x4 ADD PUSH2 0x24E4 SWAP1 PUSH2 0x4FB7 JUMP JUMPDEST PUSH1 0x40 MLOAD DUP1 SWAP2 SUB SWAP1 REVERT JUMPDEST PUSH2 0x24F5 PUSH2 0x2C84 JUMP JUMPDEST JUMP JUMPDEST PUSH1 0x0 PUSH1 0x1 SWAP1 SLOAD SWAP1 PUSH2 0x100 EXP SWAP1 DIV PUSH1 0xFF AND PUSH2 0x2546 JUMPI PUSH1 0x40 MLOAD PUSH32 0x8C379A000000000000000000000000000000000000000000000000000000000 DUP2 MSTORE PUSH1 0x4 ADD PUSH2 0x253D SWAP1 PUSH2 0x4FB7 JUMP JUMPDEST PUSH1 0x40 MLOAD DUP1 SWAP2 SUB SWAP1 REVERT JUMPDEST PUSH2 0x2585 DUP2 PUSH1 0x40 MLOAD DUP1 PUSH1 0x40 ADD PUSH1 0x40 MSTORE DUP1 PUSH1 0x1 DUP2 MSTORE PUSH1 0x20 ADD PUSH32 0x3100000000000000000000000000000000000000000000000000000000000000 DUP2 MSTORE POP PUSH2 0x2CE5 JUMP JUMPDEST POP JUMP JUMPDEST PUSH1 0x0 PUSH1 0x1 SWAP1 SLOAD SWAP1 PUSH2 0x100 EXP SWAP1 DIV PUSH1 0xFF AND PUSH2 0x25D7 JUMPI PUSH1 0x40 MLOAD PUSH32 0x8C379A000000000000000000000000000000000000000000000000000000000 DUP2 MSTORE PUSH1 0x4 ADD PUSH2 0x25CE SWAP1 PUSH2 0x4FB7 JUMP JUMPDEST PUSH1 0x40 MLOAD DUP1 SWAP2 SUB SWAP1 REVERT JUMPDEST JUMP JUMPDEST PUSH1 0x0 PUSH1 0x1 SWAP1 SLOAD SWAP1 PUSH2 0x100 EXP SWAP1 DIV PUSH1 0xFF AND PUSH2 0x2628 JUMPI PUSH1 0x40 MLOAD PUSH32 0x8C379A000000000000000000000000000000000000000000000000000000000 DUP2 MSTORE PUSH1 0x4 ADD PUSH2 0x261F SWAP1 PUSH2 0x4FB7 JUMP JUMPDEST PUSH1 0x40 MLOAD DUP1 SWAP2 SUB SWAP1 REVERT JUMPDEST JUMP JUMPDEST PUSH2 0x2632 PUSH2 0x2D60 JUMP JUMPDEST PUSH1 0x1 PUSH1 0x65 PUSH1 0x0 PUSH2 0x100 EXP DUP2 SLOAD DUP2 PUSH1 0xFF MUL NOT AND SWAP1 DUP4 ISZERO ISZERO MUL OR SWAP1 SSTORE POP PUSH32 0x62E78CEA01BEE320CD4E420270B5EA74000D11B0C9F74754EBDBFC544B05A258 PUSH2 0x2676 PUSH2 0x1886 JUMP JUMPDEST PUSH1 0x40 MLOAD PUSH2 0x2683 SWAP2 SWAP1 PUSH2 0x3CA7 JUMP JUMPDEST PUSH1 0x40 MLOAD DUP1 SWAP2 SUB SWAP1 LOG1 JUMP JUMPDEST PUSH1 0x0 PUSH2 0x26A0 PUSH2 0x269A PUSH2 0x1D69 JUMP JUMPDEST DUP4 PUSH2 0x2DAA JUMP JUMPDEST SWAP1 POP SWAP2 SWAP1 POP JUMP JUMPDEST PUSH1 0x0 DUP1 PUSH1 0x0 PUSH2 0x26B8 DUP8 DUP8 DUP8 DUP8 PUSH2 0x2DDD JUMP JUMPDEST SWAP2 POP SWAP2 POP PUSH2 0x26C5 DUP2 PUSH2 0x2EEA JUMP JUMPDEST DUP2 SWAP3 POP POP POP SWAP5 SWAP4 POP POP POP POP JUMP JUMPDEST PUSH1 0x0 DUP1 PUSH1 0xFD PUSH1 0x0 DUP5 PUSH20 0xFFFFFFFFFFFFFFFFFFFFFFFFFFFFFFFFFFFFFFFF AND PUSH20 0xFFFFFFFFFFFFFFFFFFFFFFFFFFFFFFFFFFFFFFFF AND DUP2 MSTORE PUSH1 0x20 ADD SWAP1 DUP2 MSTORE PUSH1 0x20 ADD PUSH1 0x0 KECCAK256 SWAP1 POP PUSH2 0x271F DUP2 PUSH2 0x23B7 JUMP JUMPDEST SWAP2 POP PUSH2 0x272A DUP2 PUSH2 0x30BF JUMP JUMPDEST POP SWAP2 SWAP1 POP JUMP JUMPDEST PUSH2 0x2738 PUSH2 0x2D60 JUMP JUMPDEST PUSH2 0x2743 DUP4 DUP4 DUP4 PUSH2 0x30D5 JUMP JUMPDEST POP POP POP JUMP JUMPDEST PUSH2 0x2753 DUP4 DUP4 DUP4 PUSH2 0x30DA JUMP JUMPDEST POP POP POP JUMP JUMPDEST PUSH1 0x0 PUSH1 0xC9 SLOAD SWAP1 POP SWAP1 JUMP JUMPDEST PUSH1 0x0 PUSH1 0xCA SLOAD SWAP1 POP SWAP1 JUMP JUMPDEST PUSH1 0x0 DUP4 DUP4 DUP4 CHAINID ADDRESS PUSH1 0x40 MLOAD PUSH1 0x20 ADD PUSH2 0x2787 SWAP6 SWAP5 SWAP4 SWAP3 SWAP2 SWAP1 PUSH2 0x4FD7 JUMP JUMPDEST PUSH1 0x40 MLOAD PUSH1 0x20 DUP2 DUP4 SUB SUB DUP2 MSTORE SWAP1 PUSH1 0x40 MSTORE DUP1 MLOAD SWAP1 PUSH1 0x20 ADD KECCAK256 SWAP1 POP SWAP4 SWAP3 POP POP POP JUMP JUMPDEST PUSH1 0x0 DUP2 SWAP1 POP SWAP2 SWAP1 POP JUMP JUMPDEST PUSH1 0x0 DUP2 SWAP1 POP SWAP2 SWAP1 POP JUMP JUMPDEST PUSH2 0x27C3 DUP2 PUSH2 0x23C5 JUMP JUMPDEST PUSH2 0x2802 JUMPI PUSH1 0x40 MLOAD PUSH32 0x8C379A000000000000000000000000000000000000000000000000000000000 DUP2 MSTORE PUSH1 0x4 ADD PUSH2 0x27F9 SWAP1 PUSH2 0x509C JUMP JUMPDEST PUSH1 0x40 MLOAD DUP1 SWAP2 SUB SWAP1 REVERT JUMPDEST DUP1 PUSH2 0x282F PUSH32 0x360894A13BA1A3210667C828492DB98DCA3E2076CC3735A920A3CA505D382BBC PUSH1 0x0 SHL PUSH2 0x27A6 JUMP JUMPDEST PUSH1 0x0 ADD PUSH1 0x0 PUSH2 0x100 EXP DUP2 SLOAD DUP2 PUSH20 0xFFFFFFFFFFFFFFFFFFFFFFFFFFFFFFFFFFFFFFFF MUL NOT AND SWAP1 DUP4 PUSH20 0xFFFFFFFFFFFFFFFFFFFFFFFFFFFFFFFFFFFFFFFF AND MUL OR SWAP1 SSTORE POP POP JUMP JUMPDEST PUSH2 0x287C DUP4 PUSH2 0x3105 JUMP JUMPDEST PUSH1 0x0 DUP3 MLOAD GT DUP1 PUSH2 0x2889 JUMPI POP DUP1 JUMPDEST ISZERO PUSH2 0x289A JUMPI PUSH2 0x2898 DUP4 DUP4 PUSH2 0x3154 JUMP JUMPDEST POP JUMPDEST POP POP POP JUMP JUMPDEST PUSH1 0x0 PUSH1 0x2 DUP3 DUP5 XOR PUSH2 0x28B0 SWAP2 SWAP1 PUSH2 0x50EB JUMP JUMPDEST DUP3 DUP5 AND PUSH2 0x28BD SWAP2 SWAP1 PUSH2 0x41A0 JUMP JUMPDEST SWAP1 POP SWAP3 SWAP2 POP POP JUMP JUMPDEST PUSH2 0x28CD PUSH2 0xE06 JUMP JUMPDEST PUSH2 0x290C JUMPI PUSH1 0x40 MLOAD PUSH32 0x8C379A000000000000000000000000000000000000000000000000000000000 DUP2 MSTORE PUSH1 0x4 ADD PUSH2 0x2903 SWAP1 PUSH2 0x5168 JUMP JUMPDEST PUSH1 0x40 MLOAD DUP1 SWAP2 SUB SWAP1 REVERT JUMPDEST JUMP JUMPDEST PUSH2 0x2918 DUP3 DUP3 PUSH2 0x3238 JUMP JUMPDEST PUSH2 0x2920 PUSH2 0x3399 JUMP JUMPDEST PUSH28 0xFFFFFFFFFFFFFFFFFFFFFFFFFFFFFFFFFFFFFFFFFFFFFFFFFFFFFFFF AND PUSH2 0x2946 PUSH2 0x8C4 JUMP JUMPDEST GT ISZERO PUSH2 0x2987 JUMPI PUSH1 0x40 MLOAD PUSH32 0x8C379A000000000000000000000000000000000000000000000000000000000 DUP2 MSTORE PUSH1 0x4 ADD PUSH2 0x297E SWAP1 PUSH2 0x51FA JUMP JUMPDEST PUSH1 0x40 MLOAD DUP1 SWAP2 SUB SWAP1 REVERT JUMPDEST PUSH2 0x2996 PUSH2 0x132 PUSH2 0x33BD DUP4 PUSH2 0x33D3 JUMP JUMPDEST POP POP POP POP JUMP JUMPDEST DUP2 PUSH20 0xFFFFFFFFFFFFFFFFFFFFFFFFFFFFFFFFFFFFFFFF AND DUP4 PUSH20 0xFFFFFFFFFFFFFFFFFFFFFFFFFFFFFFFFFFFFFFFF AND EQ ISZERO DUP1 ISZERO PUSH2 0x29D8 JUMPI POP PUSH1 0x0 DUP2 GT JUMPDEST ISZERO PUSH2 0x2B92 JUMPI PUSH1 0x0 PUSH20 0xFFFFFFFFFFFFFFFFFFFFFFFFFFFFFFFFFFFFFFFF AND DUP4 PUSH20 0xFFFFFFFFFFFFFFFFFFFFFFFFFFFFFFFFFFFFFFFF AND EQ PUSH2 0x2AB7 JUMPI PUSH1 0x0 DUP1 PUSH2 0x2A60 PUSH2 0x131 PUSH1 0x0 DUP8 PUSH20 0xFFFFFFFFFFFFFFFFFFFFFFFFFFFFFFFFFFFFFFFF AND PUSH20 0xFFFFFFFFFFFFFFFFFFFFFFFFFFFFFFFFFFFFFFFF AND DUP2 MSTORE PUSH1 0x20 ADD SWAP1 DUP2 MSTORE PUSH1 0x20 ADD PUSH1 0x0 KECCAK256 PUSH2 0x364B DUP6 PUSH2 0x33D3 JUMP JUMPDEST SWAP2 POP SWAP2 POP DUP5 PUSH20 0xFFFFFFFFFFFFFFFFFFFFFFFFFFFFFFFFFFFFFFFF AND PUSH32 0xDEC2BACDD2F05B59DE34DA9B523DFF8BE42E5E38E818C82FDB0BAE774387A724 DUP4 DUP4 PUSH1 0x40 MLOAD PUSH2 0x2AAC SWAP3 SWAP2 SWAP1 PUSH2 0x521A JUMP JUMPDEST PUSH1 0x40 MLOAD DUP1 SWAP2 SUB SWAP1 LOG2 POP POP JUMPDEST PUSH1 0x0 PUSH20 0xFFFFFFFFFFFFFFFFFFFFFFFFFFFFFFFFFFFFFFFF AND DUP3 PUSH20 0xFFFFFFFFFFFFFFFFFFFFFFFFFFFFFFFFFFFFFFFF AND EQ PUSH2 0x2B91 JUMPI PUSH1 0x0 DUP1 PUSH2 0x2B3A PUSH2 0x131 PUSH1 0x0 DUP7 PUSH20 0xFFFFFFFFFFFFFFFFFFFFFFFFFFFFFFFFFFFFFFFF AND PUSH20 0xFFFFFFFFFFFFFFFFFFFFFFFFFFFFFFFFFFFFFFFF AND DUP2 MSTORE PUSH1 0x20 ADD SWAP1 DUP2 MSTORE PUSH1 0x20 ADD PUSH1 0x0 KECCAK256 PUSH2 0x33BD DUP6 PUSH2 0x33D3 JUMP JUMPDEST SWAP2 POP SWAP2 POP DUP4 PUSH20 0xFFFFFFFFFFFFFFFFFFFFFFFFFFFFFFFFFFFFFFFF AND PUSH32 0xDEC2BACDD2F05B59DE34DA9B523DFF8BE42E5E38E818C82FDB0BAE774387A724 DUP4 DUP4 PUSH1 0x40 MLOAD PUSH2 0x2B86 SWAP3 SWAP2 SWAP1 PUSH2 0x521A JUMP JUMPDEST PUSH1 0x40 MLOAD DUP1 SWAP2 SUB SWAP1 LOG2 POP POP JUMPDEST JUMPDEST POP POP POP JUMP JUMPDEST PUSH1 0x0 PUSH1 0x1 SWAP1 SLOAD SWAP1 PUSH2 0x100 EXP SWAP1 DIV PUSH1 0xFF AND PUSH2 0x2BE6 JUMPI PUSH1 0x40 MLOAD PUSH32 0x8C379A000000000000000000000000000000000000000000000000000000000 DUP2 MSTORE PUSH1 0x4 ADD PUSH2 0x2BDD SWAP1 PUSH2 0x4FB7 JUMP JUMPDEST PUSH1 0x40 MLOAD DUP1 SWAP2 SUB SWAP1 REVERT JUMPDEST DUP2 PUSH1 0x36 SWAP1 DUP1 MLOAD SWAP1 PUSH1 0x20 ADD SWAP1 PUSH2 0x2BFC SWAP3 SWAP2 SWAP1 PUSH2 0x3776 JUMP JUMPDEST POP DUP1 PUSH1 0x37 SWAP1 DUP1 MLOAD SWAP1 PUSH1 0x20 ADD SWAP1 PUSH2 0x2C13 SWAP3 SWAP2 SWAP1 PUSH2 0x3776 JUMP JUMPDEST POP POP POP JUMP JUMPDEST PUSH1 0x0 PUSH1 0x1 SWAP1 SLOAD SWAP1 PUSH2 0x100 EXP SWAP1 DIV PUSH1 0xFF AND PUSH2 0x2C67 JUMPI PUSH1 0x40 MLOAD PUSH32 0x8C379A000000000000000000000000000000000000000000000000000000000 DUP2 MSTORE PUSH1 0x4 ADD PUSH2 0x2C5E SWAP1 PUSH2 0x4FB7 JUMP JUMPDEST PUSH1 0x40 MLOAD DUP1 SWAP2 SUB SWAP1 REVERT JUMPDEST PUSH1 0x0 PUSH1 0x65 PUSH1 0x0 PUSH2 0x100 EXP DUP2 SLOAD DUP2 PUSH1 0xFF MUL NOT AND SWAP1 DUP4 ISZERO ISZERO MUL OR SWAP1 SSTORE POP JUMP JUMPDEST PUSH1 0x0 PUSH1 0x1 SWAP1 SLOAD SWAP1 PUSH2 0x100 EXP SWAP1 DIV PUSH1 0xFF AND PUSH2 0x2CD3 JUMPI PUSH1 0x40 MLOAD PUSH32 0x8C379A000000000000000000000000000000000000000000000000000000000 DUP2 MSTORE PUSH1 0x4 ADD PUSH2 0x2CCA SWAP1 PUSH2 0x4FB7 JUMP JUMPDEST PUSH1 0x40 MLOAD DUP1 SWAP2 SUB SWAP1 REVERT JUMPDEST PUSH2 0x2CE3 PUSH2 0x2CDE PUSH2 0x1886 JUMP JUMPDEST PUSH2 0x22F1 JUMP JUMPDEST JUMP JUMPDEST PUSH1 0x0 PUSH1 0x1 SWAP1 SLOAD SWAP1 PUSH2 0x100 EXP SWAP1 DIV PUSH1 0xFF AND PUSH2 0x2D34 JUMPI PUSH1 0x40 MLOAD PUSH32 0x8C379A000000000000000000000000000000000000000000000000000000000 DUP2 MSTORE PUSH1 0x4 ADD PUSH2 0x2D2B SWAP1 PUSH2 0x4FB7 JUMP JUMPDEST PUSH1 0x40 MLOAD DUP1 SWAP2 SUB SWAP1 REVERT JUMPDEST PUSH1 0x0 DUP3 DUP1 MLOAD SWAP1 PUSH1 0x20 ADD KECCAK256 SWAP1 POP PUSH1 0x0 DUP3 DUP1 MLOAD SWAP1 PUSH1 0x20 ADD KECCAK256 SWAP1 POP DUP2 PUSH1 0xC9 DUP2 SWAP1 SSTORE POP DUP1 PUSH1 0xCA DUP2 SWAP1 SSTORE POP POP POP POP POP JUMP JUMPDEST PUSH2 0x2D68 PUSH2 0xE06 JUMP JUMPDEST ISZERO PUSH2 0x2DA8 JUMPI PUSH1 0x40 MLOAD PUSH32 0x8C379A000000000000000000000000000000000000000000000000000000000 DUP2 MSTORE PUSH1 0x4 ADD PUSH2 0x2D9F SWAP1 PUSH2 0x528F JUMP JUMPDEST PUSH1 0x40 MLOAD DUP1 SWAP2 SUB SWAP1 REVERT JUMPDEST JUMP JUMPDEST PUSH1 0x0 DUP3 DUP3 PUSH1 0x40 MLOAD PUSH1 0x20 ADD PUSH2 0x2DBF SWAP3 SWAP2 SWAP1 PUSH2 0x5327 JUMP JUMPDEST PUSH1 0x40 MLOAD PUSH1 0x20 DUP2 DUP4 SUB SUB DUP2 MSTORE SWAP1 PUSH1 0x40 MSTORE DUP1 MLOAD SWAP1 PUSH1 0x20 ADD KECCAK256 SWAP1 POP SWAP3 SWAP2 POP POP JUMP JUMPDEST PUSH1 0x0 DUP1 PUSH32 0x7FFFFFFFFFFFFFFFFFFFFFFFFFFFFFFF5D576E7357A4501DDFE92F46681B20A0 DUP4 PUSH1 0x0 SHR GT ISZERO PUSH2 0x2E18 JUMPI PUSH1 0x0 PUSH1 0x3 SWAP2 POP SWAP2 POP PUSH2 0x2EE1 JUMP JUMPDEST PUSH1 0x1B DUP6 PUSH1 0xFF AND EQ ISZERO DUP1 ISZERO PUSH2 0x2E30 JUMPI POP PUSH1 0x1C DUP6 PUSH1 0xFF AND EQ ISZERO JUMPDEST ISZERO PUSH2 0x2E42 JUMPI PUSH1 0x0 PUSH1 0x4 SWAP2 POP SWAP2 POP PUSH2 0x2EE1 JUMP JUMPDEST PUSH1 0x0 PUSH1 0x1 DUP8 DUP8 DUP8 DUP8 PUSH1 0x40 MLOAD PUSH1 0x0 DUP2 MSTORE PUSH1 0x20 ADD PUSH1 0x40 MSTORE PUSH1 0x40 MLOAD PUSH2 0x2E67 SWAP5 SWAP4 SWAP3 SWAP2 SWAP1 PUSH2 0x535E JUMP JUMPDEST PUSH1 0x20 PUSH1 0x40 MLOAD PUSH1 0x20 DUP2 SUB SWAP1 DUP1 DUP5 SUB SWAP1 DUP6 GAS STATICCALL ISZERO DUP1 ISZERO PUSH2 0x2E89 JUMPI RETURNDATASIZE PUSH1 0x0 DUP1 RETURNDATACOPY RETURNDATASIZE PUSH1 0x0 REVERT JUMPDEST POP POP POP PUSH1 0x20 PUSH1 0x40 MLOAD SUB MLOAD SWAP1 POP PUSH1 0x0 PUSH20 0xFFFFFFFFFFFFFFFFFFFFFFFFFFFFFFFFFFFFFFFF AND DUP2 PUSH20 0xFFFFFFFFFFFFFFFFFFFFFFFFFFFFFFFFFFFFFFFF AND EQ ISZERO PUSH2 0x2ED8 JUMPI PUSH1 0x0 PUSH1 0x1 SWAP3 POP SWAP3 POP POP PUSH2 0x2EE1 JUMP JUMPDEST DUP1 PUSH1 0x0 SWAP3 POP SWAP3 POP POP JUMPDEST SWAP5 POP SWAP5 SWAP3 POP POP POP JUMP JUMPDEST PUSH1 0x0 PUSH1 0x4 DUP2 GT ISZERO PUSH2 0x2EFE JUMPI PUSH2 0x2EFD PUSH2 0x53A3 JUMP JUMPDEST JUMPDEST DUP2 PUSH1 0x4 DUP2 GT ISZERO PUSH2 0x2F11 JUMPI PUSH2 0x2F10 PUSH2 0x53A3 JUMP JUMPDEST JUMPDEST EQ ISZERO PUSH2 0x2F1C JUMPI PUSH2 0x30BC JUMP JUMPDEST PUSH1 0x1 PUSH1 0x4 DUP2 GT ISZERO PUSH2 0x2F30 JUMPI PUSH2 0x2F2F PUSH2 0x53A3 JUMP JUMPDEST JUMPDEST DUP2 PUSH1 0x4 DUP2 GT ISZERO PUSH2 0x2F43 JUMPI PUSH2 0x2F42 PUSH2 0x53A3 JUMP JUMPDEST JUMPDEST EQ ISZERO PUSH2 0x2F84 JUMPI PUSH1 0x40 MLOAD PUSH32 0x8C379A000000000000000000000000000000000000000000000000000000000 DUP2 MSTORE PUSH1 0x4 ADD PUSH2 0x2F7B SWAP1 PUSH2 0x541E JUMP JUMPDEST PUSH1 0x40 MLOAD DUP1 SWAP2 SUB SWAP1 REVERT JUMPDEST PUSH1 0x2 PUSH1 0x4 DUP2 GT ISZERO PUSH2 0x2F98 JUMPI PUSH2 0x2F97 PUSH2 0x53A3 JUMP JUMPDEST JUMPDEST DUP2 PUSH1 0x4 DUP2 GT ISZERO PUSH2 0x2FAB JUMPI PUSH2 0x2FAA PUSH2 0x53A3 JUMP JUMPDEST JUMPDEST EQ ISZERO PUSH2 0x2FEC JUMPI PUSH1 0x40 MLOAD PUSH32 0x8C379A000000000000000000000000000000000000000000000000000000000 DUP2 MSTORE PUSH1 0x4 ADD PUSH2 0x2FE3 SWAP1 PUSH2 0x548A JUMP JUMPDEST PUSH1 0x40 MLOAD DUP1 SWAP2 SUB SWAP1 REVERT JUMPDEST PUSH1 0x3 PUSH1 0x4 DUP2 GT ISZERO PUSH2 0x3000 JUMPI PUSH2 0x2FFF PUSH2 0x53A3 JUMP JUMPDEST JUMPDEST DUP2 PUSH1 0x4 DUP2 GT ISZERO PUSH2 0x3013 JUMPI PUSH2 0x3012 PUSH2 0x53A3 JUMP JUMPDEST JUMPDEST EQ ISZERO PUSH2 0x3054 JUMPI PUSH1 0x40 MLOAD PUSH32 0x8C379A000000000000000000000000000000000000000000000000000000000 DUP2 MSTORE PUSH1 0x4 ADD PUSH2 0x304B SWAP1 PUSH2 0x551C JUMP JUMPDEST PUSH1 0x40 MLOAD DUP1 SWAP2 SUB SWAP1 REVERT JUMPDEST PUSH1 0x4 DUP1 DUP2 GT ISZERO PUSH2 0x3067 JUMPI PUSH2 0x3066 PUSH2 0x53A3 JUMP JUMPDEST JUMPDEST DUP2 PUSH1 0x4 DUP2 GT ISZERO PUSH2 0x307A JUMPI PUSH2 0x3079 PUSH2 0x53A3 JUMP JUMPDEST JUMPDEST EQ ISZERO PUSH2 0x30BB JUMPI PUSH1 0x40 MLOAD PUSH32 0x8C379A000000000000000000000000000000000000000000000000000000000 DUP2 MSTORE PUSH1 0x4 ADD PUSH2 0x30B2 SWAP1 PUSH2 0x55AE JUMP JUMPDEST PUSH1 0x40 MLOAD DUP1 SWAP2 SUB SWAP1 REVERT JUMPDEST JUMPDEST POP JUMP JUMPDEST PUSH1 0x1 DUP2 PUSH1 0x0 ADD PUSH1 0x0 DUP3 DUP3 SLOAD ADD SWAP3 POP POP DUP2 SWAP1 SSTORE POP POP JUMP JUMPDEST POP POP POP JUMP JUMPDEST PUSH2 0x30E5 DUP4 DUP4 DUP4 PUSH2 0x3661 JUMP JUMPDEST PUSH2 0x3100 PUSH2 0x30F1 DUP5 PUSH2 0xD88 JUMP JUMPDEST PUSH2 0x30FA DUP5 PUSH2 0xD88 JUMP JUMPDEST DUP4 PUSH2 0x299C JUMP JUMPDEST POP POP POP JUMP JUMPDEST PUSH2 0x310E DUP2 PUSH2 0x27BA JUMP JUMPDEST DUP1 PUSH20 0xFFFFFFFFFFFFFFFFFFFFFFFFFFFFFFFFFFFFFFFF AND PUSH32 0xBC7CD75A20EE27FD9ADEBAB32041F755214DBC6BFFA90CC0225B39DA2E5C2D3B PUSH1 0x40 MLOAD PUSH1 0x40 MLOAD DUP1 SWAP2 SUB SWAP1 LOG2 POP JUMP JUMPDEST PUSH1 0x60 PUSH2 0x315F DUP4 PUSH2 0x23C5 JUMP JUMPDEST PUSH2 0x319E JUMPI PUSH1 0x40 MLOAD PUSH32 0x8C379A000000000000000000000000000000000000000000000000000000000 DUP2 MSTORE PUSH1 0x4 ADD PUSH2 0x3195 SWAP1 PUSH2 0x5640 JUMP JUMPDEST PUSH1 0x40 MLOAD DUP1 SWAP2 SUB SWAP1 REVERT JUMPDEST PUSH1 0x0 DUP1 DUP5 PUSH20 0xFFFFFFFFFFFFFFFFFFFFFFFFFFFFFFFFFFFFFFFF AND DUP5 PUSH1 0x40 MLOAD PUSH2 0x31C6 SWAP2 SWAP1 PUSH2 0x56A7 JUMP JUMPDEST PUSH1 0x0 PUSH1 0x40 MLOAD DUP1 DUP4 SUB DUP2 DUP6 GAS DELEGATECALL SWAP2 POP POP RETURNDATASIZE DUP1 PUSH1 0x0 DUP2 EQ PUSH2 0x3201 JUMPI PUSH1 0x40 MLOAD SWAP2 POP PUSH1 0x1F NOT PUSH1 0x3F RETURNDATASIZE ADD AND DUP3 ADD PUSH1 0x40 MSTORE RETURNDATASIZE DUP3 MSTORE RETURNDATASIZE PUSH1 0x0 PUSH1 0x20 DUP5 ADD RETURNDATACOPY PUSH2 0x3206 JUMP JUMPDEST PUSH1 0x60 SWAP2 POP JUMPDEST POP SWAP2 POP SWAP2 POP PUSH2 0x322E DUP3 DUP3 PUSH1 0x40 MLOAD DUP1 PUSH1 0x60 ADD PUSH1 0x40 MSTORE DUP1 PUSH1 0x27 DUP2 MSTORE PUSH1 0x20 ADD PUSH2 0x57BD PUSH1 0x27 SWAP2 CODECOPY PUSH2 0x3666 JUMP JUMPDEST SWAP3 POP POP POP SWAP3 SWAP2 POP POP JUMP JUMPDEST PUSH1 0x0 PUSH20 0xFFFFFFFFFFFFFFFFFFFFFFFFFFFFFFFFFFFFFFFF AND DUP3 PUSH20 0xFFFFFFFFFFFFFFFFFFFFFFFFFFFFFFFFFFFFFFFF AND EQ ISZERO PUSH2 0x32A8 JUMPI PUSH1 0x40 MLOAD PUSH32 0x8C379A000000000000000000000000000000000000000000000000000000000 DUP2 MSTORE PUSH1 0x4 ADD PUSH2 0x329F SWAP1 PUSH2 0x570A JUMP JUMPDEST PUSH1 0x40 MLOAD DUP1 SWAP2 SUB SWAP1 REVERT JUMPDEST PUSH2 0x32B4 PUSH1 0x0 DUP4 DUP4 PUSH2 0x2730 JUMP JUMPDEST DUP1 PUSH1 0x35 PUSH1 0x0 DUP3 DUP3 SLOAD PUSH2 0x32C6 SWAP2 SWAP1 PUSH2 0x41A0 JUMP JUMPDEST SWAP3 POP POP DUP2 SWAP1 SSTORE POP DUP1 PUSH1 0x33 PUSH1 0x0 DUP5 PUSH20 0xFFFFFFFFFFFFFFFFFFFFFFFFFFFFFFFFFFFFFFFF AND PUSH20 0xFFFFFFFFFFFFFFFFFFFFFFFFFFFFFFFFFFFFFFFF AND DUP2 MSTORE PUSH1 0x20 ADD SWAP1 DUP2 MSTORE PUSH1 0x20 ADD PUSH1 0x0 KECCAK256 PUSH1 0x0 DUP3 DUP3 SLOAD PUSH2 0x331C SWAP2 SWAP1 PUSH2 0x41A0 JUMP JUMPDEST SWAP3 POP POP DUP2 SWAP1 SSTORE POP DUP2 PUSH20 0xFFFFFFFFFFFFFFFFFFFFFFFFFFFFFFFFFFFFFFFF AND PUSH1 0x0 PUSH20 0xFFFFFFFFFFFFFFFFFFFFFFFFFFFFFFFFFFFFFFFF AND PUSH32 0xDDF252AD1BE2C89B69C2B068FC378DAA952BA7F163C4A11628F55A4DF523B3EF DUP4 PUSH1 0x40 MLOAD PUSH2 0x3381 SWAP2 SWAP1 PUSH2 0x3A01 JUMP JUMPDEST PUSH1 0x40 MLOAD DUP1 SWAP2 SUB SWAP1 LOG3 PUSH2 0x3395 PUSH1 0x0 DUP4 DUP4 PUSH2 0x2748 JUMP JUMPDEST POP POP JUMP JUMPDEST PUSH1 0x0 PUSH28 0xFFFFFFFFFFFFFFFFFFFFFFFFFFFFFFFFFFFFFFFFFFFFFFFFFFFFFFFF SWAP1 POP SWAP1 JUMP JUMPDEST PUSH1 0x0 DUP2 DUP4 PUSH2 0x33CB SWAP2 SWAP1 PUSH2 0x41A0 JUMP JUMPDEST SWAP1 POP SWAP3 SWAP2 POP POP JUMP JUMPDEST PUSH1 0x0 DUP1 PUSH1 0x0 DUP6 DUP1 SLOAD SWAP1 POP SWAP1 POP PUSH1 0x0 DUP2 EQ PUSH2 0x3441 JUMPI DUP6 PUSH1 0x1 DUP3 PUSH2 0x33F5 SWAP2 SWAP1 PUSH2 0x45BE JUMP JUMPDEST DUP2 SLOAD DUP2 LT PUSH2 0x3406 JUMPI PUSH2 0x3405 PUSH2 0x45F2 JUMP JUMPDEST JUMPDEST SWAP1 PUSH1 0x0 MSTORE PUSH1 0x20 PUSH1 0x0 KECCAK256 ADD PUSH1 0x0 ADD PUSH1 0x4 SWAP1 SLOAD SWAP1 PUSH2 0x100 EXP SWAP1 DIV PUSH28 0xFFFFFFFFFFFFFFFFFFFFFFFFFFFFFFFFFFFFFFFFFFFFFFFFFFFFFFFF AND PUSH2 0x3444 JUMP JUMPDEST PUSH1 0x0 JUMPDEST PUSH28 0xFFFFFFFFFFFFFFFFFFFFFFFFFFFFFFFFFFFFFFFFFFFFFFFFFFFFFFFF AND SWAP3 POP PUSH2 0x3472 DUP4 DUP6 DUP8 PUSH4 0xFFFFFFFF AND JUMP JUMPDEST SWAP2 POP PUSH1 0x0 DUP2 GT DUP1 ISZERO PUSH2 0x34C5 JUMPI POP NUMBER DUP7 PUSH1 0x1 DUP4 PUSH2 0x348E SWAP2 SWAP1 PUSH2 0x45BE JUMP JUMPDEST DUP2 SLOAD DUP2 LT PUSH2 0x349F JUMPI PUSH2 0x349E PUSH2 0x45F2 JUMP JUMPDEST JUMPDEST SWAP1 PUSH1 0x0 MSTORE PUSH1 0x20 PUSH1 0x0 KECCAK256 ADD PUSH1 0x0 ADD PUSH1 0x0 SWAP1 SLOAD SWAP1 PUSH2 0x100 EXP SWAP1 DIV PUSH4 0xFFFFFFFF AND PUSH4 0xFFFFFFFF AND EQ JUMPDEST ISZERO PUSH2 0x3552 JUMPI PUSH2 0x34D3 DUP3 PUSH2 0x36CD JUMP JUMPDEST DUP7 PUSH1 0x1 DUP4 PUSH2 0x34E1 SWAP2 SWAP1 PUSH2 0x45BE JUMP JUMPDEST DUP2 SLOAD DUP2 LT PUSH2 0x34F2 JUMPI PUSH2 0x34F1 PUSH2 0x45F2 JUMP JUMPDEST JUMPDEST SWAP1 PUSH1 0x0 MSTORE PUSH1 0x20 PUSH1 0x0 KECCAK256 ADD PUSH1 0x0 ADD PUSH1 0x4 PUSH2 0x100 EXP DUP2 SLOAD DUP2 PUSH28 0xFFFFFFFFFFFFFFFFFFFFFFFFFFFFFFFFFFFFFFFFFFFFFFFFFFFFFFFF MUL NOT AND SWAP1 DUP4 PUSH28 0xFFFFFFFFFFFFFFFFFFFFFFFFFFFFFFFFFFFFFFFFFFFFFFFFFFFFFFFF AND MUL OR SWAP1 SSTORE POP PUSH2 0x3642 JUMP JUMPDEST DUP6 PUSH1 0x40 MLOAD DUP1 PUSH1 0x40 ADD PUSH1 0x40 MSTORE DUP1 PUSH2 0x3567 NUMBER PUSH2 0x229E JUMP JUMPDEST PUSH4 0xFFFFFFFF AND DUP2 MSTORE PUSH1 0x20 ADD PUSH2 0x357B DUP6 PUSH2 0x36CD JUMP JUMPDEST PUSH28 0xFFFFFFFFFFFFFFFFFFFFFFFFFFFFFFFFFFFFFFFFFFFFFFFFFFFFFFFF AND DUP2 MSTORE POP SWAP1 DUP1 PUSH1 0x1 DUP2 SLOAD ADD DUP1 DUP3 SSTORE DUP1 SWAP2 POP POP PUSH1 0x1 SWAP1 SUB SWAP1 PUSH1 0x0 MSTORE PUSH1 0x20 PUSH1 0x0 KECCAK256 ADD PUSH1 0x0 SWAP1 SWAP2 SWAP1 SWAP2 SWAP1 SWAP2 POP PUSH1 0x0 DUP3 ADD MLOAD DUP2 PUSH1 0x0 ADD PUSH1 0x0 PUSH2 0x100 EXP DUP2 SLOAD DUP2 PUSH4 0xFFFFFFFF MUL NOT AND SWAP1 DUP4 PUSH4 0xFFFFFFFF AND MUL OR SWAP1 SSTORE POP PUSH1 0x20 DUP3 ADD MLOAD DUP2 PUSH1 0x0 ADD PUSH1 0x4 PUSH2 0x100 EXP DUP2 SLOAD DUP2 PUSH28 0xFFFFFFFFFFFFFFFFFFFFFFFFFFFFFFFFFFFFFFFFFFFFFFFFFFFFFFFF MUL NOT AND SWAP1 DUP4 PUSH28 0xFFFFFFFFFFFFFFFFFFFFFFFFFFFFFFFFFFFFFFFFFFFFFFFFFFFFFFFF AND MUL OR SWAP1 SSTORE POP POP POP JUMPDEST POP SWAP4 POP SWAP4 SWAP2 POP POP JUMP JUMPDEST PUSH1 0x0 DUP2 DUP4 PUSH2 0x3659 SWAP2 SWAP1 PUSH2 0x45BE JUMP JUMPDEST SWAP1 POP SWAP3 SWAP2 POP POP JUMP JUMPDEST POP POP POP JUMP JUMPDEST PUSH1 0x60 DUP4 ISZERO PUSH2 0x3676 JUMPI DUP3 SWAP1 POP PUSH2 0x36C6 JUMP JUMPDEST PUSH1 0x0 DUP4 MLOAD GT ISZERO PUSH2 0x3689 JUMPI DUP3 MLOAD DUP1 DUP5 PUSH1 0x20 ADD REVERT JUMPDEST DUP2 PUSH1 0x40 MLOAD PUSH32 0x8C379A000000000000000000000000000000000000000000000000000000000 DUP2 MSTORE PUSH1 0x4 ADD PUSH2 0x36BD SWAP2 SWAP1 PUSH2 0x38B2 JUMP JUMPDEST PUSH1 0x40 MLOAD DUP1 SWAP2 SUB SWAP1 REVERT JUMPDEST SWAP4 SWAP3 POP POP POP JUMP JUMPDEST PUSH1 0x0 PUSH28 0xFFFFFFFFFFFFFFFFFFFFFFFFFFFFFFFFFFFFFFFFFFFFFFFFFFFFFFFF DUP1 AND DUP3 GT ISZERO PUSH2 0x3730 JUMPI PUSH1 0x40 MLOAD PUSH32 0x8C379A000000000000000000000000000000000000000000000000000000000 DUP2 MSTORE PUSH1 0x4 ADD PUSH2 0x3727 SWAP1 PUSH2 0x579C JUMP JUMPDEST PUSH1 0x40 MLOAD DUP1 SWAP2 SUB SWAP1 REVERT JUMPDEST DUP2 SWAP1 POP SWAP2 SWAP1 POP JUMP JUMPDEST PUSH1 0x40 MLOAD DUP1 PUSH1 0x40 ADD PUSH1 0x40 MSTORE DUP1 PUSH1 0x0 PUSH4 0xFFFFFFFF AND DUP2 MSTORE PUSH1 0x20 ADD PUSH1 0x0 PUSH28 0xFFFFFFFFFFFFFFFFFFFFFFFFFFFFFFFFFFFFFFFFFFFFFFFFFFFFFFFF AND DUP2 MSTORE POP SWAP1 JUMP JUMPDEST DUP3 DUP1 SLOAD PUSH2 0x3782 SWAP1 PUSH2 0x401B JUMP JUMPDEST SWAP1 PUSH1 0x0 MSTORE PUSH1 0x20 PUSH1 0x0 KECCAK256 SWAP1 PUSH1 0x1F ADD PUSH1 0x20 SWAP1 DIV DUP2 ADD SWAP3 DUP3 PUSH2 0x37A4 JUMPI PUSH1 0x0 DUP6 SSTORE PUSH2 0x37EB JUMP JUMPDEST DUP3 PUSH1 0x1F LT PUSH2 0x37BD JUMPI DUP1 MLOAD PUSH1 0xFF NOT AND DUP4 DUP1 ADD OR DUP6 SSTORE PUSH2 0x37EB JUMP JUMPDEST DUP3 DUP1 ADD PUSH1 0x1 ADD DUP6 SSTORE DUP3 ISZERO PUSH2 0x37EB JUMPI SWAP2 DUP3 ADD JUMPDEST DUP3 DUP2 GT ISZERO PUSH2 0x37EA JUMPI DUP3 MLOAD DUP3 SSTORE SWAP2 PUSH1 0x20 ADD SWAP2 SWAP1 PUSH1 0x1 ADD SWAP1 PUSH2 0x37CF JUMP JUMPDEST JUMPDEST POP SWAP1 POP PUSH2 0x37F8 SWAP2 SWAP1 PUSH2 0x37FC JUMP JUMPDEST POP SWAP1 JUMP JUMPDEST JUMPDEST DUP1 DUP3 GT ISZERO PUSH2 0x3815 JUMPI PUSH1 0x0 DUP2 PUSH1 0x0 SWAP1 SSTORE POP PUSH1 0x1 ADD PUSH2 0x37FD JUMP JUMPDEST POP SWAP1 JUMP JUMPDEST PUSH1 0x0 DUP2 MLOAD SWAP1 POP SWAP2 SWAP1 POP JUMP JUMPDEST PUSH1 0x0 DUP3 DUP3 MSTORE PUSH1 0x20 DUP3 ADD SWAP1 POP SWAP3 SWAP2 POP POP JUMP JUMPDEST PUSH1 0x0 JUMPDEST DUP4 DUP2 LT ISZERO PUSH2 0x3853 JUMPI DUP1 DUP3 ADD MLOAD DUP2 DUP5 ADD MSTORE PUSH1 0x20 DUP2 ADD SWAP1 POP PUSH2 0x3838 JUMP JUMPDEST DUP4 DUP2 GT ISZERO PUSH2 0x3862 JUMPI PUSH1 0x0 DUP5 DUP5 ADD MSTORE JUMPDEST POP POP POP POP JUMP JUMPDEST PUSH1 0x0 PUSH1 0x1F NOT PUSH1 0x1F DUP4 ADD AND SWAP1 POP SWAP2 SWAP1 POP JUMP JUMPDEST PUSH1 0x0 PUSH2 0x3884 DUP3 PUSH2 0x3819 JUMP JUMPDEST PUSH2 0x388E DUP2 DUP6 PUSH2 0x3824 JUMP JUMPDEST SWAP4 POP PUSH2 0x389E DUP2 DUP6 PUSH1 0x20 DUP7 ADD PUSH2 0x3835 JUMP JUMPDEST PUSH2 0x38A7 DUP2 PUSH2 0x3868 JUMP JUMPDEST DUP5 ADD SWAP2 POP POP SWAP3 SWAP2 POP POP JUMP JUMPDEST PUSH1 0x0 PUSH1 0x20 DUP3 ADD SWAP1 POP DUP2 DUP2 SUB PUSH1 0x0 DUP4 ADD MSTORE PUSH2 0x38CC DUP2 DUP5 PUSH2 0x3879 JUMP JUMPDEST SWAP1 POP SWAP3 SWAP2 POP POP JUMP JUMPDEST PUSH1 0x0 PUSH1 0x40 MLOAD SWAP1 POP SWAP1 JUMP JUMPDEST PUSH1 0x0 DUP1 REVERT JUMPDEST PUSH1 0x0 DUP1 REVERT JUMPDEST PUSH1 0x0 PUSH20 0xFFFFFFFFFFFFFFFFFFFFFFFFFFFFFFFFFFFFFFFF DUP3 AND SWAP1 POP SWAP2 SWAP1 POP JUMP JUMPDEST PUSH1 0x0 PUSH2 0x3913 DUP3 PUSH2 0x38E8 JUMP JUMPDEST SWAP1 POP SWAP2 SWAP1 POP JUMP JUMPDEST PUSH2 0x3923 DUP2 PUSH2 0x3908 JUMP JUMPDEST DUP2 EQ PUSH2 0x392E JUMPI PUSH1 0x0 DUP1 REVERT JUMPDEST POP JUMP JUMPDEST PUSH1 0x0 DUP2 CALLDATALOAD SWAP1 POP PUSH2 0x3940 DUP2 PUSH2 0x391A JUMP JUMPDEST SWAP3 SWAP2 POP POP JUMP JUMPDEST PUSH1 0x0 DUP2 SWAP1 POP SWAP2 SWAP1 POP JUMP JUMPDEST PUSH2 0x3959 DUP2 PUSH2 0x3946 JUMP JUMPDEST DUP2 EQ PUSH2 0x3964 JUMPI PUSH1 0x0 DUP1 REVERT JUMPDEST POP JUMP JUMPDEST PUSH1 0x0 DUP2 CALLDATALOAD SWAP1 POP PUSH2 0x3976 DUP2 PUSH2 0x3950 JUMP JUMPDEST SWAP3 SWAP2 POP POP JUMP JUMPDEST PUSH1 0x0 DUP1 PUSH1 0x40 DUP4 DUP6 SUB SLT ISZERO PUSH2 0x3993 JUMPI PUSH2 0x3992 PUSH2 0x38DE JUMP JUMPDEST JUMPDEST PUSH1 0x0 PUSH2 0x39A1 DUP6 DUP3 DUP7 ADD PUSH2 0x3931 JUMP JUMPDEST SWAP3 POP POP PUSH1 0x20 PUSH2 0x39B2 DUP6 DUP3 DUP7 ADD PUSH2 0x3967 JUMP JUMPDEST SWAP2 POP POP SWAP3 POP SWAP3 SWAP1 POP JUMP JUMPDEST PUSH1 0x0 DUP2 ISZERO ISZERO SWAP1 POP SWAP2 SWAP1 POP JUMP JUMPDEST PUSH2 0x39D1 DUP2 PUSH2 0x39BC JUMP JUMPDEST DUP3 MSTORE POP POP JUMP JUMPDEST PUSH1 0x0 PUSH1 0x20 DUP3 ADD SWAP1 POP PUSH2 0x39EC PUSH1 0x0 DUP4 ADD DUP5 PUSH2 0x39C8 JUMP JUMPDEST SWAP3 SWAP2 POP POP JUMP JUMPDEST PUSH2 0x39FB DUP2 PUSH2 0x3946 JUMP JUMPDEST DUP3 MSTORE POP POP JUMP JUMPDEST PUSH1 0x0 PUSH1 0x20 DUP3 ADD SWAP1 POP PUSH2 0x3A16 PUSH1 0x0 DUP4 ADD DUP5 PUSH2 0x39F2 JUMP JUMPDEST SWAP3 SWAP2 POP POP JUMP JUMPDEST PUSH1 0x0 DUP1 PUSH1 0x0 PUSH1 0x60 DUP5 DUP7 SUB SLT ISZERO PUSH2 0x3A35 JUMPI PUSH2 0x3A34 PUSH2 0x38DE JUMP JUMPDEST JUMPDEST PUSH1 0x0 PUSH2 0x3A43 DUP7 DUP3 DUP8 ADD PUSH2 0x3931 JUMP JUMPDEST SWAP4 POP POP PUSH1 0x20 PUSH2 0x3A54 DUP7 DUP3 DUP8 ADD PUSH2 0x3931 JUMP JUMPDEST SWAP3 POP POP PUSH1 0x40 PUSH2 0x3A65 DUP7 DUP3 DUP8 ADD PUSH2 0x3967 JUMP JUMPDEST SWAP2 POP POP SWAP3 POP SWAP3 POP SWAP3 JUMP JUMPDEST PUSH1 0x0 PUSH1 0xFF DUP3 AND SWAP1 POP SWAP2 SWAP1 POP JUMP JUMPDEST PUSH2 0x3A85 DUP2 PUSH2 0x3A6F JUMP JUMPDEST DUP3 MSTORE POP POP JUMP JUMPDEST PUSH1 0x0 PUSH1 0x20 DUP3 ADD SWAP1 POP PUSH2 0x3AA0 PUSH1 0x0 DUP4 ADD DUP5 PUSH2 0x3A7C JUMP JUMPDEST SWAP3 SWAP2 POP POP JUMP JUMPDEST PUSH1 0x0 DUP2 SWAP1 POP SWAP2 SWAP1 POP JUMP JUMPDEST PUSH2 0x3AB9 DUP2 PUSH2 0x3AA6 JUMP JUMPDEST DUP3 MSTORE POP POP JUMP JUMPDEST PUSH1 0x0 PUSH1 0x20 DUP3 ADD SWAP1 POP PUSH2 0x3AD4 PUSH1 0x0 DUP4 ADD DUP5 PUSH2 0x3AB0 JUMP JUMPDEST SWAP3 SWAP2 POP POP JUMP JUMPDEST PUSH1 0x0 PUSH1 0x20 DUP3 DUP5 SUB SLT ISZERO PUSH2 0x3AF0 JUMPI PUSH2 0x3AEF PUSH2 0x38DE JUMP JUMPDEST JUMPDEST PUSH1 0x0 PUSH2 0x3AFE DUP5 DUP3 DUP6 ADD PUSH2 0x3931 JUMP JUMPDEST SWAP2 POP POP SWAP3 SWAP2 POP POP JUMP JUMPDEST PUSH1 0x0 DUP1 REVERT JUMPDEST PUSH1 0x0 DUP1 REVERT JUMPDEST PUSH32 0x4E487B7100000000000000000000000000000000000000000000000000000000 PUSH1 0x0 MSTORE PUSH1 0x41 PUSH1 0x4 MSTORE PUSH1 0x24 PUSH1 0x0 REVERT JUMPDEST PUSH2 0x3B49 DUP3 PUSH2 0x3868 JUMP JUMPDEST DUP2 ADD DUP2 DUP2 LT PUSH8 0xFFFFFFFFFFFFFFFF DUP3 GT OR ISZERO PUSH2 0x3B68 JUMPI PUSH2 0x3B67 PUSH2 0x3B11 JUMP JUMPDEST JUMPDEST DUP1 PUSH1 0x40 MSTORE POP POP POP JUMP JUMPDEST PUSH1 0x0 PUSH2 0x3B7B PUSH2 0x38D4 JUMP JUMPDEST SWAP1 POP PUSH2 0x3B87 DUP3 DUP3 PUSH2 0x3B40 JUMP JUMPDEST SWAP2 SWAP1 POP JUMP JUMPDEST PUSH1 0x0 PUSH8 0xFFFFFFFFFFFFFFFF DUP3 GT ISZERO PUSH2 0x3BA7 JUMPI PUSH2 0x3BA6 PUSH2 0x3B11 JUMP JUMPDEST JUMPDEST PUSH2 0x3BB0 DUP3 PUSH2 0x3868 JUMP JUMPDEST SWAP1 POP PUSH1 0x20 DUP2 ADD SWAP1 POP SWAP2 SWAP1 POP JUMP JUMPDEST DUP3 DUP2 DUP4 CALLDATACOPY PUSH1 0x0 DUP4 DUP4 ADD MSTORE POP POP POP JUMP JUMPDEST PUSH1 0x0 PUSH2 0x3BDF PUSH2 0x3BDA DUP5 PUSH2 0x3B8C JUMP JUMPDEST PUSH2 0x3B71 JUMP JUMPDEST SWAP1 POP DUP3 DUP2 MSTORE PUSH1 0x20 DUP2 ADD DUP5 DUP5 DUP5 ADD GT ISZERO PUSH2 0x3BFB JUMPI PUSH2 0x3BFA PUSH2 0x3B0C JUMP JUMPDEST JUMPDEST PUSH2 0x3C06 DUP5 DUP3 DUP6 PUSH2 0x3BBD JUMP JUMPDEST POP SWAP4 SWAP3 POP POP POP JUMP JUMPDEST PUSH1 0x0 DUP3 PUSH1 0x1F DUP4 ADD SLT PUSH2 0x3C23 JUMPI PUSH2 0x3C22 PUSH2 0x3B07 JUMP JUMPDEST JUMPDEST DUP2 CALLDATALOAD PUSH2 0x3C33 DUP5 DUP3 PUSH1 0x20 DUP7 ADD PUSH2 0x3BCC JUMP JUMPDEST SWAP2 POP POP SWAP3 SWAP2 POP POP JUMP JUMPDEST PUSH1 0x0 DUP1 PUSH1 0x40 DUP4 DUP6 SUB SLT ISZERO PUSH2 0x3C53 JUMPI PUSH2 0x3C52 PUSH2 0x38DE JUMP JUMPDEST JUMPDEST PUSH1 0x0 PUSH2 0x3C61 DUP6 DUP3 DUP7 ADD PUSH2 0x3931 JUMP JUMPDEST SWAP3 POP POP PUSH1 0x20 DUP4 ADD CALLDATALOAD PUSH8 0xFFFFFFFFFFFFFFFF DUP2 GT ISZERO PUSH2 0x3C82 JUMPI PUSH2 0x3C81 PUSH2 0x38E3 JUMP JUMPDEST JUMPDEST PUSH2 0x3C8E DUP6 DUP3 DUP7 ADD PUSH2 0x3C0E JUMP JUMPDEST SWAP2 POP POP SWAP3 POP SWAP3 SWAP1 POP JUMP JUMPDEST PUSH2 0x3CA1 DUP2 PUSH2 0x3908 JUMP JUMPDEST DUP3 MSTORE POP POP JUMP JUMPDEST PUSH1 0x0 PUSH1 0x20 DUP3 ADD SWAP1 POP PUSH2 0x3CBC PUSH1 0x0 DUP4 ADD DUP5 PUSH2 0x3C98 JUMP JUMPDEST SWAP3 SWAP2 POP POP JUMP JUMPDEST PUSH1 0x0 PUSH4 0xFFFFFFFF DUP3 AND SWAP1 POP SWAP2 SWAP1 POP JUMP JUMPDEST PUSH2 0x3CDB DUP2 PUSH2 0x3CC2 JUMP JUMPDEST DUP3 MSTORE POP POP JUMP JUMPDEST PUSH1 0x0 PUSH1 0x20 DUP3 ADD SWAP1 POP PUSH2 0x3CF6 PUSH1 0x0 DUP4 ADD DUP5 PUSH2 0x3CD2 JUMP JUMPDEST SWAP3 SWAP2 POP POP JUMP JUMPDEST PUSH1 0x0 PUSH1 0x20 DUP3 DUP5 SUB SLT ISZERO PUSH2 0x3D12 JUMPI PUSH2 0x3D11 PUSH2 0x38DE JUMP JUMPDEST JUMPDEST PUSH1 0x0 PUSH2 0x3D20 DUP5 DUP3 DUP6 ADD PUSH2 0x3967 JUMP JUMPDEST SWAP2 POP POP SWAP3 SWAP2 POP POP JUMP JUMPDEST PUSH2 0x3D32 DUP2 PUSH2 0x3A6F JUMP JUMPDEST DUP2 EQ PUSH2 0x3D3D JUMPI PUSH1 0x0 DUP1 REVERT JUMPDEST POP JUMP JUMPDEST PUSH1 0x0 DUP2 CALLDATALOAD SWAP1 POP PUSH2 0x3D4F DUP2 PUSH2 0x3D29 JUMP JUMPDEST SWAP3 SWAP2 POP POP JUMP JUMPDEST PUSH2 0x3D5E DUP2 PUSH2 0x3AA6 JUMP JUMPDEST DUP2 EQ PUSH2 0x3D69 JUMPI PUSH1 0x0 DUP1 REVERT JUMPDEST POP JUMP JUMPDEST PUSH1 0x0 DUP2 CALLDATALOAD SWAP1 POP PUSH2 0x3D7B DUP2 PUSH2 0x3D55 JUMP JUMPDEST SWAP3 SWAP2 POP POP JUMP JUMPDEST PUSH1 0x0 DUP1 PUSH1 0x0 DUP1 PUSH1 0x0 DUP1 PUSH1 0xC0 DUP8 DUP10 SUB SLT ISZERO PUSH2 0x3D9E JUMPI PUSH2 0x3D9D PUSH2 0x38DE JUMP JUMPDEST JUMPDEST PUSH1 0x0 PUSH2 0x3DAC DUP10 DUP3 DUP11 ADD PUSH2 0x3931 JUMP JUMPDEST SWAP7 POP POP PUSH1 0x20 PUSH2 0x3DBD DUP10 DUP3 DUP11 ADD PUSH2 0x3967 JUMP JUMPDEST SWAP6 POP POP PUSH1 0x40 PUSH2 0x3DCE DUP10 DUP3 DUP11 ADD PUSH2 0x3967 JUMP JUMPDEST SWAP5 POP POP PUSH1 0x60 PUSH2 0x3DDF DUP10 DUP3 DUP11 ADD PUSH2 0x3D40 JUMP JUMPDEST SWAP4 POP POP PUSH1 0x80 PUSH2 0x3DF0 DUP10 DUP3 DUP11 ADD PUSH2 0x3D6C JUMP JUMPDEST SWAP3 POP POP PUSH1 0xA0 PUSH2 0x3E01 DUP10 DUP3 DUP11 ADD PUSH2 0x3D6C JUMP JUMPDEST SWAP2 POP POP SWAP3 SWAP6 POP SWAP3 SWAP6 POP SWAP3 SWAP6 JUMP JUMPDEST PUSH1 0x0 DUP1 PUSH1 0x0 DUP1 PUSH1 0x0 DUP1 PUSH1 0x0 PUSH1 0xE0 DUP9 DUP11 SUB SLT ISZERO PUSH2 0x3E2D JUMPI PUSH2 0x3E2C PUSH2 0x38DE JUMP JUMPDEST JUMPDEST PUSH1 0x0 PUSH2 0x3E3B DUP11 DUP3 DUP12 ADD PUSH2 0x3931 JUMP JUMPDEST SWAP8 POP POP PUSH1 0x20 PUSH2 0x3E4C DUP11 DUP3 DUP12 ADD PUSH2 0x3931 JUMP JUMPDEST SWAP7 POP POP PUSH1 0x40 PUSH2 0x3E5D DUP11 DUP3 DUP12 ADD PUSH2 0x3967 JUMP JUMPDEST SWAP6 POP POP PUSH1 0x60 PUSH2 0x3E6E DUP11 DUP3 DUP12 ADD PUSH2 0x3967 JUMP JUMPDEST SWAP5 POP POP PUSH1 0x80 PUSH2 0x3E7F DUP11 DUP3 DUP12 ADD PUSH2 0x3D40 JUMP JUMPDEST SWAP4 POP POP PUSH1 0xA0 PUSH2 0x3E90 DUP11 DUP3 DUP12 ADD PUSH2 0x3D6C JUMP JUMPDEST SWAP3 POP POP PUSH1 0xC0 PUSH2 0x3EA1 DUP11 DUP3 DUP12 ADD PUSH2 0x3D6C JUMP JUMPDEST SWAP2 POP POP SWAP3 SWAP6 SWAP9 SWAP2 SWAP5 SWAP8 POP SWAP3 SWAP6 POP JUMP JUMPDEST PUSH1 0x0 DUP1 PUSH1 0x40 DUP4 DUP6 SUB SLT ISZERO PUSH2 0x3EC7 JUMPI PUSH2 0x3EC6 PUSH2 0x38DE JUMP JUMPDEST JUMPDEST PUSH1 0x0 PUSH2 0x3ED5 DUP6 DUP3 DUP7 ADD PUSH2 0x3931 JUMP JUMPDEST SWAP3 POP POP PUSH1 0x20 PUSH2 0x3EE6 DUP6 DUP3 DUP7 ADD PUSH2 0x3931 JUMP JUMPDEST SWAP2 POP POP SWAP3 POP SWAP3 SWAP1 POP JUMP JUMPDEST PUSH2 0x3EF9 DUP2 PUSH2 0x3CC2 JUMP JUMPDEST DUP2 EQ PUSH2 0x3F04 JUMPI PUSH1 0x0 DUP1 REVERT JUMPDEST POP JUMP JUMPDEST PUSH1 0x0 DUP2 CALLDATALOAD SWAP1 POP PUSH2 0x3F16 DUP2 PUSH2 0x3EF0 JUMP JUMPDEST SWAP3 SWAP2 POP POP JUMP JUMPDEST PUSH1 0x0 DUP1 PUSH1 0x40 DUP4 DUP6 SUB SLT ISZERO PUSH2 0x3F33 JUMPI PUSH2 0x3F32 PUSH2 0x38DE JUMP JUMPDEST JUMPDEST PUSH1 0x0 PUSH2 0x3F41 DUP6 DUP3 DUP7 ADD PUSH2 0x3931 JUMP JUMPDEST SWAP3 POP POP PUSH1 0x20 PUSH2 0x3F52 DUP6 DUP3 DUP7 ADD PUSH2 0x3F07 JUMP JUMPDEST SWAP2 POP POP SWAP3 POP SWAP3 SWAP1 POP JUMP JUMPDEST PUSH2 0x3F65 DUP2 PUSH2 0x3CC2 JUMP JUMPDEST DUP3 MSTORE POP POP JUMP JUMPDEST PUSH1 0x0 PUSH28 0xFFFFFFFFFFFFFFFFFFFFFFFFFFFFFFFFFFFFFFFFFFFFFFFFFFFFFFFF DUP3 AND SWAP1 POP SWAP2 SWAP1 POP JUMP JUMPDEST PUSH2 0x3F9C DUP2 PUSH2 0x3F6B JUMP JUMPDEST DUP3 MSTORE POP POP JUMP JUMPDEST PUSH1 0x40 DUP3 ADD PUSH1 0x0 DUP3 ADD MLOAD PUSH2 0x3FB8 PUSH1 0x0 DUP6 ADD DUP3 PUSH2 0x3F5C JUMP JUMPDEST POP PUSH1 0x20 DUP3 ADD MLOAD PUSH2 0x3FCB PUSH1 0x20 DUP6 ADD DUP3 PUSH2 0x3F93 JUMP JUMPDEST POP POP POP POP JUMP JUMPDEST PUSH1 0x0 PUSH1 0x40 DUP3 ADD SWAP1 POP PUSH2 0x3FE6 PUSH1 0x0 DUP4 ADD DUP5 PUSH2 0x3FA2 JUMP JUMPDEST SWAP3 SWAP2 POP POP JUMP JUMPDEST PUSH32 0x4E487B7100000000000000000000000000000000000000000000000000000000 PUSH1 0x0 MSTORE PUSH1 0x22 PUSH1 0x4 MSTORE PUSH1 0x24 PUSH1 0x0 REVERT JUMPDEST PUSH1 0x0 PUSH1 0x2 DUP3 DIV SWAP1 POP PUSH1 0x1 DUP3 AND DUP1 PUSH2 0x4033 JUMPI PUSH1 0x7F DUP3 AND SWAP2 POP JUMPDEST PUSH1 0x20 DUP3 LT DUP2 EQ ISZERO PUSH2 0x4047 JUMPI PUSH2 0x4046 PUSH2 0x3FEC JUMP JUMPDEST JUMPDEST POP SWAP2 SWAP1 POP JUMP JUMPDEST PUSH32 0x46756E6374696F6E206D7573742062652063616C6C6564207468726F75676820 PUSH1 0x0 DUP3 ADD MSTORE PUSH32 0x64656C656761746563616C6C0000000000000000000000000000000000000000 PUSH1 0x20 DUP3 ADD MSTORE POP JUMP JUMPDEST PUSH1 0x0 PUSH2 0x40A9 PUSH1 0x2C DUP4 PUSH2 0x3824 JUMP JUMPDEST SWAP2 POP PUSH2 0x40B4 DUP3 PUSH2 0x404D JUMP JUMPDEST PUSH1 0x40 DUP3 ADD SWAP1 POP SWAP2 SWAP1 POP JUMP JUMPDEST PUSH1 0x0 PUSH1 0x20 DUP3 ADD SWAP1 POP DUP2 DUP2 SUB PUSH1 0x0 DUP4 ADD MSTORE PUSH2 0x40D8 DUP2 PUSH2 0x409C JUMP JUMPDEST SWAP1 POP SWAP2 SWAP1 POP JUMP JUMPDEST PUSH32 0x46756E6374696F6E206D7573742062652063616C6C6564207468726F75676820 PUSH1 0x0 DUP3 ADD MSTORE PUSH32 0x6163746976652070726F78790000000000000000000000000000000000000000 PUSH1 0x20 DUP3 ADD MSTORE POP JUMP JUMPDEST PUSH1 0x0 PUSH2 0x413B PUSH1 0x2C DUP4 PUSH2 0x3824 JUMP JUMPDEST SWAP2 POP PUSH2 0x4146 DUP3 PUSH2 0x40DF JUMP JUMPDEST PUSH1 0x40 DUP3 ADD SWAP1 POP SWAP2 SWAP1 POP JUMP JUMPDEST PUSH1 0x0 PUSH1 0x20 DUP3 ADD SWAP1 POP DUP2 DUP2 SUB PUSH1 0x0 DUP4 ADD MSTORE PUSH2 0x416A DUP2 PUSH2 0x412E JUMP JUMPDEST SWAP1 POP SWAP2 SWAP1 POP JUMP JUMPDEST PUSH32 0x4E487B7100000000000000000000000000000000000000000000000000000000 PUSH1 0x0 MSTORE PUSH1 0x11 PUSH1 0x4 MSTORE PUSH1 0x24 PUSH1 0x0 REVERT JUMPDEST PUSH1 0x0 PUSH2 0x41AB DUP3 PUSH2 0x3946 JUMP JUMPDEST SWAP2 POP PUSH2 0x41B6 DUP4 PUSH2 0x3946 JUMP JUMPDEST SWAP3 POP DUP3 PUSH32 0xFFFFFFFFFFFFFFFFFFFFFFFFFFFFFFFFFFFFFFFFFFFFFFFFFFFFFFFFFFFFFFFF SUB DUP3 GT ISZERO PUSH2 0x41EB JUMPI PUSH2 0x41EA PUSH2 0x4171 JUMP JUMPDEST JUMPDEST DUP3 DUP3 ADD SWAP1 POP SWAP3 SWAP2 POP POP JUMP JUMPDEST PUSH32 0x4552433230566F7465733A20626C6F636B206E6F7420796574206D696E656400 PUSH1 0x0 DUP3 ADD MSTORE POP JUMP JUMPDEST PUSH1 0x0 PUSH2 0x422C PUSH1 0x1F DUP4 PUSH2 0x3824 JUMP JUMPDEST SWAP2 POP PUSH2 0x4237 DUP3 PUSH2 0x41F6 JUMP JUMPDEST PUSH1 0x20 DUP3 ADD SWAP1 POP SWAP2 SWAP1 POP JUMP JUMPDEST PUSH1 0x0 PUSH1 0x20 DUP3 ADD SWAP1 POP DUP2 DUP2 SUB PUSH1 0x0 DUP4 ADD MSTORE PUSH2 0x425B DUP2 PUSH2 0x421F JUMP JUMPDEST SWAP1 POP SWAP2 SWAP1 POP JUMP JUMPDEST PUSH32 0x555550535570677261646561626C653A206D757374206E6F742062652063616C PUSH1 0x0 DUP3 ADD MSTORE PUSH32 0x6C6564207468726F7567682064656C656761746563616C6C0000000000000000 PUSH1 0x20 DUP3 ADD MSTORE POP JUMP JUMPDEST PUSH1 0x0 PUSH2 0x42BE PUSH1 0x38 DUP4 PUSH2 0x3824 JUMP JUMPDEST SWAP2 POP PUSH2 0x42C9 DUP3 PUSH2 0x4262 JUMP JUMPDEST PUSH1 0x40 DUP3 ADD SWAP1 POP SWAP2 SWAP1 POP JUMP JUMPDEST PUSH1 0x0 PUSH1 0x20 DUP3 ADD SWAP1 POP DUP2 DUP2 SUB PUSH1 0x0 DUP4 ADD MSTORE PUSH2 0x42ED DUP2 PUSH2 0x42B1 JUMP JUMPDEST SWAP1 POP SWAP2 SWAP1 POP JUMP JUMPDEST PUSH32 0x496E697469616C697A61626C653A20636F6E747261637420697320616C726561 PUSH1 0x0 DUP3 ADD MSTORE PUSH32 0x647920696E697469616C697A6564000000000000000000000000000000000000 PUSH1 0x20 DUP3 ADD MSTORE POP JUMP JUMPDEST PUSH1 0x0 PUSH2 0x4350 PUSH1 0x2E DUP4 PUSH2 0x3824 JUMP JUMPDEST SWAP2 POP PUSH2 0x435B DUP3 PUSH2 0x42F4 JUMP JUMPDEST PUSH1 0x40 DUP3 ADD SWAP1 POP SWAP2 SWAP1 POP JUMP JUMPDEST PUSH1 0x0 PUSH1 0x20 DUP3 ADD SWAP1 POP DUP2 DUP2 SUB PUSH1 0x0 DUP4 ADD MSTORE PUSH2 0x437F DUP2 PUSH2 0x4343 JUMP JUMPDEST SWAP1 POP SWAP2 SWAP1 POP JUMP JUMPDEST PUSH1 0x0 DUP2 PUSH1 0x1 SHR SWAP1 POP SWAP2 SWAP1 POP JUMP JUMPDEST PUSH1 0x0 DUP1 DUP3 SWAP2 POP DUP4 SWAP1 POP JUMPDEST PUSH1 0x1 DUP6 GT ISZERO PUSH2 0x43DD JUMPI DUP1 DUP7 DIV DUP2 GT ISZERO PUSH2 0x43B9 JUMPI PUSH2 0x43B8 PUSH2 0x4171 JUMP JUMPDEST JUMPDEST PUSH1 0x1 DUP6 AND ISZERO PUSH2 0x43C8 JUMPI DUP1 DUP3 MUL SWAP2 POP JUMPDEST DUP1 DUP2 MUL SWAP1 POP PUSH2 0x43D6 DUP6 PUSH2 0x4386 JUMP JUMPDEST SWAP5 POP PUSH2 0x439D JUMP JUMPDEST SWAP5 POP SWAP5 SWAP3 POP POP POP JUMP JUMPDEST PUSH1 0x0 DUP3 PUSH2 0x43F6 JUMPI PUSH1 0x1 SWAP1 POP PUSH2 0x44B2 JUMP JUMPDEST DUP2 PUSH2 0x4404 JUMPI PUSH1 0x0 SWAP1 POP PUSH2 0x44B2 JUMP JUMPDEST DUP2 PUSH1 0x1 DUP2 EQ PUSH2 0x441A JUMPI PUSH1 0x2 DUP2 EQ PUSH2 0x4424 JUMPI PUSH2 0x4453 JUMP JUMPDEST PUSH1 0x1 SWAP2 POP POP PUSH2 0x44B2 JUMP JUMPDEST PUSH1 0xFF DUP5 GT ISZERO PUSH2 0x4436 JUMPI PUSH2 0x4435 PUSH2 0x4171 JUMP JUMPDEST JUMPDEST DUP4 PUSH1 0x2 EXP SWAP2 POP DUP5 DUP3 GT ISZERO PUSH2 0x444D JUMPI PUSH2 0x444C PUSH2 0x4171 JUMP JUMPDEST JUMPDEST POP PUSH2 0x44B2 JUMP JUMPDEST POP PUSH1 0x20 DUP4 LT PUSH2 0x133 DUP4 LT AND PUSH1 0x4E DUP5 LT PUSH1 0xB DUP5 LT AND OR ISZERO PUSH2 0x4488 JUMPI DUP3 DUP3 EXP SWAP1 POP DUP4 DUP2 GT ISZERO PUSH2 0x4483 JUMPI PUSH2 0x4482 PUSH2 0x4171 JUMP JUMPDEST JUMPDEST PUSH2 0x44B2 JUMP JUMPDEST PUSH2 0x4495 DUP5 DUP5 DUP5 PUSH1 0x1 PUSH2 0x4393 JUMP JUMPDEST SWAP3 POP SWAP1 POP DUP2 DUP5 DIV DUP2 GT ISZERO PUSH2 0x44AC JUMPI PUSH2 0x44AB PUSH2 0x4171 JUMP JUMPDEST JUMPDEST DUP2 DUP2 MUL SWAP1 POP JUMPDEST SWAP4 SWAP3 POP POP POP JUMP JUMPDEST PUSH1 0x0 PUSH2 0x44C4 DUP3 PUSH2 0x3946 JUMP JUMPDEST SWAP2 POP PUSH2 0x44CF DUP4 PUSH2 0x3A6F JUMP JUMPDEST SWAP3 POP PUSH2 0x44FC PUSH32 0xFFFFFFFFFFFFFFFFFFFFFFFFFFFFFFFFFFFFFFFFFFFFFFFFFFFFFFFFFFFFFFFF DUP5 DUP5 PUSH2 0x43E6 JUMP JUMPDEST SWAP1 POP SWAP3 SWAP2 POP POP JUMP JUMPDEST PUSH1 0x0 PUSH2 0x450F DUP3 PUSH2 0x3946 JUMP JUMPDEST SWAP2 POP PUSH2 0x451A DUP4 PUSH2 0x3946 JUMP JUMPDEST SWAP3 POP DUP2 PUSH32 0xFFFFFFFFFFFFFFFFFFFFFFFFFFFFFFFFFFFFFFFFFFFFFFFFFFFFFFFFFFFFFFFF DIV DUP4 GT DUP3 ISZERO ISZERO AND ISZERO PUSH2 0x4553 JUMPI PUSH2 0x4552 PUSH2 0x4171 JUMP JUMPDEST JUMPDEST DUP3 DUP3 MUL SWAP1 POP SWAP3 SWAP2 POP POP JUMP JUMPDEST PUSH1 0x0 DUP2 SWAP1 POP SWAP2 SWAP1 POP JUMP JUMPDEST PUSH1 0x0 DUP2 SWAP1 POP SWAP2 SWAP1 POP JUMP JUMPDEST PUSH1 0x0 PUSH2 0x458D PUSH2 0x4588 PUSH2 0x4583 DUP5 PUSH2 0x455E JUMP JUMPDEST PUSH2 0x4568 JUMP JUMPDEST PUSH2 0x3A6F JUMP JUMPDEST SWAP1 POP SWAP2 SWAP1 POP JUMP JUMPDEST PUSH2 0x459D DUP2 PUSH2 0x4572 JUMP JUMPDEST DUP3 MSTORE POP POP JUMP JUMPDEST PUSH1 0x0 PUSH1 0x20 DUP3 ADD SWAP1 POP PUSH2 0x45B8 PUSH1 0x0 DUP4 ADD DUP5 PUSH2 0x4594 JUMP JUMPDEST SWAP3 SWAP2 POP POP JUMP JUMPDEST PUSH1 0x0 PUSH2 0x45C9 DUP3 PUSH2 0x3946 JUMP JUMPDEST SWAP2 POP PUSH2 0x45D4 DUP4 PUSH2 0x3946 JUMP JUMPDEST SWAP3 POP DUP3 DUP3 LT ISZERO PUSH2 0x45E7 JUMPI PUSH2 0x45E6 PUSH2 0x4171 JUMP JUMPDEST JUMPDEST DUP3 DUP3 SUB SWAP1 POP SWAP3 SWAP2 POP POP JUMP JUMPDEST PUSH32 0x4E487B7100000000000000000000000000000000000000000000000000000000 PUSH1 0x0 MSTORE PUSH1 0x32 PUSH1 0x4 MSTORE PUSH1 0x24 PUSH1 0x0 REVERT JUMPDEST PUSH32 0x45524332303A2064656372656173656420616C6C6F77616E63652062656C6F77 PUSH1 0x0 DUP3 ADD MSTORE PUSH32 0x207A65726F000000000000000000000000000000000000000000000000000000 PUSH1 0x20 DUP3 ADD MSTORE POP JUMP JUMPDEST PUSH1 0x0 PUSH2 0x467D PUSH1 0x25 DUP4 PUSH2 0x3824 JUMP JUMPDEST SWAP2 POP PUSH2 0x4688 DUP3 PUSH2 0x4621 JUMP JUMPDEST PUSH1 0x40 DUP3 ADD SWAP1 POP SWAP2 SWAP1 POP JUMP JUMPDEST PUSH1 0x0 PUSH1 0x20 DUP3 ADD SWAP1 POP DUP2 DUP2 SUB PUSH1 0x0 DUP4 ADD MSTORE PUSH2 0x46AC DUP2 PUSH2 0x4670 JUMP JUMPDEST SWAP1 POP SWAP2 SWAP1 POP JUMP JUMPDEST PUSH32 0x4552433230566F7465733A207369676E61747572652065787069726564000000 PUSH1 0x0 DUP3 ADD MSTORE POP JUMP JUMPDEST PUSH1 0x0 PUSH2 0x46E9 PUSH1 0x1D DUP4 PUSH2 0x3824 JUMP JUMPDEST SWAP2 POP PUSH2 0x46F4 DUP3 PUSH2 0x46B3 JUMP JUMPDEST PUSH1 0x20 DUP3 ADD SWAP1 POP SWAP2 SWAP1 POP JUMP JUMPDEST PUSH1 0x0 PUSH1 0x20 DUP3 ADD SWAP1 POP DUP2 DUP2 SUB PUSH1 0x0 DUP4 ADD MSTORE PUSH2 0x4718 DUP2 PUSH2 0x46DC JUMP JUMPDEST SWAP1 POP SWAP2 SWAP1 POP JUMP JUMPDEST PUSH1 0x0 PUSH1 0x80 DUP3 ADD SWAP1 POP PUSH2 0x4734 PUSH1 0x0 DUP4 ADD DUP8 PUSH2 0x3AB0 JUMP JUMPDEST PUSH2 0x4741 PUSH1 0x20 DUP4 ADD DUP7 PUSH2 0x3C98 JUMP JUMPDEST PUSH2 0x474E PUSH1 0x40 DUP4 ADD DUP6 PUSH2 0x39F2 JUMP JUMPDEST PUSH2 0x475B PUSH1 0x60 DUP4 ADD DUP5 PUSH2 0x39F2 JUMP JUMPDEST SWAP6 SWAP5 POP POP POP POP POP JUMP JUMPDEST PUSH32 0x4552433230566F7465733A20696E76616C6964206E6F6E636500000000000000 PUSH1 0x0 DUP3 ADD MSTORE POP JUMP JUMPDEST PUSH1 0x0 PUSH2 0x479A PUSH1 0x19 DUP4 PUSH2 0x3824 JUMP JUMPDEST SWAP2 POP PUSH2 0x47A5 DUP3 PUSH2 0x4764 JUMP JUMPDEST PUSH1 0x20 DUP3 ADD SWAP1 POP SWAP2 SWAP1 POP JUMP JUMPDEST PUSH1 0x0 PUSH1 0x20 DUP3 ADD SWAP1 POP DUP2 DUP2 SUB PUSH1 0x0 DUP4 ADD MSTORE PUSH2 0x47C9 DUP2 PUSH2 0x478D JUMP JUMPDEST SWAP1 POP SWAP2 SWAP1 POP JUMP JUMPDEST PUSH32 0x45524332305065726D69743A206578706972656420646561646C696E65000000 PUSH1 0x0 DUP3 ADD MSTORE POP JUMP JUMPDEST PUSH1 0x0 PUSH2 0x4806 PUSH1 0x1D DUP4 PUSH2 0x3824 JUMP JUMPDEST SWAP2 POP PUSH2 0x4811 DUP3 PUSH2 0x47D0 JUMP JUMPDEST PUSH1 0x20 DUP3 ADD SWAP1 POP SWAP2 SWAP1 POP JUMP JUMPDEST PUSH1 0x0 PUSH1 0x20 DUP3 ADD SWAP1 POP DUP2 DUP2 SUB PUSH1 0x0 DUP4 ADD MSTORE PUSH2 0x4835 DUP2 PUSH2 0x47F9 JUMP JUMPDEST SWAP1 POP SWAP2 SWAP1 POP JUMP JUMPDEST PUSH1 0x0 PUSH1 0xC0 DUP3 ADD SWAP1 POP PUSH2 0x4851 PUSH1 0x0 DUP4 ADD DUP10 PUSH2 0x3AB0 JUMP JUMPDEST PUSH2 0x485E PUSH1 0x20 DUP4 ADD DUP9 PUSH2 0x3C98 JUMP JUMPDEST PUSH2 0x486B PUSH1 0x40 DUP4 ADD DUP8 PUSH2 0x3C98 JUMP JUMPDEST PUSH2 0x4878 PUSH1 0x60 DUP4 ADD DUP7 PUSH2 0x39F2 JUMP JUMPDEST PUSH2 0x4885 PUSH1 0x80 DUP4 ADD DUP6 PUSH2 0x39F2 JUMP JUMPDEST PUSH2 0x4892 PUSH1 0xA0 DUP4 ADD DUP5 PUSH2 0x39F2 JUMP JUMPDEST SWAP8 SWAP7 POP POP POP POP POP POP POP JUMP JUMPDEST PUSH32 0x45524332305065726D69743A20696E76616C6964207369676E61747572650000 PUSH1 0x0 DUP3 ADD MSTORE POP JUMP JUMPDEST PUSH1 0x0 PUSH2 0x48D3 PUSH1 0x1E DUP4 PUSH2 0x3824 JUMP JUMPDEST SWAP2 POP PUSH2 0x48DE DUP3 PUSH2 0x489D JUMP JUMPDEST PUSH1 0x20 DUP3 ADD SWAP1 POP SWAP2 SWAP1 POP JUMP JUMPDEST PUSH1 0x0 PUSH1 0x20 DUP3 ADD SWAP1 POP DUP2 DUP2 SUB PUSH1 0x0 DUP4 ADD MSTORE PUSH2 0x4902 DUP2 PUSH2 0x48C6 JUMP JUMPDEST SWAP1 POP SWAP2 SWAP1 POP JUMP JUMPDEST PUSH32 0x4F776E61626C653A206E6577206F776E657220697320746865207A65726F2061 PUSH1 0x0 DUP3 ADD MSTORE PUSH32 0x6464726573730000000000000000000000000000000000000000000000000000 PUSH1 0x20 DUP3 ADD MSTORE POP JUMP JUMPDEST PUSH1 0x0 PUSH2 0x4965 PUSH1 0x26 DUP4 PUSH2 0x3824 JUMP JUMPDEST SWAP2 POP PUSH2 0x4970 DUP3 PUSH2 0x4909 JUMP JUMPDEST PUSH1 0x40 DUP3 ADD SWAP1 POP SWAP2 SWAP1 POP JUMP JUMPDEST PUSH1 0x0 PUSH1 0x20 DUP3 ADD SWAP1 POP DUP2 DUP2 SUB PUSH1 0x0 DUP4 ADD MSTORE PUSH2 0x4994 DUP2 PUSH2 0x4958 JUMP JUMPDEST SWAP1 POP SWAP2 SWAP1 POP JUMP JUMPDEST PUSH32 0x45524332303A20617070726F76652066726F6D20746865207A65726F20616464 PUSH1 0x0 DUP3 ADD MSTORE PUSH32 0x7265737300000000000000000000000000000000000000000000000000000000 PUSH1 0x20 DUP3 ADD MSTORE POP JUMP JUMPDEST PUSH1 0x0 PUSH2 0x49F7 PUSH1 0x24 DUP4 PUSH2 0x3824 JUMP JUMPDEST SWAP2 POP PUSH2 0x4A02 DUP3 PUSH2 0x499B JUMP JUMPDEST PUSH1 0x40 DUP3 ADD SWAP1 POP SWAP2 SWAP1 POP JUMP JUMPDEST PUSH1 0x0 PUSH1 0x20 DUP3 ADD SWAP1 POP DUP2 DUP2 SUB PUSH1 0x0 DUP4 ADD MSTORE PUSH2 0x4A26 DUP2 PUSH2 0x49EA JUMP JUMPDEST SWAP1 POP SWAP2 SWAP1 POP JUMP JUMPDEST PUSH32 0x45524332303A20617070726F766520746F20746865207A65726F206164647265 PUSH1 0x0 DUP3 ADD MSTORE PUSH32 0x7373000000000000000000000000000000000000000000000000000000000000 PUSH1 0x20 DUP3 ADD MSTORE POP JUMP JUMPDEST PUSH1 0x0 PUSH2 0x4A89 PUSH1 0x22 DUP4 PUSH2 0x3824 JUMP JUMPDEST SWAP2 POP PUSH2 0x4A94 DUP3 PUSH2 0x4A2D JUMP JUMPDEST PUSH1 0x40 DUP3 ADD SWAP1 POP SWAP2 SWAP1 POP JUMP JUMPDEST PUSH1 0x0 PUSH1 0x20 DUP3 ADD SWAP1 POP DUP2 DUP2 SUB PUSH1 0x0 DUP4 ADD MSTORE PUSH2 0x4AB8 DUP2 PUSH2 0x4A7C JUMP JUMPDEST SWAP1 POP SWAP2 SWAP1 POP JUMP JUMPDEST PUSH32 0x45524332303A20696E73756666696369656E7420616C6C6F77616E6365000000 PUSH1 0x0 DUP3 ADD MSTORE POP JUMP JUMPDEST PUSH1 0x0 PUSH2 0x4AF5 PUSH1 0x1D DUP4 PUSH2 0x3824 JUMP JUMPDEST SWAP2 POP PUSH2 0x4B00 DUP3 PUSH2 0x4ABF JUMP JUMPDEST PUSH1 0x20 DUP3 ADD SWAP1 POP SWAP2 SWAP1 POP JUMP JUMPDEST PUSH1 0x0 PUSH1 0x20 DUP3 ADD SWAP1 POP DUP2 DUP2 SUB PUSH1 0x0 DUP4 ADD MSTORE PUSH2 0x4B24 DUP2 PUSH2 0x4AE8 JUMP JUMPDEST SWAP1 POP SWAP2 SWAP1 POP JUMP JUMPDEST PUSH32 0x45524332303A207472616E736665722066726F6D20746865207A65726F206164 PUSH1 0x0 DUP3 ADD MSTORE PUSH32 0x6472657373000000000000000000000000000000000000000000000000000000 PUSH1 0x20 DUP3 ADD MSTORE POP JUMP JUMPDEST PUSH1 0x0 PUSH2 0x4B87 PUSH1 0x25 DUP4 PUSH2 0x3824 JUMP JUMPDEST SWAP2 POP PUSH2 0x4B92 DUP3 PUSH2 0x4B2B JUMP JUMPDEST PUSH1 0x40 DUP3 ADD SWAP1 POP SWAP2 SWAP1 POP JUMP JUMPDEST PUSH1 0x0 PUSH1 0x20 DUP3 ADD SWAP1 POP DUP2 DUP2 SUB PUSH1 0x0 DUP4 ADD MSTORE PUSH2 0x4BB6 DUP2 PUSH2 0x4B7A JUMP JUMPDEST SWAP1 POP SWAP2 SWAP1 POP JUMP JUMPDEST PUSH32 0x45524332303A207472616E7366657220746F20746865207A65726F2061646472 PUSH1 0x0 DUP3 ADD MSTORE PUSH32 0x6573730000000000000000000000000000000000000000000000000000000000 PUSH1 0x20 DUP3 ADD MSTORE POP JUMP JUMPDEST PUSH1 0x0 PUSH2 0x4C19 PUSH1 0x23 DUP4 PUSH2 0x3824 JUMP JUMPDEST SWAP2 POP PUSH2 0x4C24 DUP3 PUSH2 0x4BBD JUMP JUMPDEST PUSH1 0x40 DUP3 ADD SWAP1 POP SWAP2 SWAP1 POP JUMP JUMPDEST PUSH1 0x0 PUSH1 0x20 DUP3 ADD SWAP1 POP DUP2 DUP2 SUB PUSH1 0x0 DUP4 ADD MSTORE PUSH2 0x4C48 DUP2 PUSH2 0x4C0C JUMP JUMPDEST SWAP1 POP SWAP2 SWAP1 POP JUMP JUMPDEST PUSH32 0x45524332303A207472616E7366657220616D6F756E7420657863656564732062 PUSH1 0x0 DUP3 ADD MSTORE PUSH32 0x616C616E63650000000000000000000000000000000000000000000000000000 PUSH1 0x20 DUP3 ADD MSTORE POP JUMP JUMPDEST PUSH1 0x0 PUSH2 0x4CAB PUSH1 0x26 DUP4 PUSH2 0x3824 JUMP JUMPDEST SWAP2 POP PUSH2 0x4CB6 DUP3 PUSH2 0x4C4F JUMP JUMPDEST PUSH1 0x40 DUP3 ADD SWAP1 POP SWAP2 SWAP1 POP JUMP JUMPDEST PUSH1 0x0 PUSH1 0x20 DUP3 ADD SWAP1 POP DUP2 DUP2 SUB PUSH1 0x0 DUP4 ADD MSTORE PUSH2 0x4CDA DUP2 PUSH2 0x4C9E JUMP JUMPDEST SWAP1 POP SWAP2 SWAP1 POP JUMP JUMPDEST PUSH1 0x0 DUP2 MLOAD SWAP1 POP PUSH2 0x4CF0 DUP2 PUSH2 0x3D55 JUMP JUMPDEST SWAP3 SWAP2 POP POP JUMP JUMPDEST PUSH1 0x0 PUSH1 0x20 DUP3 DUP5 SUB SLT ISZERO PUSH2 0x4D0C JUMPI PUSH2 0x4D0B PUSH2 0x38DE JUMP JUMPDEST JUMPDEST PUSH1 0x0 PUSH2 0x4D1A DUP5 DUP3 DUP6 ADD PUSH2 0x4CE1 JUMP JUMPDEST SWAP2 POP POP SWAP3 SWAP2 POP POP JUMP JUMPDEST PUSH32 0x45524331393637557067726164653A206E657720696D706C656D656E74617469 PUSH1 0x0 DUP3 ADD MSTORE PUSH32 0x6F6E206973206E6F742055555053000000000000000000000000000000000000 PUSH1 0x20 DUP3 ADD MSTORE POP JUMP JUMPDEST PUSH1 0x0 PUSH2 0x4D7F PUSH1 0x2E DUP4 PUSH2 0x3824 JUMP JUMPDEST SWAP2 POP PUSH2 0x4D8A DUP3 PUSH2 0x4D23 JUMP JUMPDEST PUSH1 0x40 DUP3 ADD SWAP1 POP SWAP2 SWAP1 POP JUMP JUMPDEST PUSH1 0x0 PUSH1 0x20 DUP3 ADD SWAP1 POP DUP2 DUP2 SUB PUSH1 0x0 DUP4 ADD MSTORE PUSH2 0x4DAE DUP2 PUSH2 0x4D72 JUMP JUMPDEST SWAP1 POP SWAP2 SWAP1 POP JUMP JUMPDEST PUSH32 0x45524331393637557067726164653A20756E737570706F727465642070726F78 PUSH1 0x0 DUP3 ADD MSTORE PUSH32 0x6961626C65555549440000000000000000000000000000000000000000000000 PUSH1 0x20 DUP3 ADD MSTORE POP JUMP JUMPDEST PUSH1 0x0 PUSH2 0x4E11 PUSH1 0x29 DUP4 PUSH2 0x3824 JUMP JUMPDEST SWAP2 POP PUSH2 0x4E1C DUP3 PUSH2 0x4DB5 JUMP JUMPDEST PUSH1 0x40 DUP3 ADD SWAP1 POP SWAP2 SWAP1 POP JUMP JUMPDEST PUSH1 0x0 PUSH1 0x20 DUP3 ADD SWAP1 POP DUP2 DUP2 SUB PUSH1 0x0 DUP4 ADD MSTORE PUSH2 0x4E40 DUP2 PUSH2 0x4E04 JUMP JUMPDEST SWAP1 POP SWAP2 SWAP1 POP JUMP JUMPDEST PUSH32 0x4F776E61626C653A2063616C6C6572206973206E6F7420746865206F776E6572 PUSH1 0x0 DUP3 ADD MSTORE POP JUMP JUMPDEST PUSH1 0x0 PUSH2 0x4E7D PUSH1 0x20 DUP4 PUSH2 0x3824 JUMP JUMPDEST SWAP2 POP PUSH2 0x4E88 DUP3 PUSH2 0x4E47 JUMP JUMPDEST PUSH1 0x20 DUP3 ADD SWAP1 POP SWAP2 SWAP1 POP JUMP JUMPDEST PUSH1 0x0 PUSH1 0x20 DUP3 ADD SWAP1 POP DUP2 DUP2 SUB PUSH1 0x0 DUP4 ADD MSTORE PUSH2 0x4EAC DUP2 PUSH2 0x4E70 JUMP JUMPDEST SWAP1 POP SWAP2 SWAP1 POP JUMP JUMPDEST PUSH32 0x53616665436173743A2076616C756520646F65736E27742066697420696E2033 PUSH1 0x0 DUP3 ADD MSTORE PUSH32 0x3220626974730000000000000000000000000000000000000000000000000000 PUSH1 0x20 DUP3 ADD MSTORE POP JUMP JUMPDEST PUSH1 0x0 PUSH2 0x4F0F PUSH1 0x26 DUP4 PUSH2 0x3824 JUMP JUMPDEST SWAP2 POP PUSH2 0x4F1A DUP3 PUSH2 0x4EB3 JUMP JUMPDEST PUSH1 0x40 DUP3 ADD SWAP1 POP SWAP2 SWAP1 POP JUMP JUMPDEST PUSH1 0x0 PUSH1 0x20 DUP3 ADD SWAP1 POP DUP2 DUP2 SUB PUSH1 0x0 DUP4 ADD MSTORE PUSH2 0x4F3E DUP2 PUSH2 0x4F02 JUMP JUMPDEST SWAP1 POP SWAP2 SWAP1 POP JUMP JUMPDEST PUSH32 0x496E697469616C697A61626C653A20636F6E7472616374206973206E6F742069 PUSH1 0x0 DUP3 ADD MSTORE PUSH32 0x6E697469616C697A696E67000000000000000000000000000000000000000000 PUSH1 0x20 DUP3 ADD MSTORE POP JUMP JUMPDEST PUSH1 0x0 PUSH2 0x4FA1 PUSH1 0x2B DUP4 PUSH2 0x3824 JUMP JUMPDEST SWAP2 POP PUSH2 0x4FAC DUP3 PUSH2 0x4F45 JUMP JUMPDEST PUSH1 0x40 DUP3 ADD SWAP1 POP SWAP2 SWAP1 POP JUMP JUMPDEST PUSH1 0x0 PUSH1 0x20 DUP3 ADD SWAP1 POP DUP2 DUP2 SUB PUSH1 0x0 DUP4 ADD MSTORE PUSH2 0x4FD0 DUP2 PUSH2 0x4F94 JUMP JUMPDEST SWAP1 POP SWAP2 SWAP1 POP JUMP JUMPDEST PUSH1 0x0 PUSH1 0xA0 DUP3 ADD SWAP1 POP PUSH2 0x4FEC PUSH1 0x0 DUP4 ADD DUP9 PUSH2 0x3AB0 JUMP JUMPDEST PUSH2 0x4FF9 PUSH1 0x20 DUP4 ADD DUP8 PUSH2 0x3AB0 JUMP JUMPDEST PUSH2 0x5006 PUSH1 0x40 DUP4 ADD DUP7 PUSH2 0x3AB0 JUMP JUMPDEST PUSH2 0x5013 PUSH1 0x60 DUP4 ADD DUP6 PUSH2 0x39F2 JUMP JUMPDEST PUSH2 0x5020 PUSH1 0x80 DUP4 ADD DUP5 PUSH2 0x3C98 JUMP JUMPDEST SWAP7 SWAP6 POP POP POP POP POP POP JUMP JUMPDEST PUSH32 0x455243313936373A206E657720696D706C656D656E746174696F6E206973206E PUSH1 0x0 DUP3 ADD MSTORE PUSH32 0x6F74206120636F6E747261637400000000000000000000000000000000000000 PUSH1 0x20 DUP3 ADD MSTORE POP JUMP JUMPDEST PUSH1 0x0 PUSH2 0x5086 PUSH1 0x2D DUP4 PUSH2 0x3824 JUMP JUMPDEST SWAP2 POP PUSH2 0x5091 DUP3 PUSH2 0x502A JUMP JUMPDEST PUSH1 0x40 DUP3 ADD SWAP1 POP SWAP2 SWAP1 POP JUMP JUMPDEST PUSH1 0x0 PUSH1 0x20 DUP3 ADD SWAP1 POP DUP2 DUP2 SUB PUSH1 0x0 DUP4 ADD MSTORE PUSH2 0x50B5 DUP2 PUSH2 0x5079 JUMP JUMPDEST SWAP1 POP SWAP2 SWAP1 POP JUMP JUMPDEST PUSH32 0x4E487B7100000000000000000000000000000000000000000000000000000000 PUSH1 0x0 MSTORE PUSH1 0x12 PUSH1 0x4 MSTORE PUSH1 0x24 PUSH1 0x0 REVERT JUMPDEST PUSH1 0x0 PUSH2 0x50F6 DUP3 PUSH2 0x3946 JUMP JUMPDEST SWAP2 POP PUSH2 0x5101 DUP4 PUSH2 0x3946 JUMP JUMPDEST SWAP3 POP DUP3 PUSH2 0x5111 JUMPI PUSH2 0x5110 PUSH2 0x50BC JUMP JUMPDEST JUMPDEST DUP3 DUP3 DIV SWAP1 POP SWAP3 SWAP2 POP POP JUMP JUMPDEST PUSH32 0x5061757361626C653A206E6F7420706175736564000000000000000000000000 PUSH1 0x0 DUP3 ADD MSTORE POP JUMP JUMPDEST PUSH1 0x0 PUSH2 0x5152 PUSH1 0x14 DUP4 PUSH2 0x3824 JUMP JUMPDEST SWAP2 POP PUSH2 0x515D DUP3 PUSH2 0x511C JUMP JUMPDEST PUSH1 0x20 DUP3 ADD SWAP1 POP SWAP2 SWAP1 POP JUMP JUMPDEST PUSH1 0x0 PUSH1 0x20 DUP3 ADD SWAP1 POP DUP2 DUP2 SUB PUSH1 0x0 DUP4 ADD MSTORE PUSH2 0x5181 DUP2 PUSH2 0x5145 JUMP JUMPDEST SWAP1 POP SWAP2 SWAP1 POP JUMP JUMPDEST PUSH32 0x4552433230566F7465733A20746F74616C20737570706C79207269736B73206F PUSH1 0x0 DUP3 ADD MSTORE PUSH32 0x766572666C6F77696E6720766F74657300000000000000000000000000000000 PUSH1 0x20 DUP3 ADD MSTORE POP JUMP JUMPDEST PUSH1 0x0 PUSH2 0x51E4 PUSH1 0x30 DUP4 PUSH2 0x3824 JUMP JUMPDEST SWAP2 POP PUSH2 0x51EF DUP3 PUSH2 0x5188 JUMP JUMPDEST PUSH1 0x40 DUP3 ADD SWAP1 POP SWAP2 SWAP1 POP JUMP JUMPDEST PUSH1 0x0 PUSH1 0x20 DUP3 ADD SWAP1 POP DUP2 DUP2 SUB PUSH1 0x0 DUP4 ADD MSTORE PUSH2 0x5213 DUP2 PUSH2 0x51D7 JUMP JUMPDEST SWAP1 POP SWAP2 SWAP1 POP JUMP JUMPDEST PUSH1 0x0 PUSH1 0x40 DUP3 ADD SWAP1 POP PUSH2 0x522F PUSH1 0x0 DUP4 ADD DUP6 PUSH2 0x39F2 JUMP JUMPDEST PUSH2 0x523C PUSH1 0x20 DUP4 ADD DUP5 PUSH2 0x39F2 JUMP JUMPDEST SWAP4 SWAP3 POP POP POP JUMP JUMPDEST PUSH32 0x5061757361626C653A2070617573656400000000000000000000000000000000 PUSH1 0x0 DUP3 ADD MSTORE POP JUMP JUMPDEST PUSH1 0x0 PUSH2 0x5279 PUSH1 0x10 DUP4 PUSH2 0x3824 JUMP JUMPDEST SWAP2 POP PUSH2 0x5284 DUP3 PUSH2 0x5243 JUMP JUMPDEST PUSH1 0x20 DUP3 ADD SWAP1 POP SWAP2 SWAP1 POP JUMP JUMPDEST PUSH1 0x0 PUSH1 0x20 DUP3 ADD SWAP1 POP DUP2 DUP2 SUB PUSH1 0x0 DUP4 ADD MSTORE PUSH2 0x52A8 DUP2 PUSH2 0x526C JUMP JUMPDEST SWAP1 POP SWAP2 SWAP1 POP JUMP JUMPDEST PUSH1 0x0 DUP2 SWAP1 POP SWAP3 SWAP2 POP POP JUMP JUMPDEST PUSH32 0x1901000000000000000000000000000000000000000000000000000000000000 PUSH1 0x0 DUP3 ADD MSTORE POP JUMP JUMPDEST PUSH1 0x0 PUSH2 0x52F0 PUSH1 0x2 DUP4 PUSH2 0x52AF JUMP JUMPDEST SWAP2 POP PUSH2 0x52FB DUP3 PUSH2 0x52BA JUMP JUMPDEST PUSH1 0x2 DUP3 ADD SWAP1 POP SWAP2 SWAP1 POP JUMP JUMPDEST PUSH1 0x0 DUP2 SWAP1 POP SWAP2 SWAP1 POP JUMP JUMPDEST PUSH2 0x5321 PUSH2 0x531C DUP3 PUSH2 0x3AA6 JUMP JUMPDEST PUSH2 0x5306 JUMP JUMPDEST DUP3 MSTORE POP POP JUMP JUMPDEST PUSH1 0x0 PUSH2 0x5332 DUP3 PUSH2 0x52E3 JUMP JUMPDEST SWAP2 POP PUSH2 0x533E DUP3 DUP6 PUSH2 0x5310 JUMP JUMPDEST PUSH1 0x20 DUP3 ADD SWAP2 POP PUSH2 0x534E DUP3 DUP5 PUSH2 0x5310 JUMP JUMPDEST PUSH1 0x20 DUP3 ADD SWAP2 POP DUP2 SWAP1 POP SWAP4 SWAP3 POP POP POP JUMP JUMPDEST PUSH1 0x0 PUSH1 0x80 DUP3 ADD SWAP1 POP PUSH2 0x5373 PUSH1 0x0 DUP4 ADD DUP8 PUSH2 0x3AB0 JUMP JUMPDEST PUSH2 0x5380 PUSH1 0x20 DUP4 ADD DUP7 PUSH2 0x3A7C JUMP JUMPDEST PUSH2 0x538D PUSH1 0x40 DUP4 ADD DUP6 PUSH2 0x3AB0 JUMP JUMPDEST PUSH2 0x539A PUSH1 0x60 DUP4 ADD DUP5 PUSH2 0x3AB0 JUMP JUMPDEST SWAP6 SWAP5 POP POP POP POP POP JUMP JUMPDEST PUSH32 0x4E487B7100000000000000000000000000000000000000000000000000000000 PUSH1 0x0 MSTORE PUSH1 0x21 PUSH1 0x4 MSTORE PUSH1 0x24 PUSH1 0x0 REVERT JUMPDEST PUSH32 0x45434453413A20696E76616C6964207369676E61747572650000000000000000 PUSH1 0x0 DUP3 ADD MSTORE POP JUMP JUMPDEST PUSH1 0x0 PUSH2 0x5408 PUSH1 0x18 DUP4 PUSH2 0x3824 JUMP JUMPDEST SWAP2 POP PUSH2 0x5413 DUP3 PUSH2 0x53D2 JUMP JUMPDEST PUSH1 0x20 DUP3 ADD SWAP1 POP SWAP2 SWAP1 POP JUMP JUMPDEST PUSH1 0x0 PUSH1 0x20 DUP3 ADD SWAP1 POP DUP2 DUP2 SUB PUSH1 0x0 DUP4 ADD MSTORE PUSH2 0x5437 DUP2 PUSH2 0x53FB JUMP JUMPDEST SWAP1 POP SWAP2 SWAP1 POP JUMP JUMPDEST PUSH32 0x45434453413A20696E76616C6964207369676E6174757265206C656E67746800 PUSH1 0x0 DUP3 ADD MSTORE POP JUMP JUMPDEST PUSH1 0x0 PUSH2 0x5474 PUSH1 0x1F DUP4 PUSH2 0x3824 JUMP JUMPDEST SWAP2 POP PUSH2 0x547F DUP3 PUSH2 0x543E JUMP JUMPDEST PUSH1 0x20 DUP3 ADD SWAP1 POP SWAP2 SWAP1 POP JUMP JUMPDEST PUSH1 0x0 PUSH1 0x20 DUP3 ADD SWAP1 POP DUP2 DUP2 SUB PUSH1 0x0 DUP4 ADD MSTORE PUSH2 0x54A3 DUP2 PUSH2 0x5467 JUMP JUMPDEST SWAP1 POP SWAP2 SWAP1 POP JUMP JUMPDEST PUSH32 0x45434453413A20696E76616C6964207369676E6174757265202773272076616C PUSH1 0x0 DUP3 ADD MSTORE PUSH32 0x7565000000000000000000000000000000000000000000000000000000000000 PUSH1 0x20 DUP3 ADD MSTORE POP JUMP JUMPDEST PUSH1 0x0 PUSH2 0x5506 PUSH1 0x22 DUP4 PUSH2 0x3824 JUMP JUMPDEST SWAP2 POP PUSH2 0x5511 DUP3 PUSH2 0x54AA JUMP JUMPDEST PUSH1 0x40 DUP3 ADD SWAP1 POP SWAP2 SWAP1 POP JUMP JUMPDEST PUSH1 0x0 PUSH1 0x20 DUP3 ADD SWAP1 POP DUP2 DUP2 SUB PUSH1 0x0 DUP4 ADD MSTORE PUSH2 0x5535 DUP2 PUSH2 0x54F9 JUMP JUMPDEST SWAP1 POP SWAP2 SWAP1 POP JUMP JUMPDEST PUSH32 0x45434453413A20696E76616C6964207369676E6174757265202776272076616C PUSH1 0x0 DUP3 ADD MSTORE PUSH32 0x7565000000000000000000000000000000000000000000000000000000000000 PUSH1 0x20 DUP3 ADD MSTORE POP JUMP JUMPDEST PUSH1 0x0 PUSH2 0x5598 PUSH1 0x22 DUP4 PUSH2 0x3824 JUMP JUMPDEST SWAP2 POP PUSH2 0x55A3 DUP3 PUSH2 0x553C JUMP JUMPDEST PUSH1 0x40 DUP3 ADD SWAP1 POP SWAP2 SWAP1 POP JUMP JUMPDEST PUSH1 0x0 PUSH1 0x20 DUP3 ADD SWAP1 POP DUP2 DUP2 SUB PUSH1 0x0 DUP4 ADD MSTORE PUSH2 0x55C7 DUP2 PUSH2 0x558B JUMP JUMPDEST SWAP1 POP SWAP2 SWAP1 POP JUMP JUMPDEST PUSH32 0x416464726573733A2064656C65676174652063616C6C20746F206E6F6E2D636F PUSH1 0x0 DUP3 ADD MSTORE PUSH32 0x6E74726163740000000000000000000000000000000000000000000000000000 PUSH1 0x20 DUP3 ADD MSTORE POP JUMP JUMPDEST PUSH1 0x0 PUSH2 0x562A PUSH1 0x26 DUP4 PUSH2 0x3824 JUMP JUMPDEST SWAP2 POP PUSH2 0x5635 DUP3 PUSH2 0x55CE JUMP JUMPDEST PUSH1 0x40 DUP3 ADD SWAP1 POP SWAP2 SWAP1 POP JUMP JUMPDEST PUSH1 0x0 PUSH1 0x20 DUP3 ADD SWAP1 POP DUP2 DUP2 SUB PUSH1 0x0 DUP4 ADD MSTORE PUSH2 0x5659 DUP2 PUSH2 0x561D JUMP JUMPDEST SWAP1 POP SWAP2 SWAP1 POP JUMP JUMPDEST PUSH1 0x0 DUP2 MLOAD SWAP1 POP SWAP2 SWAP1 POP JUMP JUMPDEST PUSH1 0x0 DUP2 SWAP1 POP SWAP3 SWAP2 POP POP JUMP JUMPDEST PUSH1 0x0 PUSH2 0x5681 DUP3 PUSH2 0x5660 JUMP JUMPDEST PUSH2 0x568B DUP2 DUP6 PUSH2 0x566B JUMP JUMPDEST SWAP4 POP PUSH2 0x569B DUP2 DUP6 PUSH1 0x20 DUP7 ADD PUSH2 0x3835 JUMP JUMPDEST DUP1 DUP5 ADD SWAP2 POP POP SWAP3 SWAP2 POP POP JUMP JUMPDEST PUSH1 0x0 PUSH2 0x56B3 DUP3 DUP5 PUSH2 0x5676 JUMP JUMPDEST SWAP2 POP DUP2 SWAP1 POP SWAP3 SWAP2 POP POP JUMP JUMPDEST PUSH32 0x45524332303A206D696E7420746F20746865207A65726F206164647265737300 PUSH1 0x0 DUP3 ADD MSTORE POP JUMP JUMPDEST PUSH1 0x0 PUSH2 0x56F4 PUSH1 0x1F DUP4 PUSH2 0x3824 JUMP JUMPDEST SWAP2 POP PUSH2 0x56FF DUP3 PUSH2 0x56BE JUMP JUMPDEST PUSH1 0x20 DUP3 ADD SWAP1 POP SWAP2 SWAP1 POP JUMP JUMPDEST PUSH1 0x0 PUSH1 0x20 DUP3 ADD SWAP1 POP DUP2 DUP2 SUB PUSH1 0x0 DUP4 ADD MSTORE PUSH2 0x5723 DUP2 PUSH2 0x56E7 JUMP JUMPDEST SWAP1 POP SWAP2 SWAP1 POP JUMP JUMPDEST PUSH32 0x53616665436173743A2076616C756520646F65736E27742066697420696E2032 PUSH1 0x0 DUP3 ADD MSTORE PUSH32 0x3234206269747300000000000000000000000000000000000000000000000000 PUSH1 0x20 DUP3 ADD MSTORE POP JUMP JUMPDEST PUSH1 0x0 PUSH2 0x5786 PUSH1 0x27 DUP4 PUSH2 0x3824 JUMP JUMPDEST SWAP2 POP PUSH2 0x5791 DUP3 PUSH2 0x572A JUMP JUMPDEST PUSH1 0x40 DUP3 ADD SWAP1 POP SWAP2 SWAP1 POP JUMP JUMPDEST PUSH1 0x0 PUSH1 0x20 DUP3 ADD SWAP1 POP DUP2 DUP2 SUB PUSH1 0x0 DUP4 ADD MSTORE PUSH2 0x57B5 DUP2 PUSH2 0x5779 JUMP JUMPDEST SWAP1 POP SWAP2 SWAP1 POP JUMP INVALID COINBASE PUSH5 0x6472657373 GASPRICE KECCAK256 PUSH13 0x6F772D6C6576656C2064656C65 PUSH8 0x6174652063616C6C KECCAK256 PUSH7 0x61696C6564A264 PUSH10 0x706673582212207BD224 0xD1 DUP14 0xB0 SWAP9 DUP14 PUSH5 0x7946B316B2 0xEA MUL 0xAA 0xED PUSH20 0xB4F0E79AEEB05BE7E474F29A7464736F6C634300 ADDMOD MULMOD STOP CALLER "},"methodIdentifiers":{"DOMAIN_SEPARATOR()":"3644e515","allowance(address,address)":"dd62ed3e","approve(address,uint256)":"095ea7b3","balanceOf(address)":"70a08231","checkpoints(address,uint32)":"f1127ed8","decimals()":"313ce567","decreaseAllowance(address,uint256)":"a457c2d7","delegate(address)":"5c19a95c","delegateBySig(address,uint256,uint256,uint8,bytes32,bytes32)":"c3cda520","delegates(address)":"587cde1e","getPastTotalSupply(uint256)":"8e539e8c","getPastVotes(address,uint256)":"3a46b1a8","getVotes(address)":"9ab24eb0","increaseAllowance(address,uint256)":"39509351","initialize()":"8129fc1c","mint(address,uint256)":"40c10f19","name()":"06fdde03","nonces(address)":"7ecebe00","numCheckpoints(address)":"6fcfff45","owner()":"8da5cb5b","pause()":"8456cb59","paused()":"5c975abb","permit(address,address,uint256,uint256,uint8,bytes32,bytes32)":"d505accf","proxiableUUID()":"52d1902d","renounceOwnership()":"715018a6","symbol()":"95d89b41","totalSupply()":"18160ddd","transfer(address,uint256)":"a9059cbb","transferFrom(address,address,uint256)":"23b872dd","transferOwnership(address)":"f2fde38b","unpause()":"3f4ba83a","upgradeTo(address)":"3659cfe6","upgradeToAndCall(address,bytes)":"4f1ef286"}},"storageLayout":{"storage":[{"astId":605,"contract":"contracts/VotingToken.sol:VotingToken","label":"_initialized","offset":0,"slot":"0","type":"t_uint8"},{"astId":608,"contract":"contracts/VotingToken.sol:VotingToken","label":"_initializing","offset":1,"slot":"0","type":"t_bool"},{"astId":2894,"contract":"contracts/VotingToken.sol:VotingToken","label":"__gap","offset":0,"slot":"1","type":"t_array(t_uint256)50_storage"},{"astId":1031,"contract":"contracts/VotingToken.sol:VotingToken","label":"_balances","offset":0,"slot":"51","type":"t_mapping(t_address,t_uint256)"},{"astId":1037,"contract":"contracts/VotingToken.sol:VotingToken","label":"_allowances","offset":0,"slot":"52","type":"t_mapping(t_address,t_mapping(t_address,t_uint256))"},{"astId":1039,"contract":"contracts/VotingToken.sol:VotingToken","label":"_totalSupply","offset":0,"slot":"53","type":"t_uint256"},{"astId":1041,"contract":"contracts/VotingToken.sol:VotingToken","label":"_name","offset":0,"slot":"54","type":"t_string_storage"},{"astId":1043,"contract":"contracts/VotingToken.sol:VotingToken","label":"_symbol","offset":0,"slot":"55","type":"t_string_storage"},{"astId":1622,"contract":"contracts/VotingToken.sol:VotingToken","label":"__gap","offset":0,"slot":"56","type":"t_array(t_uint256)45_storage"},{"astId":906,"contract":"contracts/VotingToken.sol:VotingToken","label":"_paused","offset":0,"slot":"101","type":"t_bool"},{"astId":1011,"contract":"contracts/VotingToken.sol:VotingToken","label":"__gap","offset":0,"slot":"102","type":"t_array(t_uint256)49_storage"},{"astId":10,"contract":"contracts/VotingToken.sol:VotingToken","label":"_owner","offset":0,"slot":"151","type":"t_address"},{"astId":130,"contract":"contracts/VotingToken.sol:VotingToken","label":"__gap","offset":0,"slot":"152","type":"t_array(t_uint256)49_storage"},{"astId":3652,"contract":"contracts/VotingToken.sol:VotingToken","label":"_HASHED_NAME","offset":0,"slot":"201","type":"t_bytes32"},{"astId":3654,"contract":"contracts/VotingToken.sol:VotingToken","label":"_HASHED_VERSION","offset":0,"slot":"202","type":"t_bytes32"},{"astId":3792,"contract":"contracts/VotingToken.sol:VotingToken","label":"__gap","offset":0,"slot":"203","type":"t_array(t_uint256)50_storage"},{"astId":2409,"contract":"contracts/VotingToken.sol:VotingToken","label":"_nonces","offset":0,"slot":"253","type":"t_mapping(t_address,t_struct(Counter)2901_storage)"},{"astId":2417,"contract":"contracts/VotingToken.sol:VotingToken","label":"_PERMIT_TYPEHASH_DEPRECATED_SLOT","offset":0,"slot":"254","type":"t_bytes32"},{"astId":2573,"contract":"contracts/VotingToken.sol:VotingToken","label":"__gap","offset":0,"slot":"255","type":"t_array(t_uint256)49_storage"},{"astId":1742,"contract":"contracts/VotingToken.sol:VotingToken","label":"_delegates","offset":0,"slot":"304","type":"t_mapping(t_address,t_address)"},{"astId":1748,"contract":"contracts/VotingToken.sol:VotingToken","label":"_checkpoints","offset":0,"slot":"305","type":"t_mapping(t_address,t_array(t_struct(Checkpoint)1733_storage)dyn_storage)"},{"astId":1752,"contract":"contracts/VotingToken.sol:VotingToken","label":"_totalSupplyCheckpoints","offset":0,"slot":"306","type":"t_array(t_struct(Checkpoint)1733_storage)dyn_storage"},{"astId":2357,"contract":"contracts/VotingToken.sol:VotingToken","label":"__gap","offset":0,"slot":"307","type":"t_array(t_uint256)47_storage"},{"astId":587,"contract":"contracts/VotingToken.sol:VotingToken","label":"__gap","offset":0,"slot":"354","type":"t_array(t_uint256)50_storage"},{"astId":884,"contract":"contracts/VotingToken.sol:VotingToken","label":"__gap","offset":0,"slot":"404","type":"t_array(t_uint256)50_storage"}],"types":{"t_address":{"encoding":"inplace","label":"address","numberOfBytes":"20"},"t_array(t_struct(Checkpoint)1733_storage)dyn_storage":{"base":"t_struct(Checkpoint)1733_storage","encoding":"dynamic_array","label":"struct ERC20VotesUpgradeable.Checkpoint[]","numberOfBytes":"32"},"t_array(t_uint256)45_storage":{"base":"t_uint256","encoding":"inplace","label":"uint256[45]","numberOfBytes":"1440"},"t_array(t_uint256)47_storage":{"base":"t_uint256","encoding":"inplace","label":"uint256[47]","numberOfBytes":"1504"},"t_array(t_uint256)49_storage":{"base":"t_uint256","encoding":"inplace","label":"uint256[49]","numberOfBytes":"1568"},"t_array(t_uint256)50_storage":{"base":"t_uint256","encoding":"inplace","label":"uint256[50]","numberOfBytes":"1600"},"t_bool":{"encoding":"inplace","label":"bool","numberOfBytes":"1"},"t_bytes32":{"encoding":"inplace","label":"bytes32","numberOfBytes":"32"},"t_mapping(t_address,t_address)":{"encoding":"mapping","key":"t_address","label":"mapping(address => address)","numberOfBytes":"32","value":"t_address"},"t_mapping(t_address,t_array(t_struct(Checkpoint)1733_storage)dyn_storage)":{"encoding":"mapping","key":"t_address","label":"mapping(address => struct ERC20VotesUpgradeable.Checkpoint[])","numberOfBytes":"32","value":"t_array(t_struct(Checkpoint)1733_storage)dyn_storage"},"t_mapping(t_address,t_mapping(t_address,t_uint256))":{"encoding":"mapping","key":"t_address","label":"mapping(address => mapping(address => uint256))","numberOfBytes":"32","value":"t_mapping(t_address,t_uint256)"},"t_mapping(t_address,t_struct(Counter)2901_storage)":{"encoding":"mapping","key":"t_address","label":"mapping(address => struct CountersUpgradeable.Counter)","numberOfBytes":"32","value":"t_struct(Counter)2901_storage"},"t_mapping(t_address,t_uint256)":{"encoding":"mapping","key":"t_address","label":"mapping(address => uint256)","numberOfBytes":"32","value":"t_uint256"},"t_string_storage":{"encoding":"bytes","label":"string","numberOfBytes":"32"},"t_struct(Checkpoint)1733_storage":{"encoding":"inplace","label":"struct ERC20VotesUpgradeable.Checkpoint","members":[{"astId":1730,"contract":"contracts/VotingToken.sol:VotingToken","label":"fromBlock","offset":0,"slot":"0","type":"t_uint32"},{"astId":1732,"contract":"contracts/VotingToken.sol:VotingToken","label":"votes","offset":4,"slot":"0","type":"t_uint224"}],"numberOfBytes":"32"},"t_struct(Counter)2901_storage":{"encoding":"inplace","label":"struct CountersUpgradeable.Counter","members":[{"astId":2900,"contract":"contracts/VotingToken.sol:VotingToken","label":"_value","offset":0,"slot":"0","type":"t_uint256"}],"numberOfBytes":"32"},"t_uint224":{"encoding":"inplace","label":"uint224","numberOfBytes":"28"},"t_uint256":{"encoding":"inplace","label":"uint256","numberOfBytes":"32"},"t_uint32":{"encoding":"inplace","label":"uint32","numberOfBytes":"4"},"t_uint8":{"encoding":"inplace","label":"uint8","numberOfBytes":"1"}}}}}}