{
  "_format": "hh-sol-artifact-1",
  "contractName": "VotingToken",
  "sourceName": "contracts/VotingToken.sol",
  "abi": [
    {
      "inputs": [],
      "stateMutability": "nonpayable",
      "type": "constructor"
    },
    {
      "anonymous": false,
      "inputs": [
        {
          "indexed": false,
          "internalType": "address",
          "name": "previousAdmin",
          "type": "address"
        },
        {
          "indexed": false,
          "internalType": "address",
          "name": "newAdmin",
          "type": "address"
        }
      ],
      "name": "AdminChanged",
      "type": "event"
    },
    {
      "anonymous": false,
      "inputs": [
        {
          "indexed": true,
          "internalType": "address",
          "name": "owner",
          "type": "address"
        },
        {
          "indexed": true,
          "internalType": "address",
          "name": "spender",
          "type": "address"
        },
        {
          "indexed": false,
          "internalType": "uint256",
          "name": "value",
          "type": "uint256"
        }
      ],
      "name": "Approval",
      "type": "event"
    },
    {
      "anonymous": false,
      "inputs": [
        {
          "indexed": true,
          "internalType": "address",
          "name": "beacon",
          "type": "address"
        }
      ],
      "name": "BeaconUpgraded",
      "type": "event"
    },
    {
      "anonymous": false,
      "inputs": [
        {
          "indexed": true,
          "internalType": "address",
          "name": "delegator",
          "type": "address"
        },
        {
          "indexed": true,
          "internalType": "address",
          "name": "fromDelegate",
          "type": "address"
        },
        {
          "indexed": true,
          "internalType": "address",
          "name": "toDelegate",
          "type": "address"
        }
      ],
      "name": "DelegateChanged",
      "type": "event"
    },
    {
      "anonymous": false,
      "inputs": [
        {
          "indexed": true,
          "internalType": "address",
          "name": "delegate",
          "type": "address"
        },
        {
          "indexed": false,
          "internalType": "uint256",
          "name": "previousBalance",
          "type": "uint256"
        },
        {
          "indexed": false,
          "internalType": "uint256",
          "name": "newBalance",
          "type": "uint256"
        }
      ],
      "name": "DelegateVotesChanged",
      "type": "event"
    },
    {
      "anonymous": false,
      "inputs": [
        {
          "indexed": false,
          "internalType": "uint8",
          "name": "version",
          "type": "uint8"
        }
      ],
      "name": "Initialized",
      "type": "event"
    },
    {
      "anonymous": false,
      "inputs": [
        {
          "indexed": true,
          "internalType": "address",
          "name": "previousOwner",
          "type": "address"
        },
        {
          "indexed": true,
          "internalType": "address",
          "name": "newOwner",
          "type": "address"
        }
      ],
      "name": "OwnershipTransferred",
      "type": "event"
    },
    {
      "anonymous": false,
      "inputs": [
        {
          "indexed": false,
          "internalType": "address",
          "name": "account",
          "type": "address"
        }
      ],
      "name": "Paused",
      "type": "event"
    },
    {
      "anonymous": false,
      "inputs": [
        {
          "indexed": true,
          "internalType": "address",
          "name": "from",
          "type": "address"
        },
        {
          "indexed": true,
          "internalType": "address",
          "name": "to",
          "type": "address"
        },
        {
          "indexed": false,
          "internalType": "uint256",
          "name": "value",
          "type": "uint256"
        }
      ],
      "name": "Transfer",
      "type": "event"
    },
    {
      "anonymous": false,
      "inputs": [
        {
          "indexed": false,
          "internalType": "address",
          "name": "account",
          "type": "address"
        }
      ],
      "name": "Unpaused",
      "type": "event"
    },
    {
      "anonymous": false,
      "inputs": [
        {
          "indexed": true,
          "internalType": "address",
          "name": "implementation",
          "type": "address"
        }
      ],
      "name": "Upgraded",
      "type": "event"
    },
    {
      "inputs": [],
      "name": "DOMAIN_SEPARATOR",
      "outputs": [
        {
          "internalType": "bytes32",
          "name": "",
          "type": "bytes32"
        }
      ],
      "stateMutability": "view",
      "type": "function"
    },
    {
      "inputs": [
        {
          "internalType": "address",
          "name": "owner",
          "type": "address"
        },
        {
          "internalType": "address",
          "name": "spender",
          "type": "address"
        }
      ],
      "name": "allowance",
      "outputs": [
        {
          "internalType": "uint256",
          "name": "",
          "type": "uint256"
        }
      ],
      "stateMutability": "view",
      "type": "function"
    },
    {
      "inputs": [
        {
          "internalType": "address",
          "name": "spender",
          "type": "address"
        },
        {
          "internalType": "uint256",
          "name": "amount",
          "type": "uint256"
        }
      ],
      "name": "approve",
      "outputs": [
        {
          "internalType": "bool",
          "name": "",
          "type": "bool"
        }
      ],
      "stateMutability": "nonpayable",
      "type": "function"
    },
    {
      "inputs": [
        {
          "internalType": "address",
          "name": "account",
          "type": "address"
        }
      ],
      "name": "balanceOf",
      "outputs": [
        {
          "internalType": "uint256",
          "name": "",
          "type": "uint256"
        }
      ],
      "stateMutability": "view",
      "type": "function"
    },
    {
      "inputs": [
        {
          "internalType": "address",
          "name": "account",
          "type": "address"
        },
        {
          "internalType": "uint32",
          "name": "pos",
          "type": "uint32"
        }
      ],
      "name": "checkpoints",
      "outputs": [
        {
          "components": [
            {
              "internalType": "uint32",
              "name": "fromBlock",
              "type": "uint32"
            },
            {
              "internalType": "uint224",
              "name": "votes",
              "type": "uint224"
            }
          ],
          "internalType": "struct ERC20VotesUpgradeable.Checkpoint",
          "name": "",
          "type": "tuple"
        }
      ],
      "stateMutability": "view",
      "type": "function"
    },
    {
      "inputs": [],
      "name": "decimals",
      "outputs": [
        {
          "internalType": "uint8",
          "name": "",
          "type": "uint8"
        }
      ],
      "stateMutability": "view",
      "type": "function"
    },
    {
      "inputs": [
        {
          "internalType": "address",
          "name": "spender",
          "type": "address"
        },
        {
          "internalType": "uint256",
          "name": "subtractedValue",
          "type": "uint256"
        }
      ],
      "name": "decreaseAllowance",
      "outputs": [
        {
          "internalType": "bool",
          "name": "",
          "type": "bool"
        }
      ],
      "stateMutability": "nonpayable",
      "type": "function"
    },
    {
      "inputs": [
        {
          "internalType": "address",
          "name": "delegatee",
          "type": "address"
        }
      ],
      "name": "delegate",
      "outputs": [],
      "stateMutability": "nonpayable",
      "type": "function"
    },
    {
      "inputs": [
        {
          "internalType": "address",
          "name": "delegatee",
          "type": "address"
        },
        {
          "internalType": "uint256",
          "name": "nonce",
          "type": "uint256"
        },
        {
          "internalType": "uint256",
          "name": "expiry",
          "type": "uint256"
        },
        {
          "internalType": "uint8",
          "name": "v",
          "type": "uint8"
        },
        {
          "internalType": "bytes32",
          "name": "r",
          "type": "bytes32"
        },
        {
          "internalType": "bytes32",
          "name": "s",
          "type": "bytes32"
        }
      ],
      "name": "delegateBySig",
      "outputs": [],
      "stateMutability": "nonpayable",
      "type": "function"
    },
    {
      "inputs": [
        {
          "internalType": "address",
          "name": "account",
          "type": "address"
        }
      ],
      "name": "delegates",
      "outputs": [
        {
          "internalType": "address",
          "name": "",
          "type": "address"
        }
      ],
      "stateMutability": "view",
      "type": "function"
    },
    {
      "inputs": [
        {
          "internalType": "uint256",
          "name": "blockNumber",
          "type": "uint256"
        }
      ],
      "name": "getPastTotalSupply",
      "outputs": [
        {
          "internalType": "uint256",
          "name": "",
          "type": "uint256"
        }
      ],
      "stateMutability": "view",
      "type": "function"
    },
    {
      "inputs": [
        {
          "internalType": "address",
          "name": "account",
          "type": "address"
        },
        {
          "internalType": "uint256",
          "name": "blockNumber",
          "type": "uint256"
        }
      ],
      "name": "getPastVotes",
      "outputs": [
        {
          "internalType": "uint256",
          "name": "",
          "type": "uint256"
        }
      ],
      "stateMutability": "view",
      "type": "function"
    },
    {
      "inputs": [
        {
          "internalType": "address",
          "name": "account",
          "type": "address"
        }
      ],
      "name": "getVotes",
      "outputs": [
        {
          "internalType": "uint256",
          "name": "",
          "type": "uint256"
        }
      ],
      "stateMutability": "view",
      "type": "function"
    },
    {
      "inputs": [
        {
          "internalType": "address",
          "name": "spender",
          "type": "address"
        },
        {
          "internalType": "uint256",
          "name": "addedValue",
          "type": "uint256"
        }
      ],
      "name": "increaseAllowance",
      "outputs": [
        {
          "internalType": "bool",
          "name": "",
          "type": "bool"
        }
      ],
      "stateMutability": "nonpayable",
      "type": "function"
    },
    {
      "inputs": [],
      "name": "initialize",
      "outputs": [],
      "stateMutability": "nonpayable",
      "type": "function"
    },
    {
      "inputs": [
        {
          "internalType": "address",
          "name": "to",
          "type": "address"
        },
        {
          "internalType": "uint256",
          "name": "amount",
          "type": "uint256"
        }
      ],
      "name": "mint",
      "outputs": [],
      "stateMutability": "nonpayable",
      "type": "function"
    },
    {
      "inputs": [],
      "name": "name",
      "outputs": [
        {
          "internalType": "string",
          "name": "",
          "type": "string"
        }
      ],
      "stateMutability": "view",
      "type": "function"
    },
    {
      "inputs": [
        {
          "internalType": "address",
          "name": "owner",
          "type": "address"
        }
      ],
      "name": "nonces",
      "outputs": [
        {
          "internalType": "uint256",
          "name": "",
          "type": "uint256"
        }
      ],
      "stateMutability": "view",
      "type": "function"
    },
    {
      "inputs": [
        {
          "internalType": "address",
          "name": "account",
          "type": "address"
        }
      ],
      "name": "numCheckpoints",
      "outputs": [
        {
          "internalType": "uint32",
          "name": "",
          "type": "uint32"
        }
      ],
      "stateMutability": "view",
      "type": "function"
    },
    {
      "inputs": [],
      "name": "owner",
      "outputs": [
        {
          "internalType": "address",
          "name": "",
          "type": "address"
        }
      ],
      "stateMutability": "view",
      "type": "function"
    },
    {
      "inputs": [],
      "name": "pause",
      "outputs": [],
      "stateMutability": "nonpayable",
      "type": "function"
    },
    {
      "inputs": [],
      "name": "paused",
      "outputs": [
        {
          "internalType": "bool",
          "name": "",
          "type": "bool"
        }
      ],
      "stateMutability": "view",
      "type": "function"
    },
    {
      "inputs": [
        {
          "internalType": "address",
          "name": "owner",
          "type": "address"
        },
        {
          "internalType": "address",
          "name": "spender",
          "type": "address"
        },
        {
          "internalType": "uint256",
          "name": "value",
          "type": "uint256"
        },
        {
          "internalType": "uint256",
          "name": "deadline",
          "type": "uint256"
        },
        {
          "internalType": "uint8",
          "name": "v",
          "type": "uint8"
        },
        {
          "internalType": "bytes32",
          "name": "r",
          "type": "bytes32"
        },
        {
          "internalType": "bytes32",
          "name": "s",
          "type": "bytes32"
        }
      ],
      "name": "permit",
      "outputs": [],
      "stateMutability": "nonpayable",
      "type": "function"
    },
    {
      "inputs": [],
      "name": "proxiableUUID",
      "outputs": [
        {
          "internalType": "bytes32",
          "name": "",
          "type": "bytes32"
        }
      ],
      "stateMutability": "view",
      "type": "function"
    },
    {
      "inputs": [],
      "name": "renounceOwnership",
      "outputs": [],
      "stateMutability": "nonpayable",
      "type": "function"
    },
    {
      "inputs": [],
      "name": "symbol",
      "outputs": [
        {
          "internalType": "string",
          "name": "",
          "type": "string"
        }
      ],
      "stateMutability": "view",
      "type": "function"
    },
    {
      "inputs": [],
      "name": "totalSupply",
      "outputs": [
        {
          "internalType": "uint256",
          "name": "",
          "type": "uint256"
        }
      ],
      "stateMutability": "view",
      "type": "function"
    },
    {
      "inputs": [
        {
          "internalType": "address",
          "name": "to",
          "type": "address"
        },
        {
          "internalType": "uint256",
          "name": "amount",
          "type": "uint256"
        }
      ],
      "name": "transfer",
      "outputs": [
        {
          "internalType": "bool",
          "name": "",
          "type": "bool"
        }
      ],
      "stateMutability": "nonpayable",
      "type": "function"
    },
    {
      "inputs": [
        {
          "internalType": "address",
          "name": "from",
          "type": "address"
        },
        {
          "internalType": "address",
          "name": "to",
          "type": "address"
        },
        {
          "internalType": "uint256",
          "name": "amount",
          "type": "uint256"
        }
      ],
      "name": "transferFrom",
      "outputs": [
        {
          "internalType": "bool",
          "name": "",
          "type": "bool"
        }
      ],
      "stateMutability": "nonpayable",
      "type": "function"
    },
    {
      "inputs": [
        {
          "internalType": "address",
          "name": "newOwner",
          "type": "address"
        }
      ],
      "name": "transferOwnership",
      "outputs": [],
      "stateMutability": "nonpayable",
      "type": "function"
    },
    {
      "inputs": [],
      "name": "unpause",
      "outputs": [],
      "stateMutability": "nonpayable",
      "type": "function"
    },
    {
      "inputs": [
        {
          "internalType": "address",
          "name": "newImplementation",
          "type": "address"
        }
      ],
      "name": "upgradeTo",
      "outputs": [],
      "stateMutability": "nonpayable",
      "type": "function"
    },
    {
      "inputs": [
        {
          "internalType": "address",
          "name": "newImplementation",
          "type": "address"
        },
        {
          "internalType": "bytes",
          "name": "data",
          "type": "bytes"
        }
      ],
      "name": "upgradeToAndCall",
      "outputs": [],
      "stateMutability": "payable",
      "type": "function"
    }
  ],
  "bytecode": "0x60a06040523073ffffffffffffffffffffffffffffffffffffffff1660809073ffffffffffffffffffffffffffffffffffffffff168152503480156200004457600080fd5b50620000556200005b60201b60201c565b62000206565b600060019054906101000a900460ff1615620000ae576040517f08c379a0000000000000000000000000000000000000000000000000000000008152600401620000a590620001a9565b60405180910390fd5b60ff801660008054906101000a900460ff1660ff161015620001205760ff6000806101000a81548160ff021916908360ff1602179055507f7f26b83ff96e1f2b6a682f133852f6798a09c465da95921460cefb384740249860ff604051620001179190620001e9565b60405180910390a15b565b600082825260208201905092915050565b7f496e697469616c697a61626c653a20636f6e747261637420697320696e69746960008201527f616c697a696e6700000000000000000000000000000000000000000000000000602082015250565b60006200019160278362000122565b91506200019e8262000133565b604082019050919050565b60006020820190508181036000830152620001c48162000182565b9050919050565b600060ff82169050919050565b620001e381620001cb565b82525050565b6000602082019050620002006000830184620001d8565b92915050565b6080516158196200023e60003960008181610917015281816109a601528181610b9401528181610c230152610cd301526158196000f3fe6080604052600436106101ee5760003560e01c80636fcfff451161010d57806395d89b41116100a0578063c3cda5201161006f578063c3cda5201461071a578063d505accf14610743578063dd62ed3e1461076c578063f1127ed8146107a9578063f2fde38b146107e6576101ee565b806395d89b41146106385780639ab24eb014610663578063a457c2d7146106a0578063a9059cbb146106dd576101ee565b80638129fc1c116100dc5780638129fc1c146105a25780638456cb59146105b95780638da5cb5b146105d05780638e539e8c146105fb576101ee565b80636fcfff45146104d457806370a0823114610511578063715018a61461054e5780637ecebe0014610565576101ee565b80633a46b1a81161018557806352d1902d1161015457806352d1902d14610418578063587cde1e146104435780635c19a95c146104805780635c975abb146104a9576101ee565b80633a46b1a81461037f5780633f4ba83a146103bc57806340c10f19146103d35780634f1ef286146103fc576101ee565b8063313ce567116101c1578063313ce567146102c35780633644e515146102ee5780633659cfe6146103195780633950935114610342576101ee565b806306fdde03146101f3578063095ea7b31461021e57806318160ddd1461025b57806323b872dd14610286575b600080fd5b3480156101ff57600080fd5b5061020861080f565b60405161021591906138b2565b60405180910390f35b34801561022a57600080fd5b506102456004803603810190610240919061397c565b6108a1565b60405161025291906139d7565b60405180910390f35b34801561026757600080fd5b506102706108c4565b60405161027d9190613a01565b60405180910390f35b34801561029257600080fd5b506102ad60048036038101906102a89190613a1c565b6108ce565b6040516102ba91906139d7565b60405180910390f35b3480156102cf57600080fd5b506102d86108fd565b6040516102e59190613a8b565b60405180910390f35b3480156102fa57600080fd5b50610303610906565b6040516103109190613abf565b60405180910390f35b34801561032557600080fd5b50610340600480360381019061033b9190613ada565b610915565b005b34801561034e57600080fd5b506103696004803603810190610364919061397c565b610a9e565b60405161037691906139d7565b60405180910390f35b34801561038b57600080fd5b506103a660048036038101906103a1919061397c565b610ad5565b6040516103b39190613a01565b60405180910390f35b3480156103c857600080fd5b506103d1610b6a565b005b3480156103df57600080fd5b506103fa60048036038101906103f5919061397c565b610b7c565b005b61041660048036038101906104119190613c3c565b610b92565b005b34801561042457600080fd5b5061042d610ccf565b60405161043a9190613abf565b60405180910390f35b34801561044f57600080fd5b5061046a60048036038101906104659190613ada565b610d88565b6040516104779190613ca7565b60405180910390f35b34801561048c57600080fd5b506104a760048036038101906104a29190613ada565b610df2565b005b3480156104b557600080fd5b506104be610e06565b6040516104cb91906139d7565b60405180910390f35b3480156104e057600080fd5b506104fb60048036038101906104f69190613ada565b610e1d565b6040516105089190613ce1565b60405180910390f35b34801561051d57600080fd5b5061053860048036038101906105339190613ada565b610e72565b6040516105459190613a01565b60405180910390f35b34801561055a57600080fd5b50610563610ebb565b005b34801561057157600080fd5b5061058c60048036038101906105879190613ada565b610ecf565b6040516105999190613a01565b60405180910390f35b3480156105ae57600080fd5b506105b7610f1f565b005b3480156105c557600080fd5b506105ce611152565b005b3480156105dc57600080fd5b506105e5611164565b6040516105f29190613ca7565b60405180910390f35b34801561060757600080fd5b50610622600480360381019061061d9190613cfc565b61118e565b60405161062f9190613a01565b60405180910390f35b34801561064457600080fd5b5061064d6111e5565b60405161065a91906138b2565b60405180910390f35b34801561066f57600080fd5b5061068a60048036038101906106859190613ada565b611277565b6040516106979190613a01565b60405180910390f35b3480156106ac57600080fd5b506106c760048036038101906106c2919061397c565b61138a565b6040516106d491906139d7565b60405180910390f35b3480156106e957600080fd5b5061070460048036038101906106ff919061397c565b611401565b60405161071191906139d7565b60405180910390f35b34801561072657600080fd5b50610741600480360381019061073c9190613d81565b611424565b005b34801561074f57600080fd5b5061076a60048036038101906107659190613e0e565b611528565b005b34801561077857600080fd5b50610793600480360381019061078e9190613eb0565b61166a565b6040516107a09190613a01565b60405180910390f35b3480156107b557600080fd5b506107d060048036038101906107cb9190613f1c565b6116f1565b6040516107dd9190613fd1565b60405180910390f35b3480156107f257600080fd5b5061080d60048036038101906108089190613ada565b611802565b005b60606036805461081e9061401b565b80601f016020809104026020016040519081016040528092919081815260200182805461084a9061401b565b80156108975780601f1061086c57610100808354040283529160200191610897565b820191906000526020600020905b81548152906001019060200180831161087a57829003601f168201915b5050505050905090565b6000806108ac611886565b90506108b981858561188e565b600191505092915050565b6000603554905090565b6000806108d9611886565b90506108e6858285611a59565b6108f1858585611ae5565b60019150509392505050565b60006012905090565b6000610910611d69565b905090565b7f000000000000000000000000000000000000000000000000000000000000000073ffffffffffffffffffffffffffffffffffffffff163073ffffffffffffffffffffffffffffffffffffffff1614156109a4576040517f08c379a000000000000000000000000000000000000000000000000000000000815260040161099b906140bf565b60405180910390fd5b7f000000000000000000000000000000000000000000000000000000000000000073ffffffffffffffffffffffffffffffffffffffff166109e3611da9565b73ffffffffffffffffffffffffffffffffffffffff1614610a39576040517f08c379a0000000000000000000000000000000000000000000000000000000008152600401610a3090614151565b60405180910390fd5b610a4281611e00565b610a9b81600067ffffffffffffffff811115610a6157610a60613b11565b5b6040519080825280601f01601f191660200182016040528015610a935781602001600182028036833780820191505090505b506000611e0b565b50565b600080610aa9611886565b9050610aca818585610abb858961166a565b610ac591906141a0565b61188e565b600191505092915050565b6000438210610b19576040517f08c379a0000000000000000000000000000000000000000000000000000000008152600401610b1090614242565b60405180910390fd5b610b6261013160008573ffffffffffffffffffffffffffffffffffffffff1673ffffffffffffffffffffffffffffffffffffffff16815260200190815260200160002083611f88565b905092915050565b610b72612094565b610b7a612112565b565b610b84612094565b610b8e8282612175565b5050565b7f000000000000000000000000000000000000000000000000000000000000000073ffffffffffffffffffffffffffffffffffffffff163073ffffffffffffffffffffffffffffffffffffffff161415610c21576040517f08c379a0000000000000000000000000000000000000000000000000000000008152600401610c18906140bf565b60405180910390fd5b7f000000000000000000000000000000000000000000000000000000000000000073ffffffffffffffffffffffffffffffffffffffff16610c60611da9565b73ffffffffffffffffffffffffffffffffffffffff1614610cb6576040517f08c379a0000000000000000000000000000000000000000000000000000000008152600401610cad90614151565b60405180910390fd5b610cbf82611e00565b610ccb82826001611e0b565b5050565b60007f000000000000000000000000000000000000000000000000000000000000000073ffffffffffffffffffffffffffffffffffffffff163073ffffffffffffffffffffffffffffffffffffffff1614610d5f576040517f08c379a0000000000000000000000000000000000000000000000000000000008152600401610d56906142d4565b60405180910390fd5b7f360894a13ba1a3210667c828492db98dca3e2076cc3735a920a3ca505d382bbc60001b905090565b600061013060008373ffffffffffffffffffffffffffffffffffffffff1673ffffffffffffffffffffffffffffffffffffffff16815260200190815260200160002060009054906101000a900473ffffffffffffffffffffffffffffffffffffffff169050919050565b610e03610dfd611886565b82612183565b50565b6000606560009054906101000a900460ff16905090565b6000610e6b61013160008473ffffffffffffffffffffffffffffffffffffffff1673ffffffffffffffffffffffffffffffffffffffff1681526020019081526020016000208054905061229e565b9050919050565b6000603360008373ffffffffffffffffffffffffffffffffffffffff1673ffffffffffffffffffffffffffffffffffffffff168152602001908152602001600020549050919050565b610ec3612094565b610ecd60006122f1565b565b6000610f1860fd60008473ffffffffffffffffffffffffffffffffffffffff1673ffffffffffffffffffffffffffffffffffffffff1681526020019081526020016000206123b7565b9050919050565b60008060019054906101000a900460ff16159050808015610f505750600160008054906101000a900460ff1660ff16105b80610f7d5750610f5f306123c5565b158015610f7c5750600160008054906101000a900460ff1660ff16145b5b610fbc576040517f08c379a0000000000000000000000000000000000000000000000000000000008152600401610fb390614366565b60405180910390fd5b60016000806101000a81548160ff021916908360ff1602179055508015610ff9576001600060016101000a81548160ff0219169083151502179055505b61106d6040518060400160405280600b81526020017f566f74696e67546f6b656e0000000000000000000000000000000000000000008152506040518060400160405280600381526020017f564f5400000000000000000000000000000000000000000000000000000000008152506123e8565b611075612445565b61107d61249e565b6110bb6040518060400160405280600b81526020017f566f74696e67546f6b656e0000000000000000000000000000000000000000008152506124f7565b6110c3612588565b6110cb6125d9565b6110f6336110d76108fd565b600a6110e391906144b9565b620f42406110f19190614504565b612175565b801561114f5760008060016101000a81548160ff0219169083151502179055507f7f26b83ff96e1f2b6a682f133852f6798a09c465da95921460cefb3847402498600160405161114691906145a3565b60405180910390a15b50565b61115a612094565b61116261262a565b565b6000609760009054906101000a900473ffffffffffffffffffffffffffffffffffffffff16905090565b60004382106111d2576040517f08c379a00000000000000000000000000000000000000000000000000000000081526004016111c990614242565b60405180910390fd5b6111de61013283611f88565b9050919050565b6060603780546111f49061401b565b80601f01602080910402602001604051908101604052809291908181526020018280546112209061401b565b801561126d5780601f106112425761010080835404028352916020019161126d565b820191906000526020600020905b81548152906001019060200180831161125057829003601f168201915b5050505050905090565b60008061013160008473ffffffffffffffffffffffffffffffffffffffff1673ffffffffffffffffffffffffffffffffffffffff168152602001908152602001600020805490509050600081146113615761013160008473ffffffffffffffffffffffffffffffffffffffff1673ffffffffffffffffffffffffffffffffffffffff16815260200190815260200160002060018261131591906145be565b81548110611326576113256145f2565b5b9060005260206000200160000160049054906101000a90047bffffffffffffffffffffffffffffffffffffffffffffffffffffffff16611364565b60005b7bffffffffffffffffffffffffffffffffffffffffffffffffffffffff16915050919050565b600080611395611886565b905060006113a3828661166a565b9050838110156113e8576040517f08c379a00000000000000000000000000000000000000000000000000000000081526004016113df90614693565b60405180910390fd5b6113f5828686840361188e565b60019250505092915050565b60008061140c611886565b9050611419818585611ae5565b600191505092915050565b83421115611467576040517f08c379a000000000000000000000000000000000000000000000000000000000815260040161145e906146ff565b60405180910390fd5b60006114c96114c17fe48329057bfd03d55e49b547132e39cffd9c1820ad7b9d4c5307691425d15adf8989896040516020016114a6949392919061471f565b6040516020818303038152906040528051906020012061268d565b8585856126a7565b90506114d4816126d2565b8614611515576040517f08c379a000000000000000000000000000000000000000000000000000000000815260040161150c906147b0565b60405180910390fd5b61151f8188612183565b50505050505050565b8342111561156b576040517f08c379a00000000000000000000000000000000000000000000000000000000081526004016115629061481c565b60405180910390fd5b60007f6e71edae12b1b97f4d1f60370fef10105fa2faae0126114a169c64845d6126c988888861159a8c6126d2565b896040516020016115b09695949392919061483c565b60405160208183030381529060405280519060200120905060006115d38261268d565b905060006115e3828787876126a7565b90508973ffffffffffffffffffffffffffffffffffffffff168173ffffffffffffffffffffffffffffffffffffffff1614611653576040517f08c379a000000000000000000000000000000000000000000000000000000000815260040161164a906148e9565b60405180910390fd5b61165e8a8a8a61188e565b50505050505050505050565b6000603460008473ffffffffffffffffffffffffffffffffffffffff1673ffffffffffffffffffffffffffffffffffffffff16815260200190815260200160002060008373ffffffffffffffffffffffffffffffffffffffff1673ffffffffffffffffffffffffffffffffffffffff16815260200190815260200160002054905092915050565b6116f9613738565b61013160008473ffffffffffffffffffffffffffffffffffffffff1673ffffffffffffffffffffffffffffffffffffffff1681526020019081526020016000208263ffffffff1681548110611751576117506145f2565b5b906000526020600020016040518060400160405290816000820160009054906101000a900463ffffffff1663ffffffff1663ffffffff1681526020016000820160049054906101000a90047bffffffffffffffffffffffffffffffffffffffffffffffffffffffff167bffffffffffffffffffffffffffffffffffffffffffffffffffffffff167bffffffffffffffffffffffffffffffffffffffffffffffffffffffff1681525050905092915050565b61180a612094565b600073ffffffffffffffffffffffffffffffffffffffff168173ffffffffffffffffffffffffffffffffffffffff16141561187a576040517f08c379a00000000000000000000000000000000000000000000000000000000081526004016118719061497b565b60405180910390fd5b611883816122f1565b50565b600033905090565b600073ffffffffffffffffffffffffffffffffffffffff168373ffffffffffffffffffffffffffffffffffffffff1614156118fe576040517f08c379a00000000000000000000000000000000000000000000000000000000081526004016118f590614a0d565b60405180910390fd5b600073ffffffffffffffffffffffffffffffffffffffff168273ffffffffffffffffffffffffffffffffffffffff16141561196e576040517f08c379a000000000000000000000000000000000000000000000000000000000815260040161196590614a9f565b60405180910390fd5b80603460008573ffffffffffffffffffffffffffffffffffffffff1673ffffffffffffffffffffffffffffffffffffffff16815260200190815260200160002060008473ffffffffffffffffffffffffffffffffffffffff1673ffffffffffffffffffffffffffffffffffffffff168152602001908152602001600020819055508173ffffffffffffffffffffffffffffffffffffffff168373ffffffffffffffffffffffffffffffffffffffff167f8c5be1e5ebec7d5bd14f71427d1e84f3dd0314c0f7b2291e5b200ac8c7c3b92583604051611a4c9190613a01565b60405180910390a3505050565b6000611a65848461166a565b90507fffffffffffffffffffffffffffffffffffffffffffffffffffffffffffffffff8114611adf5781811015611ad1576040517f08c379a0000000000000000000000000000000000000000000000000000000008152600401611ac890614b0b565b60405180910390fd5b611ade848484840361188e565b5b50505050565b600073ffffffffffffffffffffffffffffffffffffffff168373ffffffffffffffffffffffffffffffffffffffff161415611b55576040517f08c379a0000000000000000000000000000000000000000000000000000000008152600401611b4c90614b9d565b60405180910390fd5b600073ffffffffffffffffffffffffffffffffffffffff168273ffffffffffffffffffffffffffffffffffffffff161415611bc5576040517f08c379a0000000000000000000000000000000000000000000000000000000008152600401611bbc90614c2f565b60405180910390fd5b611bd0838383612730565b6000603360008573ffffffffffffffffffffffffffffffffffffffff1673ffffffffffffffffffffffffffffffffffffffff16815260200190815260200160002054905081811015611c57576040517f08c379a0000000000000000000000000000000000000000000000000000000008152600401611c4e90614cc1565b60405180910390fd5b818103603360008673ffffffffffffffffffffffffffffffffffffffff1673ffffffffffffffffffffffffffffffffffffffff1681526020019081526020016000208190555081603360008573ffffffffffffffffffffffffffffffffffffffff1673ffffffffffffffffffffffffffffffffffffffff1681526020019081526020016000206000828254611cec91906141a0565b925050819055508273ffffffffffffffffffffffffffffffffffffffff168473ffffffffffffffffffffffffffffffffffffffff167fddf252ad1be2c89b69c2b068fc378daa952ba7f163c4a11628f55a4df523b3ef84604051611d509190613a01565b60405180910390a3611d63848484612748565b50505050565b6000611da47f8b73c3c69bb8fe3d512ecc4cf759cc79239f7b179b0ffacaa9a75d522b39400f611d97612758565b611d9f612762565b61276c565b905090565b6000611dd77f360894a13ba1a3210667c828492db98dca3e2076cc3735a920a3ca505d382bbc60001b6127a6565b60000160009054906101000a900473ffffffffffffffffffffffffffffffffffffffff16905090565b611e08612094565b50565b611e377f4910fdfa16fed3260ed0e7147f7cc6da11a60208b5b9406d12a635614ffd914360001b6127b0565b60000160009054906101000a900460ff1615611e5b57611e56836127ba565b611f83565b8273ffffffffffffffffffffffffffffffffffffffff166352d1902d6040518163ffffffff1660e01b815260040160206040518083038186803b158015611ea157600080fd5b505afa925050508015611ed257506040513d601f19601f82011682018060405250810190611ecf9190614cf6565b60015b611f11576040517f08c379a0000000000000000000000000000000000000000000000000000000008152600401611f0890614d95565b60405180910390fd5b7f360894a13ba1a3210667c828492db98dca3e2076cc3735a920a3ca505d382bbc60001b8114611f76576040517f08c379a0000000000000000000000000000000000000000000000000000000008152600401611f6d90614e27565b60405180910390fd5b50611f82838383612873565b5b505050565b6000808380549050905060005b81811015612007576000611fa9828461289f565b905084868281548110611fbf57611fbe6145f2565b5b9060005260206000200160000160009054906101000a900463ffffffff1663ffffffff161115611ff157809250612001565b600181611ffe91906141a0565b91505b50611f95565b60008214612069578460018361201d91906145be565b8154811061202e5761202d6145f2565b5b9060005260206000200160000160049054906101000a90047bffffffffffffffffffffffffffffffffffffffffffffffffffffffff1661206c565b60005b7bffffffffffffffffffffffffffffffffffffffffffffffffffffffff169250505092915050565b61209c611886565b73ffffffffffffffffffffffffffffffffffffffff166120ba611164565b73ffffffffffffffffffffffffffffffffffffffff1614612110576040517f08c379a000000000000000000000000000000000000000000000000000000000815260040161210790614e93565b60405180910390fd5b565b61211a6128c5565b6000606560006101000a81548160ff0219169083151502179055507f5db9ee0a495bf2e6ff9c91a7834c1ba4fdd244a5e8aa4e537bd38aeae4b073aa61215e611886565b60405161216b9190613ca7565b60405180910390a1565b61217f828261290e565b5050565b600061218e83610d88565b9050600061219b84610e72565b90508261013060008673ffffffffffffffffffffffffffffffffffffffff1673ffffffffffffffffffffffffffffffffffffffff16815260200190815260200160002060006101000a81548173ffffffffffffffffffffffffffffffffffffffff021916908373ffffffffffffffffffffffffffffffffffffffff1602179055508273ffffffffffffffffffffffffffffffffffffffff168273ffffffffffffffffffffffffffffffffffffffff168573ffffffffffffffffffffffffffffffffffffffff167f3134e8a2e6d97e929a7e54011ea5485d7d196dd5f0ba4d4ef95803e8e3fc257f60405160405180910390a461229882848361299c565b50505050565b600063ffffffff80168211156122e9576040517f08c379a00000000000000000000000000000000000000000000000000000000081526004016122e090614f25565b60405180910390fd5b819050919050565b6000609760009054906101000a900473ffffffffffffffffffffffffffffffffffffffff16905081609760006101000a81548173ffffffffffffffffffffffffffffffffffffffff021916908373ffffffffffffffffffffffffffffffffffffffff1602179055508173ffffffffffffffffffffffffffffffffffffffff168173ffffffffffffffffffffffffffffffffffffffff167f8be0079c531659141344cd1fd0a4f28419497f9722a3daafe3b4186f6b6457e060405160405180910390a35050565b600081600001549050919050565b6000808273ffffffffffffffffffffffffffffffffffffffff163b119050919050565b600060019054906101000a900460ff16612437576040517f08c379a000000000000000000000000000000000000000000000000000000000815260040161242e90614fb7565b60405180910390fd5b6124418282612b97565b5050565b600060019054906101000a900460ff16612494576040517f08c379a000000000000000000000000000000000000000000000000000000000815260040161248b90614fb7565b60405180910390fd5b61249c612c18565b565b600060019054906101000a900460ff166124ed576040517f08c379a00000000000000000000000000000000000000000000000000000000081526004016124e490614fb7565b60405180910390fd5b6124f5612c84565b565b600060019054906101000a900460ff16612546576040517f08c379a000000000000000000000000000000000000000000000000000000000815260040161253d90614fb7565b60405180910390fd5b612585816040518060400160405280600181526020017f3100000000000000000000000000000000000000000000000000000000000000815250612ce5565b50565b600060019054906101000a900460ff166125d7576040517f08c379a00000000000000000000000000000000000000000000000000000000081526004016125ce90614fb7565b60405180910390fd5b565b600060019054906101000a900460ff16612628576040517f08c379a000000000000000000000000000000000000000000000000000000000815260040161261f90614fb7565b60405180910390fd5b565b612632612d60565b6001606560006101000a81548160ff0219169083151502179055507f62e78cea01bee320cd4e420270b5ea74000d11b0c9f74754ebdbfc544b05a258612676611886565b6040516126839190613ca7565b60405180910390a1565b60006126a061269a611d69565b83612daa565b9050919050565b60008060006126b887878787612ddd565b915091506126c581612eea565b8192505050949350505050565b60008060fd60008473ffffffffffffffffffffffffffffffffffffffff1673ffffffffffffffffffffffffffffffffffffffff168152602001908152602001600020905061271f816123b7565b915061272a816130bf565b50919050565b612738612d60565b6127438383836130d5565b505050565b6127538383836130da565b505050565b600060c954905090565b600060ca54905090565b60008383834630604051602001612787959493929190614fd7565b6040516020818303038152906040528051906020012090509392505050565b6000819050919050565b6000819050919050565b6127c3816123c5565b612802576040517f08c379a00000000000000000000000000000000000000000000000000000000081526004016127f99061509c565b60405180910390fd5b8061282f7f360894a13ba1a3210667c828492db98dca3e2076cc3735a920a3ca505d382bbc60001b6127a6565b60000160006101000a81548173ffffffffffffffffffffffffffffffffffffffff021916908373ffffffffffffffffffffffffffffffffffffffff16021790555050565b61287c83613105565b6000825111806128895750805b1561289a576128988383613154565b505b505050565b600060028284186128b091906150eb565b8284166128bd91906141a0565b905092915050565b6128cd610e06565b61290c576040517f08c379a000000000000000000000000000000000000000000000000000000000815260040161290390615168565b60405180910390fd5b565b6129188282613238565b612920613399565b7bffffffffffffffffffffffffffffffffffffffffffffffffffffffff166129466108c4565b1115612987576040517f08c379a000000000000000000000000000000000000000000000000000000000815260040161297e906151fa565b60405180910390fd5b6129966101326133bd836133d3565b50505050565b8173ffffffffffffffffffffffffffffffffffffffff168373ffffffffffffffffffffffffffffffffffffffff16141580156129d85750600081115b15612b9257600073ffffffffffffffffffffffffffffffffffffffff168373ffffffffffffffffffffffffffffffffffffffff1614612ab757600080612a6061013160008773ffffffffffffffffffffffffffffffffffffffff1673ffffffffffffffffffffffffffffffffffffffff16815260200190815260200160002061364b856133d3565b915091508473ffffffffffffffffffffffffffffffffffffffff167fdec2bacdd2f05b59de34da9b523dff8be42e5e38e818c82fdb0bae774387a7248383604051612aac92919061521a565b60405180910390a250505b600073ffffffffffffffffffffffffffffffffffffffff168273ffffffffffffffffffffffffffffffffffffffff1614612b9157600080612b3a61013160008673ffffffffffffffffffffffffffffffffffffffff1673ffffffffffffffffffffffffffffffffffffffff1681526020019081526020016000206133bd856133d3565b915091508373ffffffffffffffffffffffffffffffffffffffff167fdec2bacdd2f05b59de34da9b523dff8be42e5e38e818c82fdb0bae774387a7248383604051612b8692919061521a565b60405180910390a250505b5b505050565b600060019054906101000a900460ff16612be6576040517f08c379a0000000000000000000000000000000000000000000000000000000008152600401612bdd90614fb7565b60405180910390fd5b8160369080519060200190612bfc929190613776565b508060379080519060200190612c13929190613776565b505050565b600060019054906101000a900460ff16612c67576040517f08c379a0000000000000000000000000000000000000000000000000000000008152600401612c5e90614fb7565b60405180910390fd5b6000606560006101000a81548160ff021916908315150217905550565b600060019054906101000a900460ff16612cd3576040517f08c379a0000000000000000000000000000000000000000000000000000000008152600401612cca90614fb7565b60405180910390fd5b612ce3612cde611886565b6122f1565b565b600060019054906101000a900460ff16612d34576040517f08c379a0000000000000000000000000000000000000000000000000000000008152600401612d2b90614fb7565b60405180910390fd5b6000828051906020012090506000828051906020012090508160c9819055508060ca8190555050505050565b612d68610e06565b15612da8576040517f08c379a0000000000000000000000000000000000000000000000000000000008152600401612d9f9061528f565b60405180910390fd5b565b60008282604051602001612dbf929190615327565b60405160208183030381529060405280519060200120905092915050565b6000807f7fffffffffffffffffffffffffffffff5d576e7357a4501ddfe92f46681b20a08360001c1115612e18576000600391509150612ee1565b601b8560ff1614158015612e305750601c8560ff1614155b15612e42576000600491509150612ee1565b600060018787878760405160008152602001604052604051612e67949392919061535e565b6020604051602081039080840390855afa158015612e89573d6000803e3d6000fd5b505050602060405103519050600073ffffffffffffffffffffffffffffffffffffffff168173ffffffffffffffffffffffffffffffffffffffff161415612ed857600060019250925050612ee1565b80600092509250505b94509492505050565b60006004811115612efe57612efd6153a3565b5b816004811115612f1157612f106153a3565b5b1415612f1c576130bc565b60016004811115612f3057612f2f6153a3565b5b816004811115612f4357612f426153a3565b5b1415612f84576040517f08c379a0000000000000000000000000000000000000000000000000000000008152600401612f7b9061541e565b60405180910390fd5b60026004811115612f9857612f976153a3565b5b816004811115612fab57612faa6153a3565b5b1415612fec576040517f08c379a0000000000000000000000000000000000000000000000000000000008152600401612fe39061548a565b60405180910390fd5b6003600481111561300057612fff6153a3565b5b816004811115613013576130126153a3565b5b1415613054576040517f08c379a000000000000000000000000000000000000000000000000000000000815260040161304b9061551c565b60405180910390fd5b600480811115613067576130666153a3565b5b81600481111561307a576130796153a3565b5b14156130bb576040517f08c379a00000000000000000000000000000000000000000000000000000000081526004016130b2906155ae565b60405180910390fd5b5b50565b6001816000016000828254019250508190555050565b505050565b6130e5838383613661565b6131006130f184610d88565b6130fa84610d88565b8361299c565b505050565b61310e816127ba565b8073ffffffffffffffffffffffffffffffffffffffff167fbc7cd75a20ee27fd9adebab32041f755214dbc6bffa90cc0225b39da2e5c2d3b60405160405180910390a250565b606061315f836123c5565b61319e576040517f08c379a000000000000000000000000000000000000000000000000000000000815260040161319590615640565b60405180910390fd5b6000808473ffffffffffffffffffffffffffffffffffffffff16846040516131c691906156a7565b600060405180830381855af49150503d8060008114613201576040519150601f19603f3d011682016040523d82523d6000602084013e613206565b606091505b509150915061322e82826040518060600160405280602781526020016157bd60279139613666565b9250505092915050565b600073ffffffffffffffffffffffffffffffffffffffff168273ffffffffffffffffffffffffffffffffffffffff1614156132a8576040517f08c379a000000000000000000000000000000000000000000000000000000000815260040161329f9061570a565b60405180910390fd5b6132b460008383612730565b80603560008282546132c691906141a0565b9250508190555080603360008473ffffffffffffffffffffffffffffffffffffffff1673ffffffffffffffffffffffffffffffffffffffff168152602001908152602001600020600082825461331c91906141a0565b925050819055508173ffffffffffffffffffffffffffffffffffffffff16600073ffffffffffffffffffffffffffffffffffffffff167fddf252ad1be2c89b69c2b068fc378daa952ba7f163c4a11628f55a4df523b3ef836040516133819190613a01565b60405180910390a361339560008383612748565b5050565b60007bffffffffffffffffffffffffffffffffffffffffffffffffffffffff905090565b600081836133cb91906141a0565b905092915050565b6000806000858054905090506000811461344157856001826133f591906145be565b81548110613406576134056145f2565b5b9060005260206000200160000160049054906101000a90047bffffffffffffffffffffffffffffffffffffffffffffffffffffffff16613444565b60005b7bffffffffffffffffffffffffffffffffffffffffffffffffffffffff16925061347283858763ffffffff16565b91506000811180156134c55750438660018361348e91906145be565b8154811061349f5761349e6145f2565b5b9060005260206000200160000160009054906101000a900463ffffffff1663ffffffff16145b15613552576134d3826136cd565b866001836134e191906145be565b815481106134f2576134f16145f2565b5b9060005260206000200160000160046101000a8154817bffffffffffffffffffffffffffffffffffffffffffffffffffffffff02191690837bffffffffffffffffffffffffffffffffffffffffffffffffffffffff160217905550613642565b8560405180604001604052806135674361229e565b63ffffffff16815260200161357b856136cd565b7bffffffffffffffffffffffffffffffffffffffffffffffffffffffff168152509080600181540180825580915050600190039060005260206000200160009091909190915060008201518160000160006101000a81548163ffffffff021916908363ffffffff16021790555060208201518160000160046101000a8154817bffffffffffffffffffffffffffffffffffffffffffffffffffffffff02191690837bffffffffffffffffffffffffffffffffffffffffffffffffffffffff16021790555050505b50935093915050565b6000818361365991906145be565b905092915050565b505050565b60608315613676578290506136c6565b6000835111156136895782518084602001fd5b816040517f08c379a00000000000000000000000000000000000000000000000000000000081526004016136bd91906138b2565b60405180910390fd5b9392505050565b60007bffffffffffffffffffffffffffffffffffffffffffffffffffffffff8016821115613730576040517f08c379a00000000000000000000000000000000000000000000000000000000081526004016137279061579c565b60405180910390fd5b819050919050565b6040518060400160405280600063ffffffff16815260200160007bffffffffffffffffffffffffffffffffffffffffffffffffffffffff1681525090565b8280546137829061401b565b90600052602060002090601f0160209004810192826137a457600085556137eb565b82601f106137bd57805160ff19168380011785556137eb565b828001600101855582156137eb579182015b828111156137ea5782518255916020019190600101906137cf565b5b5090506137f891906137fc565b5090565b5b808211156138155760008160009055506001016137fd565b5090565b600081519050919050565b600082825260208201905092915050565b60005b83811015613853578082015181840152602081019050613838565b83811115613862576000848401525b50505050565b6000601f19601f8301169050919050565b600061388482613819565b61388e8185613824565b935061389e818560208601613835565b6138a781613868565b840191505092915050565b600060208201905081810360008301526138cc8184613879565b905092915050565b6000604051905090565b600080fd5b600080fd5b600073ffffffffffffffffffffffffffffffffffffffff82169050919050565b6000613913826138e8565b9050919050565b61392381613908565b811461392e57600080fd5b50565b6000813590506139408161391a565b92915050565b6000819050919050565b61395981613946565b811461396457600080fd5b50565b60008135905061397681613950565b92915050565b60008060408385031215613993576139926138de565b5b60006139a185828601613931565b92505060206139b285828601613967565b9150509250929050565b60008115159050919050565b6139d1816139bc565b82525050565b60006020820190506139ec60008301846139c8565b92915050565b6139fb81613946565b82525050565b6000602082019050613a1660008301846139f2565b92915050565b600080600060608486031215613a3557613a346138de565b5b6000613a4386828701613931565b9350506020613a5486828701613931565b9250506040613a6586828701613967565b9150509250925092565b600060ff82169050919050565b613a8581613a6f565b82525050565b6000602082019050613aa06000830184613a7c565b92915050565b6000819050919050565b613ab981613aa6565b82525050565b6000602082019050613ad46000830184613ab0565b92915050565b600060208284031215613af057613aef6138de565b5b6000613afe84828501613931565b91505092915050565b600080fd5b600080fd5b7f4e487b7100000000000000000000000000000000000000000000000000000000600052604160045260246000fd5b613b4982613868565b810181811067ffffffffffffffff82111715613b6857613b67613b11565b5b80604052505050565b6000613b7b6138d4565b9050613b878282613b40565b919050565b600067ffffffffffffffff821115613ba757613ba6613b11565b5b613bb082613868565b9050602081019050919050565b82818337600083830152505050565b6000613bdf613bda84613b8c565b613b71565b905082815260208101848484011115613bfb57613bfa613b0c565b5b613c06848285613bbd565b509392505050565b600082601f830112613c2357613c22613b07565b5b8135613c33848260208601613bcc565b91505092915050565b60008060408385031215613c5357613c526138de565b5b6000613c6185828601613931565b925050602083013567ffffffffffffffff811115613c8257613c816138e3565b5b613c8e85828601613c0e565b9150509250929050565b613ca181613908565b82525050565b6000602082019050613cbc6000830184613c98565b92915050565b600063ffffffff82169050919050565b613cdb81613cc2565b82525050565b6000602082019050613cf66000830184613cd2565b92915050565b600060208284031215613d1257613d116138de565b5b6000613d2084828501613967565b91505092915050565b613d3281613a6f565b8114613d3d57600080fd5b50565b600081359050613d4f81613d29565b92915050565b613d5e81613aa6565b8114613d6957600080fd5b50565b600081359050613d7b81613d55565b92915050565b60008060008060008060c08789031215613d9e57613d9d6138de565b5b6000613dac89828a01613931565b9650506020613dbd89828a01613967565b9550506040613dce89828a01613967565b9450506060613ddf89828a01613d40565b9350506080613df089828a01613d6c565b92505060a0613e0189828a01613d6c565b9150509295509295509295565b600080600080600080600060e0888a031215613e2d57613e2c6138de565b5b6000613e3b8a828b01613931565b9750506020613e4c8a828b01613931565b9650506040613e5d8a828b01613967565b9550506060613e6e8a828b01613967565b9450506080613e7f8a828b01613d40565b93505060a0613e908a828b01613d6c565b92505060c0613ea18a828b01613d6c565b91505092959891949750929550565b60008060408385031215613ec757613ec66138de565b5b6000613ed585828601613931565b9250506020613ee685828601613931565b9150509250929050565b613ef981613cc2565b8114613f0457600080fd5b50565b600081359050613f1681613ef0565b92915050565b60008060408385031215613f3357613f326138de565b5b6000613f4185828601613931565b9250506020613f5285828601613f07565b9150509250929050565b613f6581613cc2565b82525050565b60007bffffffffffffffffffffffffffffffffffffffffffffffffffffffff82169050919050565b613f9c81613f6b565b82525050565b604082016000820151613fb86000850182613f5c565b506020820151613fcb6020850182613f93565b50505050565b6000604082019050613fe66000830184613fa2565b92915050565b7f4e487b7100000000000000000000000000000000000000000000000000000000600052602260045260246000fd5b6000600282049050600182168061403357607f821691505b6020821081141561404757614046613fec565b5b50919050565b7f46756e6374696f6e206d7573742062652063616c6c6564207468726f7567682060008201527f64656c656761746563616c6c0000000000000000000000000000000000000000602082015250565b60006140a9602c83613824565b91506140b48261404d565b604082019050919050565b600060208201905081810360008301526140d88161409c565b9050919050565b7f46756e6374696f6e206d7573742062652063616c6c6564207468726f7567682060008201527f6163746976652070726f78790000000000000000000000000000000000000000602082015250565b600061413b602c83613824565b9150614146826140df565b604082019050919050565b6000602082019050818103600083015261416a8161412e565b9050919050565b7f4e487b7100000000000000000000000000000000000000000000000000000000600052601160045260246000fd5b60006141ab82613946565b91506141b683613946565b9250827fffffffffffffffffffffffffffffffffffffffffffffffffffffffffffffffff038211156141eb576141ea614171565b5b828201905092915050565b7f4552433230566f7465733a20626c6f636b206e6f7420796574206d696e656400600082015250565b600061422c601f83613824565b9150614237826141f6565b602082019050919050565b6000602082019050818103600083015261425b8161421f565b9050919050565b7f555550535570677261646561626c653a206d757374206e6f742062652063616c60008201527f6c6564207468726f7567682064656c656761746563616c6c0000000000000000602082015250565b60006142be603883613824565b91506142c982614262565b604082019050919050565b600060208201905081810360008301526142ed816142b1565b9050919050565b7f496e697469616c697a61626c653a20636f6e747261637420697320616c72656160008201527f647920696e697469616c697a6564000000000000000000000000000000000000602082015250565b6000614350602e83613824565b915061435b826142f4565b604082019050919050565b6000602082019050818103600083015261437f81614343565b9050919050565b60008160011c9050919050565b6000808291508390505b60018511156143dd578086048111156143b9576143b8614171565b5b60018516156143c85780820291505b80810290506143d685614386565b945061439d565b94509492505050565b6000826143f657600190506144b2565b8161440457600090506144b2565b816001811461441a576002811461442457614453565b60019150506144b2565b60ff84111561443657614435614171565b5b8360020a91508482111561444d5761444c614171565b5b506144b2565b5060208310610133831016604e8410600b84101617156144885782820a90508381111561448357614482614171565b5b6144b2565b6144958484846001614393565b925090508184048111156144ac576144ab614171565b5b81810290505b9392505050565b60006144c482613946565b91506144cf83613a6f565b92506144fc7fffffffffffffffffffffffffffffffffffffffffffffffffffffffffffffffff84846143e6565b905092915050565b600061450f82613946565b915061451a83613946565b9250817fffffffffffffffffffffffffffffffffffffffffffffffffffffffffffffffff048311821515161561455357614552614171565b5b828202905092915050565b6000819050919050565b6000819050919050565b600061458d6145886145838461455e565b614568565b613a6f565b9050919050565b61459d81614572565b82525050565b60006020820190506145b86000830184614594565b92915050565b60006145c982613946565b91506145d483613946565b9250828210156145e7576145e6614171565b5b828203905092915050565b7f4e487b7100000000000000000000000000000000000000000000000000000000600052603260045260246000fd5b7f45524332303a2064656372656173656420616c6c6f77616e63652062656c6f7760008201527f207a65726f000000000000000000000000000000000000000000000000000000602082015250565b600061467d602583613824565b915061468882614621565b604082019050919050565b600060208201905081810360008301526146ac81614670565b9050919050565b7f4552433230566f7465733a207369676e61747572652065787069726564000000600082015250565b60006146e9601d83613824565b91506146f4826146b3565b602082019050919050565b60006020820190508181036000830152614718816146dc565b9050919050565b60006080820190506147346000830187613ab0565b6147416020830186613c98565b61474e60408301856139f2565b61475b60608301846139f2565b95945050505050565b7f4552433230566f7465733a20696e76616c6964206e6f6e636500000000000000600082015250565b600061479a601983613824565b91506147a582614764565b602082019050919050565b600060208201905081810360008301526147c98161478d565b9050919050565b7f45524332305065726d69743a206578706972656420646561646c696e65000000600082015250565b6000614806601d83613824565b9150614811826147d0565b602082019050919050565b60006020820190508181036000830152614835816147f9565b9050919050565b600060c0820190506148516000830189613ab0565b61485e6020830188613c98565b61486b6040830187613c98565b61487860608301866139f2565b61488560808301856139f2565b61489260a08301846139f2565b979650505050505050565b7f45524332305065726d69743a20696e76616c6964207369676e61747572650000600082015250565b60006148d3601e83613824565b91506148de8261489d565b602082019050919050565b60006020820190508181036000830152614902816148c6565b9050919050565b7f4f776e61626c653a206e6577206f776e657220697320746865207a65726f206160008201527f6464726573730000000000000000000000000000000000000000000000000000602082015250565b6000614965602683613824565b915061497082614909565b604082019050919050565b6000602082019050818103600083015261499481614958565b9050919050565b7f45524332303a20617070726f76652066726f6d20746865207a65726f2061646460008201527f7265737300000000000000000000000000000000000000000000000000000000602082015250565b60006149f7602483613824565b9150614a028261499b565b604082019050919050565b60006020820190508181036000830152614a26816149ea565b9050919050565b7f45524332303a20617070726f766520746f20746865207a65726f20616464726560008201527f7373000000000000000000000000000000000000000000000000000000000000602082015250565b6000614a89602283613824565b9150614a9482614a2d565b604082019050919050565b60006020820190508181036000830152614ab881614a7c565b9050919050565b7f45524332303a20696e73756666696369656e7420616c6c6f77616e6365000000600082015250565b6000614af5601d83613824565b9150614b0082614abf565b602082019050919050565b60006020820190508181036000830152614b2481614ae8565b9050919050565b7f45524332303a207472616e736665722066726f6d20746865207a65726f20616460008201527f6472657373000000000000000000000000000000000000000000000000000000602082015250565b6000614b87602583613824565b9150614b9282614b2b565b604082019050919050565b60006020820190508181036000830152614bb681614b7a565b9050919050565b7f45524332303a207472616e7366657220746f20746865207a65726f206164647260008201527f6573730000000000000000000000000000000000000000000000000000000000602082015250565b6000614c19602383613824565b9150614c2482614bbd565b604082019050919050565b60006020820190508181036000830152614c4881614c0c565b9050919050565b7f45524332303a207472616e7366657220616d6f756e742065786365656473206260008201527f616c616e63650000000000000000000000000000000000000000000000000000602082015250565b6000614cab602683613824565b9150614cb682614c4f565b604082019050919050565b60006020820190508181036000830152614cda81614c9e565b9050919050565b600081519050614cf081613d55565b92915050565b600060208284031215614d0c57614d0b6138de565b5b6000614d1a84828501614ce1565b91505092915050565b7f45524331393637557067726164653a206e657720696d706c656d656e7461746960008201527f6f6e206973206e6f742055555053000000000000000000000000000000000000602082015250565b6000614d7f602e83613824565b9150614d8a82614d23565b604082019050919050565b60006020820190508181036000830152614dae81614d72565b9050919050565b7f45524331393637557067726164653a20756e737570706f727465642070726f7860008201527f6961626c65555549440000000000000000000000000000000000000000000000602082015250565b6000614e11602983613824565b9150614e1c82614db5565b604082019050919050565b60006020820190508181036000830152614e4081614e04565b9050919050565b7f4f776e61626c653a2063616c6c6572206973206e6f7420746865206f776e6572600082015250565b6000614e7d602083613824565b9150614e8882614e47565b602082019050919050565b60006020820190508181036000830152614eac81614e70565b9050919050565b7f53616665436173743a2076616c756520646f65736e27742066697420696e203360008201527f3220626974730000000000000000000000000000000000000000000000000000602082015250565b6000614f0f602683613824565b9150614f1a82614eb3565b604082019050919050565b60006020820190508181036000830152614f3e81614f02565b9050919050565b7f496e697469616c697a61626c653a20636f6e7472616374206973206e6f74206960008201527f6e697469616c697a696e67000000000000000000000000000000000000000000602082015250565b6000614fa1602b83613824565b9150614fac82614f45565b604082019050919050565b60006020820190508181036000830152614fd081614f94565b9050919050565b600060a082019050614fec6000830188613ab0565b614ff96020830187613ab0565b6150066040830186613ab0565b61501360608301856139f2565b6150206080830184613c98565b9695505050505050565b7f455243313936373a206e657720696d706c656d656e746174696f6e206973206e60008201527f6f74206120636f6e747261637400000000000000000000000000000000000000602082015250565b6000615086602d83613824565b91506150918261502a565b604082019050919050565b600060208201905081810360008301526150b581615079565b9050919050565b7f4e487b7100000000000000000000000000000000000000000000000000000000600052601260045260246000fd5b60006150f682613946565b915061510183613946565b925082615111576151106150bc565b5b828204905092915050565b7f5061757361626c653a206e6f7420706175736564000000000000000000000000600082015250565b6000615152601483613824565b915061515d8261511c565b602082019050919050565b6000602082019050818103600083015261518181615145565b9050919050565b7f4552433230566f7465733a20746f74616c20737570706c79207269736b73206f60008201527f766572666c6f77696e6720766f74657300000000000000000000000000000000602082015250565b60006151e4603083613824565b91506151ef82615188565b604082019050919050565b60006020820190508181036000830152615213816151d7565b9050919050565b600060408201905061522f60008301856139f2565b61523c60208301846139f2565b9392505050565b7f5061757361626c653a2070617573656400000000000000000000000000000000600082015250565b6000615279601083613824565b915061528482615243565b602082019050919050565b600060208201905081810360008301526152a88161526c565b9050919050565b600081905092915050565b7f1901000000000000000000000000000000000000000000000000000000000000600082015250565b60006152f06002836152af565b91506152fb826152ba565b600282019050919050565b6000819050919050565b61532161531c82613aa6565b615306565b82525050565b6000615332826152e3565b915061533e8285615310565b60208201915061534e8284615310565b6020820191508190509392505050565b60006080820190506153736000830187613ab0565b6153806020830186613a7c565b61538d6040830185613ab0565b61539a6060830184613ab0565b95945050505050565b7f4e487b7100000000000000000000000000000000000000000000000000000000600052602160045260246000fd5b7f45434453413a20696e76616c6964207369676e61747572650000000000000000600082015250565b6000615408601883613824565b9150615413826153d2565b602082019050919050565b60006020820190508181036000830152615437816153fb565b9050919050565b7f45434453413a20696e76616c6964207369676e6174757265206c656e67746800600082015250565b6000615474601f83613824565b915061547f8261543e565b602082019050919050565b600060208201905081810360008301526154a381615467565b9050919050565b7f45434453413a20696e76616c6964207369676e6174757265202773272076616c60008201527f7565000000000000000000000000000000000000000000000000000000000000602082015250565b6000615506602283613824565b9150615511826154aa565b604082019050919050565b60006020820190508181036000830152615535816154f9565b9050919050565b7f45434453413a20696e76616c6964207369676e6174757265202776272076616c60008201527f7565000000000000000000000000000000000000000000000000000000000000602082015250565b6000615598602283613824565b91506155a38261553c565b604082019050919050565b600060208201905081810360008301526155c78161558b565b9050919050565b7f416464726573733a2064656c65676174652063616c6c20746f206e6f6e2d636f60008201527f6e74726163740000000000000000000000000000000000000000000000000000602082015250565b600061562a602683613824565b9150615635826155ce565b604082019050919050565b600060208201905081810360008301526156598161561d565b9050919050565b600081519050919050565b600081905092915050565b600061568182615660565b61568b818561566b565b935061569b818560208601613835565b80840191505092915050565b60006156b38284615676565b915081905092915050565b7f45524332303a206d696e7420746f20746865207a65726f206164647265737300600082015250565b60006156f4601f83613824565b91506156ff826156be565b602082019050919050565b60006020820190508181036000830152615723816156e7565b9050919050565b7f53616665436173743a2076616c756520646f65736e27742066697420696e203260008201527f3234206269747300000000000000000000000000000000000000000000000000602082015250565b6000615786602783613824565b91506157918261572a565b604082019050919050565b600060208201905081810360008301526157b581615779565b905091905056fe416464726573733a206c6f772d6c6576656c2064656c65676174652063616c6c206661696c6564a26469706673582212207bd224d18db0988d647946b316b2ea02aaed73b4f0e79aeeb05be7e474f29a7464736f6c63430008090033",
  "linkReferences": {},
  "deployedLinkReferences": {}
}