{
  "_format": "hh-sol-artifact-1",
  "contractName": "VotingTokenV2",
  "sourceName": "contracts/VotingTokenV2.sol",
  "abi": [
    {
      "anonymous": false,
      "inputs": [
        {
          "indexed": false,
          "internalType": "address",
          "name": "previousAdmin",
          "type": "address"
        },
        {
          "indexed": false,
          "internalType": "address",
          "name": "newAdmin",
          "type": "address"
        }
      ],
      "name": "AdminChanged",
      "type": "event"
    },
    {
      "anonymous": false,
      "inputs": [
        {
          "indexed": true,
          "internalType": "address",
          "name": "owner",
          "type": "address"
        },
        {
          "indexed": true,
          "internalType": "address",
          "name": "spender",
          "type": "address"
        },
        {
          "indexed": false,
          "internalType": "uint256",
          "name": "value",
          "type": "uint256"
        }
      ],
      "name": "Approval",
      "type": "event"
    },
    {
      "anonymous": false,
      "inputs": [
        {
          "indexed": true,
          "internalType": "address",
          "name": "beacon",
          "type": "address"
        }
      ],
      "name": "BeaconUpgraded",
      "type": "event"
    },
    {
      "anonymous": false,
      "inputs": [
        {
          "indexed": true,
          "internalType": "address",
          "name": "delegator",
          "type": "address"
        },
        {
          "indexed": true,
          "internalType": "address",
          "name": "fromDelegate",
          "type": "address"
        },
        {
          "indexed": true,
          "internalType": "address",
          "name": "toDelegate",
          "type": "address"
        }
      ],
      "name": "DelegateChanged",
      "type": "event"
    },
    {
      "anonymous": false,
      "inputs": [
        {
          "indexed": true,
          "internalType": "address",
          "name": "delegate",
          "type": "address"
        },
        {
          "indexed": false,
          "internalType": "uint256",
          "name": "previousBalance",
          "type": "uint256"
        },
        {
          "indexed": false,
          "internalType": "uint256",
          "name": "newBalance",
          "type": "uint256"
        }
      ],
      "name": "DelegateVotesChanged",
      "type": "event"
    },
    {
      "anonymous": false,
      "inputs": [
        {
          "indexed": false,
          "internalType": "uint8",
          "name": "version",
          "type": "uint8"
        }
      ],
      "name": "Initialized",
      "type": "event"
    },
    {
      "anonymous": false,
      "inputs": [
        {
          "indexed": true,
          "internalType": "address",
          "name": "previousOwner",
          "type": "address"
        },
        {
          "indexed": true,
          "internalType": "address",
          "name": "newOwner",
          "type": "address"
        }
      ],
      "name": "OwnershipTransferred",
      "type": "event"
    },
    {
      "anonymous": false,
      "inputs": [
        {
          "indexed": false,
          "internalType": "address",
          "name": "account",
          "type": "address"
        }
      ],
      "name": "Paused",
      "type": "event"
    },
    {
      "anonymous": false,
      "inputs": [
        {
          "indexed": true,
          "internalType": "address",
          "name": "from",
          "type": "address"
        },
        {
          "indexed": true,
          "internalType": "address",
          "name": "to",
          "type": "address"
        },
        {
          "indexed": false,
          "internalType": "uint256",
          "name": "value",
          "type": "uint256"
        }
      ],
      "name": "Transfer",
      "type": "event"
    },
    {
      "anonymous": false,
      "inputs": [
        {
          "indexed": false,
          "internalType": "address",
          "name": "account",
          "type": "address"
        }
      ],
      "name": "Unpaused",
      "type": "event"
    },
    {
      "anonymous": false,
      "inputs": [
        {
          "indexed": true,
          "internalType": "address",
          "name": "implementation",
          "type": "address"
        }
      ],
      "name": "Upgraded",
      "type": "event"
    },
    {
      "inputs": [],
      "name": "DOMAIN_SEPARATOR",
      "outputs": [
        {
          "internalType": "bytes32",
          "name": "",
          "type": "bytes32"
        }
      ],
      "stateMutability": "view",
      "type": "function"
    },
    {
      "inputs": [
        {
          "internalType": "address",
          "name": "owner",
          "type": "address"
        },
        {
          "internalType": "address",
          "name": "spender",
          "type": "address"
        }
      ],
      "name": "allowance",
      "outputs": [
        {
          "internalType": "uint256",
          "name": "",
          "type": "uint256"
        }
      ],
      "stateMutability": "view",
      "type": "function"
    },
    {
      "inputs": [
        {
          "internalType": "address",
          "name": "spender",
          "type": "address"
        },
        {
          "internalType": "uint256",
          "name": "amount",
          "type": "uint256"
        }
      ],
      "name": "approve",
      "outputs": [
        {
          "internalType": "bool",
          "name": "",
          "type": "bool"
        }
      ],
      "stateMutability": "nonpayable",
      "type": "function"
    },
    {
      "inputs": [
        {
          "internalType": "address",
          "name": "account",
          "type": "address"
        }
      ],
      "name": "balanceOf",
      "outputs": [
        {
          "internalType": "uint256",
          "name": "",
          "type": "uint256"
        }
      ],
      "stateMutability": "view",
      "type": "function"
    },
    {
      "inputs": [
        {
          "internalType": "address",
          "name": "account",
          "type": "address"
        },
        {
          "internalType": "uint32",
          "name": "pos",
          "type": "uint32"
        }
      ],
      "name": "checkpoints",
      "outputs": [
        {
          "components": [
            {
              "internalType": "uint32",
              "name": "fromBlock",
              "type": "uint32"
            },
            {
              "internalType": "uint224",
              "name": "votes",
              "type": "uint224"
            }
          ],
          "internalType": "struct ERC20VotesUpgradeable.Checkpoint",
          "name": "",
          "type": "tuple"
        }
      ],
      "stateMutability": "view",
      "type": "function"
    },
    {
      "inputs": [],
      "name": "decimals",
      "outputs": [
        {
          "internalType": "uint8",
          "name": "",
          "type": "uint8"
        }
      ],
      "stateMutability": "view",
      "type": "function"
    },
    {
      "inputs": [
        {
          "internalType": "address",
          "name": "spender",
          "type": "address"
        },
        {
          "internalType": "uint256",
          "name": "subtractedValue",
          "type": "uint256"
        }
      ],
      "name": "decreaseAllowance",
      "outputs": [
        {
          "internalType": "bool",
          "name": "",
          "type": "bool"
        }
      ],
      "stateMutability": "nonpayable",
      "type": "function"
    },
    {
      "inputs": [
        {
          "internalType": "address",
          "name": "delegatee",
          "type": "address"
        }
      ],
      "name": "delegate",
      "outputs": [],
      "stateMutability": "nonpayable",
      "type": "function"
    },
    {
      "inputs": [
        {
          "internalType": "address",
          "name": "delegatee",
          "type": "address"
        },
        {
          "internalType": "uint256",
          "name": "nonce",
          "type": "uint256"
        },
        {
          "internalType": "uint256",
          "name": "expiry",
          "type": "uint256"
        },
        {
          "internalType": "uint8",
          "name": "v",
          "type": "uint8"
        },
        {
          "internalType": "bytes32",
          "name": "r",
          "type": "bytes32"
        },
        {
          "internalType": "bytes32",
          "name": "s",
          "type": "bytes32"
        }
      ],
      "name": "delegateBySig",
      "outputs": [],
      "stateMutability": "nonpayable",
      "type": "function"
    },
    {
      "inputs": [
        {
          "internalType": "address",
          "name": "account",
          "type": "address"
        }
      ],
      "name": "delegates",
      "outputs": [
        {
          "internalType": "address",
          "name": "",
          "type": "address"
        }
      ],
      "stateMutability": "view",
      "type": "function"
    },
    {
      "inputs": [
        {
          "internalType": "uint256",
          "name": "blockNumber",
          "type": "uint256"
        }
      ],
      "name": "getPastTotalSupply",
      "outputs": [
        {
          "internalType": "uint256",
          "name": "",
          "type": "uint256"
        }
      ],
      "stateMutability": "view",
      "type": "function"
    },
    {
      "inputs": [
        {
          "internalType": "address",
          "name": "account",
          "type": "address"
        },
        {
          "internalType": "uint256",
          "name": "blockNumber",
          "type": "uint256"
        }
      ],
      "name": "getPastVotes",
      "outputs": [
        {
          "internalType": "uint256",
          "name": "",
          "type": "uint256"
        }
      ],
      "stateMutability": "view",
      "type": "function"
    },
    {
      "inputs": [],
      "name": "getVersion",
      "outputs": [
        {
          "internalType": "uint256",
          "name": "",
          "type": "uint256"
        }
      ],
      "stateMutability": "pure",
      "type": "function"
    },
    {
      "inputs": [
        {
          "internalType": "address",
          "name": "account",
          "type": "address"
        }
      ],
      "name": "getVotes",
      "outputs": [
        {
          "internalType": "uint256",
          "name": "",
          "type": "uint256"
        }
      ],
      "stateMutability": "view",
      "type": "function"
    },
    {
      "inputs": [
        {
          "internalType": "address",
          "name": "spender",
          "type": "address"
        },
        {
          "internalType": "uint256",
          "name": "addedValue",
          "type": "uint256"
        }
      ],
      "name": "increaseAllowance",
      "outputs": [
        {
          "internalType": "bool",
          "name": "",
          "type": "bool"
        }
      ],
      "stateMutability": "nonpayable",
      "type": "function"
    },
    {
      "inputs": [],
      "name": "initialize",
      "outputs": [],
      "stateMutability": "nonpayable",
      "type": "function"
    },
    {
      "inputs": [
        {
          "internalType": "address",
          "name": "to",
          "type": "address"
        },
        {
          "internalType": "uint256",
          "name": "amount",
          "type": "uint256"
        }
      ],
      "name": "mint",
      "outputs": [],
      "stateMutability": "nonpayable",
      "type": "function"
    },
    {
      "inputs": [],
      "name": "name",
      "outputs": [
        {
          "internalType": "string",
          "name": "",
          "type": "string"
        }
      ],
      "stateMutability": "view",
      "type": "function"
    },
    {
      "inputs": [
        {
          "internalType": "address",
          "name": "owner",
          "type": "address"
        }
      ],
      "name": "nonces",
      "outputs": [
        {
          "internalType": "uint256",
          "name": "",
          "type": "uint256"
        }
      ],
      "stateMutability": "view",
      "type": "function"
    },
    {
      "inputs": [
        {
          "internalType": "address",
          "name": "account",
          "type": "address"
        }
      ],
      "name": "numCheckpoints",
      "outputs": [
        {
          "internalType": "uint32",
          "name": "",
          "type": "uint32"
        }
      ],
      "stateMutability": "view",
      "type": "function"
    },
    {
      "inputs": [],
      "name": "owner",
      "outputs": [
        {
          "internalType": "address",
          "name": "",
          "type": "address"
        }
      ],
      "stateMutability": "view",
      "type": "function"
    },
    {
      "inputs": [],
      "name": "pause",
      "outputs": [],
      "stateMutability": "nonpayable",
      "type": "function"
    },
    {
      "inputs": [],
      "name": "paused",
      "outputs": [
        {
          "internalType": "bool",
          "name": "",
          "type": "bool"
        }
      ],
      "stateMutability": "view",
      "type": "function"
    },
    {
      "inputs": [
        {
          "internalType": "address",
          "name": "owner",
          "type": "address"
        },
        {
          "internalType": "address",
          "name": "spender",
          "type": "address"
        },
        {
          "internalType": "uint256",
          "name": "value",
          "type": "uint256"
        },
        {
          "internalType": "uint256",
          "name": "deadline",
          "type": "uint256"
        },
        {
          "internalType": "uint8",
          "name": "v",
          "type": "uint8"
        },
        {
          "internalType": "bytes32",
          "name": "r",
          "type": "bytes32"
        },
        {
          "internalType": "bytes32",
          "name": "s",
          "type": "bytes32"
        }
      ],
      "name": "permit",
      "outputs": [],
      "stateMutability": "nonpayable",
      "type": "function"
    },
    {
      "inputs": [],
      "name": "proxiableUUID",
      "outputs": [
        {
          "internalType": "bytes32",
          "name": "",
          "type": "bytes32"
        }
      ],
      "stateMutability": "view",
      "type": "function"
    },
    {
      "inputs": [],
      "name": "renounceOwnership",
      "outputs": [],
      "stateMutability": "nonpayable",
      "type": "function"
    },
    {
      "inputs": [],
      "name": "symbol",
      "outputs": [
        {
          "internalType": "string",
          "name": "",
          "type": "string"
        }
      ],
      "stateMutability": "view",
      "type": "function"
    },
    {
      "inputs": [],
      "name": "totalSupply",
      "outputs": [
        {
          "internalType": "uint256",
          "name": "",
          "type": "uint256"
        }
      ],
      "stateMutability": "view",
      "type": "function"
    },
    {
      "inputs": [
        {
          "internalType": "address",
          "name": "to",
          "type": "address"
        },
        {
          "internalType": "uint256",
          "name": "amount",
          "type": "uint256"
        }
      ],
      "name": "transfer",
      "outputs": [
        {
          "internalType": "bool",
          "name": "",
          "type": "bool"
        }
      ],
      "stateMutability": "nonpayable",
      "type": "function"
    },
    {
      "inputs": [
        {
          "internalType": "address",
          "name": "from",
          "type": "address"
        },
        {
          "internalType": "address",
          "name": "to",
          "type": "address"
        },
        {
          "internalType": "uint256",
          "name": "amount",
          "type": "uint256"
        }
      ],
      "name": "transferFrom",
      "outputs": [
        {
          "internalType": "bool",
          "name": "",
          "type": "bool"
        }
      ],
      "stateMutability": "nonpayable",
      "type": "function"
    },
    {
      "inputs": [
        {
          "internalType": "address",
          "name": "newOwner",
          "type": "address"
        }
      ],
      "name": "transferOwnership",
      "outputs": [],
      "stateMutability": "nonpayable",
      "type": "function"
    },
    {
      "inputs": [],
      "name": "unpause",
      "outputs": [],
      "stateMutability": "nonpayable",
      "type": "function"
    },
    {
      "inputs": [
        {
          "internalType": "address",
          "name": "newImplementation",
          "type": "address"
        }
      ],
      "name": "upgradeTo",
      "outputs": [],
      "stateMutability": "nonpayable",
      "type": "function"
    },
    {
      "inputs": [
        {
          "internalType": "address",
          "name": "newImplementation",
          "type": "address"
        },
        {
          "internalType": "bytes",
          "name": "data",
          "type": "bytes"
        }
      ],
      "name": "upgradeToAndCall",
      "outputs": [],
      "stateMutability": "payable",
      "type": "function"
    }
  ],
  "bytecode": "0x60a06040523073ffffffffffffffffffffffffffffffffffffffff1660809073ffffffffffffffffffffffffffffffffffffffff168152503480156200004457600080fd5b50620000556200005b60201b60201c565b62000206565b600060019054906101000a900460ff1615620000ae576040517f08c379a0000000000000000000000000000000000000000000000000000000008152600401620000a590620001a9565b60405180910390fd5b60ff801660008054906101000a900460ff1660ff161015620001205760ff6000806101000a81548160ff021916908360ff1602179055507f7f26b83ff96e1f2b6a682f133852f6798a09c465da95921460cefb384740249860ff604051620001179190620001e9565b60405180910390a15b565b600082825260208201905092915050565b7f496e697469616c697a61626c653a20636f6e747261637420697320696e69746960008201527f616c697a696e6700000000000000000000000000000000000000000000000000602082015250565b60006200019160278362000122565b91506200019e8262000133565b604082019050919050565b60006020820190508181036000830152620001c48162000182565b9050919050565b600060ff82169050919050565b620001e381620001cb565b82525050565b6000602082019050620002006000830184620001d8565b92915050565b6080516156556200023e60003960008181610956015281816109e501528181610bd301528181610c620152610d1201526156556000f3fe6080604052600436106101f95760003560e01c80636fcfff451161010d57806395d89b41116100a0578063c3cda5201161006f578063c3cda52014610750578063d505accf14610779578063dd62ed3e146107a2578063f1127ed8146107df578063f2fde38b1461081c576101f9565b806395d89b411461066e5780639ab24eb014610699578063a457c2d7146106d6578063a9059cbb14610713576101f9565b80638129fc1c116100dc5780638129fc1c146105d85780638456cb59146105ef5780638da5cb5b146106065780638e539e8c14610631576101f9565b80636fcfff451461050a57806370a0823114610547578063715018a6146105845780637ecebe001461059b576101f9565b806339509351116101905780634f1ef2861161015f5780634f1ef2861461043257806352d1902d1461044e578063587cde1e146104795780635c19a95c146104b65780635c975abb146104df576101f9565b806339509351146103785780633a46b1a8146103b55780633f4ba83a146103f257806340c10f1914610409576101f9565b806323b872dd116101cc57806323b872dd146102bc578063313ce567146102f95780633644e515146103245780633659cfe61461034f576101f9565b806306fdde03146101fe578063095ea7b3146102295780630d8e6e2c1461026657806318160ddd14610291575b600080fd5b34801561020a57600080fd5b50610213610845565b60405161022091906138c6565b60405180910390f35b34801561023557600080fd5b50610250600480360381019061024b9190613990565b6108d7565b60405161025d91906139eb565b60405180910390f35b34801561027257600080fd5b5061027b6108fa565b6040516102889190613a15565b60405180910390f35b34801561029d57600080fd5b506102a6610903565b6040516102b39190613a15565b60405180910390f35b3480156102c857600080fd5b506102e360048036038101906102de9190613a30565b61090d565b6040516102f091906139eb565b60405180910390f35b34801561030557600080fd5b5061030e61093c565b60405161031b9190613a9f565b60405180910390f35b34801561033057600080fd5b50610339610945565b6040516103469190613ad3565b60405180910390f35b34801561035b57600080fd5b5061037660048036038101906103719190613aee565b610954565b005b34801561038457600080fd5b5061039f600480360381019061039a9190613990565b610add565b6040516103ac91906139eb565b60405180910390f35b3480156103c157600080fd5b506103dc60048036038101906103d79190613990565b610b14565b6040516103e99190613a15565b60405180910390f35b3480156103fe57600080fd5b50610407610ba9565b005b34801561041557600080fd5b50610430600480360381019061042b9190613990565b610bbb565b005b61044c60048036038101906104479190613c50565b610bd1565b005b34801561045a57600080fd5b50610463610d0e565b6040516104709190613ad3565b60405180910390f35b34801561048557600080fd5b506104a0600480360381019061049b9190613aee565b610dc7565b6040516104ad9190613cbb565b60405180910390f35b3480156104c257600080fd5b506104dd60048036038101906104d89190613aee565b610e31565b005b3480156104eb57600080fd5b506104f4610e45565b60405161050191906139eb565b60405180910390f35b34801561051657600080fd5b50610531600480360381019061052c9190613aee565b610e5c565b60405161053e9190613cf5565b60405180910390f35b34801561055357600080fd5b5061056e60048036038101906105699190613aee565b610eb1565b60405161057b9190613a15565b60405180910390f35b34801561059057600080fd5b50610599610efa565b005b3480156105a757600080fd5b506105c260048036038101906105bd9190613aee565b610f0e565b6040516105cf9190613a15565b60405180910390f35b3480156105e457600080fd5b506105ed610f5e565b005b3480156105fb57600080fd5b50610604611166565b005b34801561061257600080fd5b5061061b611178565b6040516106289190613cbb565b60405180910390f35b34801561063d57600080fd5b5061065860048036038101906106539190613d10565b6111a2565b6040516106659190613a15565b60405180910390f35b34801561067a57600080fd5b506106836111f9565b60405161069091906138c6565b60405180910390f35b3480156106a557600080fd5b506106c060048036038101906106bb9190613aee565b61128b565b6040516106cd9190613a15565b60405180910390f35b3480156106e257600080fd5b506106fd60048036038101906106f89190613990565b61139e565b60405161070a91906139eb565b60405180910390f35b34801561071f57600080fd5b5061073a60048036038101906107359190613990565b611415565b60405161074791906139eb565b60405180910390f35b34801561075c57600080fd5b5061077760048036038101906107729190613d95565b611438565b005b34801561078557600080fd5b506107a0600480360381019061079b9190613e22565b61153c565b005b3480156107ae57600080fd5b506107c960048036038101906107c49190613ec4565b61167e565b6040516107d69190613a15565b60405180910390f35b3480156107eb57600080fd5b5061080660048036038101906108019190613f30565b611705565b6040516108139190613fe5565b60405180910390f35b34801561082857600080fd5b50610843600480360381019061083e9190613aee565b611816565b005b6060603680546108549061402f565b80601f01602080910402602001604051908101604052809291908181526020018280546108809061402f565b80156108cd5780601f106108a2576101008083540402835291602001916108cd565b820191906000526020600020905b8154815290600101906020018083116108b057829003601f168201915b5050505050905090565b6000806108e261189a565b90506108ef8185856118a2565b600191505092915050565b60006002905090565b6000603554905090565b60008061091861189a565b9050610925858285611a6d565b610930858585611af9565b60019150509392505050565b60006012905090565b600061094f611d7d565b905090565b7f000000000000000000000000000000000000000000000000000000000000000073ffffffffffffffffffffffffffffffffffffffff163073ffffffffffffffffffffffffffffffffffffffff1614156109e3576040517f08c379a00000000000000000000000000000000000000000000000000000000081526004016109da906140d3565b60405180910390fd5b7f000000000000000000000000000000000000000000000000000000000000000073ffffffffffffffffffffffffffffffffffffffff16610a22611dbd565b73ffffffffffffffffffffffffffffffffffffffff1614610a78576040517f08c379a0000000000000000000000000000000000000000000000000000000008152600401610a6f90614165565b60405180910390fd5b610a8181611e14565b610ada81600067ffffffffffffffff811115610aa057610a9f613b25565b5b6040519080825280601f01601f191660200182016040528015610ad25781602001600182028036833780820191505090505b506000611e1f565b50565b600080610ae861189a565b9050610b09818585610afa858961167e565b610b0491906141b4565b6118a2565b600191505092915050565b6000438210610b58576040517f08c379a0000000000000000000000000000000000000000000000000000000008152600401610b4f90614256565b60405180910390fd5b610ba161013160008573ffffffffffffffffffffffffffffffffffffffff1673ffffffffffffffffffffffffffffffffffffffff16815260200190815260200160002083611f9c565b905092915050565b610bb16120a8565b610bb9612126565b565b610bc36120a8565b610bcd8282612189565b5050565b7f000000000000000000000000000000000000000000000000000000000000000073ffffffffffffffffffffffffffffffffffffffff163073ffffffffffffffffffffffffffffffffffffffff161415610c60576040517f08c379a0000000000000000000000000000000000000000000000000000000008152600401610c57906140d3565b60405180910390fd5b7f000000000000000000000000000000000000000000000000000000000000000073ffffffffffffffffffffffffffffffffffffffff16610c9f611dbd565b73ffffffffffffffffffffffffffffffffffffffff1614610cf5576040517f08c379a0000000000000000000000000000000000000000000000000000000008152600401610cec90614165565b60405180910390fd5b610cfe82611e14565b610d0a82826001611e1f565b5050565b60007f000000000000000000000000000000000000000000000000000000000000000073ffffffffffffffffffffffffffffffffffffffff163073ffffffffffffffffffffffffffffffffffffffff1614610d9e576040517f08c379a0000000000000000000000000000000000000000000000000000000008152600401610d95906142e8565b60405180910390fd5b7f360894a13ba1a3210667c828492db98dca3e2076cc3735a920a3ca505d382bbc60001b905090565b600061013060008373ffffffffffffffffffffffffffffffffffffffff1673ffffffffffffffffffffffffffffffffffffffff16815260200190815260200160002060009054906101000a900473ffffffffffffffffffffffffffffffffffffffff169050919050565b610e42610e3c61189a565b82612197565b50565b6000606560009054906101000a900460ff16905090565b6000610eaa61013160008473ffffffffffffffffffffffffffffffffffffffff1673ffffffffffffffffffffffffffffffffffffffff168152602001908152602001600020805490506122b2565b9050919050565b6000603360008373ffffffffffffffffffffffffffffffffffffffff1673ffffffffffffffffffffffffffffffffffffffff168152602001908152602001600020549050919050565b610f026120a8565b610f0c6000612305565b565b6000610f5760fd60008473ffffffffffffffffffffffffffffffffffffffff1673ffffffffffffffffffffffffffffffffffffffff1681526020019081526020016000206123cb565b9050919050565b60008060019054906101000a900460ff16159050808015610f8f5750600160008054906101000a900460ff1660ff16105b80610fbc5750610f9e306123d9565b158015610fbb5750600160008054906101000a900460ff1660ff16145b5b610ffb576040517f08c379a0000000000000000000000000000000000000000000000000000000008152600401610ff29061437a565b60405180910390fd5b60016000806101000a81548160ff021916908360ff1602179055508015611038576001600060016101000a81548160ff0219169083151502179055505b6110ac6040518060400160405280600b81526020017f566f74696e67546f6b656e0000000000000000000000000000000000000000008152506040518060400160405280600381526020017f564f5400000000000000000000000000000000000000000000000000000000008152506123fc565b6110b4612459565b6110bc6124b2565b6110fa6040518060400160405280600b81526020017f566f74696e67546f6b656e00000000000000000000000000000000000000000081525061250b565b61110261259c565b61110a6125ed565b80156111635760008060016101000a81548160ff0219169083151502179055507f7f26b83ff96e1f2b6a682f133852f6798a09c465da95921460cefb3847402498600160405161115a91906143df565b60405180910390a15b50565b61116e6120a8565b61117661263e565b565b6000609760009054906101000a900473ffffffffffffffffffffffffffffffffffffffff16905090565b60004382106111e6576040517f08c379a00000000000000000000000000000000000000000000000000000000081526004016111dd90614256565b60405180910390fd5b6111f261013283611f9c565b9050919050565b6060603780546112089061402f565b80601f01602080910402602001604051908101604052809291908181526020018280546112349061402f565b80156112815780601f1061125657610100808354040283529160200191611281565b820191906000526020600020905b81548152906001019060200180831161126457829003601f168201915b5050505050905090565b60008061013160008473ffffffffffffffffffffffffffffffffffffffff1673ffffffffffffffffffffffffffffffffffffffff168152602001908152602001600020805490509050600081146113755761013160008473ffffffffffffffffffffffffffffffffffffffff1673ffffffffffffffffffffffffffffffffffffffff16815260200190815260200160002060018261132991906143fa565b8154811061133a5761133961442e565b5b9060005260206000200160000160049054906101000a90047bffffffffffffffffffffffffffffffffffffffffffffffffffffffff16611378565b60005b7bffffffffffffffffffffffffffffffffffffffffffffffffffffffff16915050919050565b6000806113a961189a565b905060006113b7828661167e565b9050838110156113fc576040517f08c379a00000000000000000000000000000000000000000000000000000000081526004016113f3906144cf565b60405180910390fd5b61140982868684036118a2565b60019250505092915050565b60008061142061189a565b905061142d818585611af9565b600191505092915050565b8342111561147b576040517f08c379a00000000000000000000000000000000000000000000000000000000081526004016114729061453b565b60405180910390fd5b60006114dd6114d57fe48329057bfd03d55e49b547132e39cffd9c1820ad7b9d4c5307691425d15adf8989896040516020016114ba949392919061455b565b604051602081830303815290604052805190602001206126a1565b8585856126bb565b90506114e8816126e6565b8614611529576040517f08c379a0000000000000000000000000000000000000000000000000000000008152600401611520906145ec565b60405180910390fd5b6115338188612197565b50505050505050565b8342111561157f576040517f08c379a000000000000000000000000000000000000000000000000000000000815260040161157690614658565b60405180910390fd5b60007f6e71edae12b1b97f4d1f60370fef10105fa2faae0126114a169c64845d6126c98888886115ae8c6126e6565b896040516020016115c496959493929190614678565b60405160208183030381529060405280519060200120905060006115e7826126a1565b905060006115f7828787876126bb565b90508973ffffffffffffffffffffffffffffffffffffffff168173ffffffffffffffffffffffffffffffffffffffff1614611667576040517f08c379a000000000000000000000000000000000000000000000000000000000815260040161165e90614725565b60405180910390fd5b6116728a8a8a6118a2565b50505050505050505050565b6000603460008473ffffffffffffffffffffffffffffffffffffffff1673ffffffffffffffffffffffffffffffffffffffff16815260200190815260200160002060008373ffffffffffffffffffffffffffffffffffffffff1673ffffffffffffffffffffffffffffffffffffffff16815260200190815260200160002054905092915050565b61170d61374c565b61013160008473ffffffffffffffffffffffffffffffffffffffff1673ffffffffffffffffffffffffffffffffffffffff1681526020019081526020016000208263ffffffff16815481106117655761176461442e565b5b906000526020600020016040518060400160405290816000820160009054906101000a900463ffffffff1663ffffffff1663ffffffff1681526020016000820160049054906101000a90047bffffffffffffffffffffffffffffffffffffffffffffffffffffffff167bffffffffffffffffffffffffffffffffffffffffffffffffffffffff167bffffffffffffffffffffffffffffffffffffffffffffffffffffffff1681525050905092915050565b61181e6120a8565b600073ffffffffffffffffffffffffffffffffffffffff168173ffffffffffffffffffffffffffffffffffffffff16141561188e576040517f08c379a0000000000000000000000000000000000000000000000000000000008152600401611885906147b7565b60405180910390fd5b61189781612305565b50565b600033905090565b600073ffffffffffffffffffffffffffffffffffffffff168373ffffffffffffffffffffffffffffffffffffffff161415611912576040517f08c379a000000000000000000000000000000000000000000000000000000000815260040161190990614849565b60405180910390fd5b600073ffffffffffffffffffffffffffffffffffffffff168273ffffffffffffffffffffffffffffffffffffffff161415611982576040517f08c379a0000000000000000000000000000000000000000000000000000000008152600401611979906148db565b60405180910390fd5b80603460008573ffffffffffffffffffffffffffffffffffffffff1673ffffffffffffffffffffffffffffffffffffffff16815260200190815260200160002060008473ffffffffffffffffffffffffffffffffffffffff1673ffffffffffffffffffffffffffffffffffffffff168152602001908152602001600020819055508173ffffffffffffffffffffffffffffffffffffffff168373ffffffffffffffffffffffffffffffffffffffff167f8c5be1e5ebec7d5bd14f71427d1e84f3dd0314c0f7b2291e5b200ac8c7c3b92583604051611a609190613a15565b60405180910390a3505050565b6000611a79848461167e565b90507fffffffffffffffffffffffffffffffffffffffffffffffffffffffffffffffff8114611af35781811015611ae5576040517f08c379a0000000000000000000000000000000000000000000000000000000008152600401611adc90614947565b60405180910390fd5b611af284848484036118a2565b5b50505050565b600073ffffffffffffffffffffffffffffffffffffffff168373ffffffffffffffffffffffffffffffffffffffff161415611b69576040517f08c379a0000000000000000000000000000000000000000000000000000000008152600401611b60906149d9565b60405180910390fd5b600073ffffffffffffffffffffffffffffffffffffffff168273ffffffffffffffffffffffffffffffffffffffff161415611bd9576040517f08c379a0000000000000000000000000000000000000000000000000000000008152600401611bd090614a6b565b60405180910390fd5b611be4838383612744565b6000603360008573ffffffffffffffffffffffffffffffffffffffff1673ffffffffffffffffffffffffffffffffffffffff16815260200190815260200160002054905081811015611c6b576040517f08c379a0000000000000000000000000000000000000000000000000000000008152600401611c6290614afd565b60405180910390fd5b818103603360008673ffffffffffffffffffffffffffffffffffffffff1673ffffffffffffffffffffffffffffffffffffffff1681526020019081526020016000208190555081603360008573ffffffffffffffffffffffffffffffffffffffff1673ffffffffffffffffffffffffffffffffffffffff1681526020019081526020016000206000828254611d0091906141b4565b925050819055508273ffffffffffffffffffffffffffffffffffffffff168473ffffffffffffffffffffffffffffffffffffffff167fddf252ad1be2c89b69c2b068fc378daa952ba7f163c4a11628f55a4df523b3ef84604051611d649190613a15565b60405180910390a3611d7784848461275c565b50505050565b6000611db87f8b73c3c69bb8fe3d512ecc4cf759cc79239f7b179b0ffacaa9a75d522b39400f611dab61276c565b611db3612776565b612780565b905090565b6000611deb7f360894a13ba1a3210667c828492db98dca3e2076cc3735a920a3ca505d382bbc60001b6127ba565b60000160009054906101000a900473ffffffffffffffffffffffffffffffffffffffff16905090565b611e1c6120a8565b50565b611e4b7f4910fdfa16fed3260ed0e7147f7cc6da11a60208b5b9406d12a635614ffd914360001b6127c4565b60000160009054906101000a900460ff1615611e6f57611e6a836127ce565b611f97565b8273ffffffffffffffffffffffffffffffffffffffff166352d1902d6040518163ffffffff1660e01b815260040160206040518083038186803b158015611eb557600080fd5b505afa925050508015611ee657506040513d601f19601f82011682018060405250810190611ee39190614b32565b60015b611f25576040517f08c379a0000000000000000000000000000000000000000000000000000000008152600401611f1c90614bd1565b60405180910390fd5b7f360894a13ba1a3210667c828492db98dca3e2076cc3735a920a3ca505d382bbc60001b8114611f8a576040517f08c379a0000000000000000000000000000000000000000000000000000000008152600401611f8190614c63565b60405180910390fd5b50611f96838383612887565b5b505050565b6000808380549050905060005b8181101561201b576000611fbd82846128b3565b905084868281548110611fd357611fd261442e565b5b9060005260206000200160000160009054906101000a900463ffffffff1663ffffffff16111561200557809250612015565b60018161201291906141b4565b91505b50611fa9565b6000821461207d578460018361203191906143fa565b815481106120425761204161442e565b5b9060005260206000200160000160049054906101000a90047bffffffffffffffffffffffffffffffffffffffffffffffffffffffff16612080565b60005b7bffffffffffffffffffffffffffffffffffffffffffffffffffffffff169250505092915050565b6120b061189a565b73ffffffffffffffffffffffffffffffffffffffff166120ce611178565b73ffffffffffffffffffffffffffffffffffffffff1614612124576040517f08c379a000000000000000000000000000000000000000000000000000000000815260040161211b90614ccf565b60405180910390fd5b565b61212e6128d9565b6000606560006101000a81548160ff0219169083151502179055507f5db9ee0a495bf2e6ff9c91a7834c1ba4fdd244a5e8aa4e537bd38aeae4b073aa61217261189a565b60405161217f9190613cbb565b60405180910390a1565b6121938282612922565b5050565b60006121a283610dc7565b905060006121af84610eb1565b90508261013060008673ffffffffffffffffffffffffffffffffffffffff1673ffffffffffffffffffffffffffffffffffffffff16815260200190815260200160002060006101000a81548173ffffffffffffffffffffffffffffffffffffffff021916908373ffffffffffffffffffffffffffffffffffffffff1602179055508273ffffffffffffffffffffffffffffffffffffffff168273ffffffffffffffffffffffffffffffffffffffff168573ffffffffffffffffffffffffffffffffffffffff167f3134e8a2e6d97e929a7e54011ea5485d7d196dd5f0ba4d4ef95803e8e3fc257f60405160405180910390a46122ac8284836129b0565b50505050565b600063ffffffff80168211156122fd576040517f08c379a00000000000000000000000000000000000000000000000000000000081526004016122f490614d61565b60405180910390fd5b819050919050565b6000609760009054906101000a900473ffffffffffffffffffffffffffffffffffffffff16905081609760006101000a81548173ffffffffffffffffffffffffffffffffffffffff021916908373ffffffffffffffffffffffffffffffffffffffff1602179055508173ffffffffffffffffffffffffffffffffffffffff168173ffffffffffffffffffffffffffffffffffffffff167f8be0079c531659141344cd1fd0a4f28419497f9722a3daafe3b4186f6b6457e060405160405180910390a35050565b600081600001549050919050565b6000808273ffffffffffffffffffffffffffffffffffffffff163b119050919050565b600060019054906101000a900460ff1661244b576040517f08c379a000000000000000000000000000000000000000000000000000000000815260040161244290614df3565b60405180910390fd5b6124558282612bab565b5050565b600060019054906101000a900460ff166124a8576040517f08c379a000000000000000000000000000000000000000000000000000000000815260040161249f90614df3565b60405180910390fd5b6124b0612c2c565b565b600060019054906101000a900460ff16612501576040517f08c379a00000000000000000000000000000000000000000000000000000000081526004016124f890614df3565b60405180910390fd5b612509612c98565b565b600060019054906101000a900460ff1661255a576040517f08c379a000000000000000000000000000000000000000000000000000000000815260040161255190614df3565b60405180910390fd5b612599816040518060400160405280600181526020017f3100000000000000000000000000000000000000000000000000000000000000815250612cf9565b50565b600060019054906101000a900460ff166125eb576040517f08c379a00000000000000000000000000000000000000000000000000000000081526004016125e290614df3565b60405180910390fd5b565b600060019054906101000a900460ff1661263c576040517f08c379a000000000000000000000000000000000000000000000000000000000815260040161263390614df3565b60405180910390fd5b565b612646612d74565b6001606560006101000a81548160ff0219169083151502179055507f62e78cea01bee320cd4e420270b5ea74000d11b0c9f74754ebdbfc544b05a25861268a61189a565b6040516126979190613cbb565b60405180910390a1565b60006126b46126ae611d7d565b83612dbe565b9050919050565b60008060006126cc87878787612df1565b915091506126d981612efe565b8192505050949350505050565b60008060fd60008473ffffffffffffffffffffffffffffffffffffffff1673ffffffffffffffffffffffffffffffffffffffff1681526020019081526020016000209050612733816123cb565b915061273e816130d3565b50919050565b61274c612d74565b6127578383836130e9565b505050565b6127678383836130ee565b505050565b600060c954905090565b600060ca54905090565b6000838383463060405160200161279b959493929190614e13565b6040516020818303038152906040528051906020012090509392505050565b6000819050919050565b6000819050919050565b6127d7816123d9565b612816576040517f08c379a000000000000000000000000000000000000000000000000000000000815260040161280d90614ed8565b60405180910390fd5b806128437f360894a13ba1a3210667c828492db98dca3e2076cc3735a920a3ca505d382bbc60001b6127ba565b60000160006101000a81548173ffffffffffffffffffffffffffffffffffffffff021916908373ffffffffffffffffffffffffffffffffffffffff16021790555050565b61289083613119565b60008251118061289d5750805b156128ae576128ac8383613168565b505b505050565b600060028284186128c49190614f27565b8284166128d191906141b4565b905092915050565b6128e1610e45565b612920576040517f08c379a000000000000000000000000000000000000000000000000000000000815260040161291790614fa4565b60405180910390fd5b565b61292c828261324c565b6129346133ad565b7bffffffffffffffffffffffffffffffffffffffffffffffffffffffff1661295a610903565b111561299b576040517f08c379a000000000000000000000000000000000000000000000000000000000815260040161299290615036565b60405180910390fd5b6129aa6101326133d1836133e7565b50505050565b8173ffffffffffffffffffffffffffffffffffffffff168373ffffffffffffffffffffffffffffffffffffffff16141580156129ec5750600081115b15612ba657600073ffffffffffffffffffffffffffffffffffffffff168373ffffffffffffffffffffffffffffffffffffffff1614612acb57600080612a7461013160008773ffffffffffffffffffffffffffffffffffffffff1673ffffffffffffffffffffffffffffffffffffffff16815260200190815260200160002061365f856133e7565b915091508473ffffffffffffffffffffffffffffffffffffffff167fdec2bacdd2f05b59de34da9b523dff8be42e5e38e818c82fdb0bae774387a7248383604051612ac0929190615056565b60405180910390a250505b600073ffffffffffffffffffffffffffffffffffffffff168273ffffffffffffffffffffffffffffffffffffffff1614612ba557600080612b4e61013160008673ffffffffffffffffffffffffffffffffffffffff1673ffffffffffffffffffffffffffffffffffffffff1681526020019081526020016000206133d1856133e7565b915091508373ffffffffffffffffffffffffffffffffffffffff167fdec2bacdd2f05b59de34da9b523dff8be42e5e38e818c82fdb0bae774387a7248383604051612b9a929190615056565b60405180910390a250505b5b505050565b600060019054906101000a900460ff16612bfa576040517f08c379a0000000000000000000000000000000000000000000000000000000008152600401612bf190614df3565b60405180910390fd5b8160369080519060200190612c1092919061378a565b508060379080519060200190612c2792919061378a565b505050565b600060019054906101000a900460ff16612c7b576040517f08c379a0000000000000000000000000000000000000000000000000000000008152600401612c7290614df3565b60405180910390fd5b6000606560006101000a81548160ff021916908315150217905550565b600060019054906101000a900460ff16612ce7576040517f08c379a0000000000000000000000000000000000000000000000000000000008152600401612cde90614df3565b60405180910390fd5b612cf7612cf261189a565b612305565b565b600060019054906101000a900460ff16612d48576040517f08c379a0000000000000000000000000000000000000000000000000000000008152600401612d3f90614df3565b60405180910390fd5b6000828051906020012090506000828051906020012090508160c9819055508060ca8190555050505050565b612d7c610e45565b15612dbc576040517f08c379a0000000000000000000000000000000000000000000000000000000008152600401612db3906150cb565b60405180910390fd5b565b60008282604051602001612dd3929190615163565b60405160208183030381529060405280519060200120905092915050565b6000807f7fffffffffffffffffffffffffffffff5d576e7357a4501ddfe92f46681b20a08360001c1115612e2c576000600391509150612ef5565b601b8560ff1614158015612e445750601c8560ff1614155b15612e56576000600491509150612ef5565b600060018787878760405160008152602001604052604051612e7b949392919061519a565b6020604051602081039080840390855afa158015612e9d573d6000803e3d6000fd5b505050602060405103519050600073ffffffffffffffffffffffffffffffffffffffff168173ffffffffffffffffffffffffffffffffffffffff161415612eec57600060019250925050612ef5565b80600092509250505b94509492505050565b60006004811115612f1257612f116151df565b5b816004811115612f2557612f246151df565b5b1415612f30576130d0565b60016004811115612f4457612f436151df565b5b816004811115612f5757612f566151df565b5b1415612f98576040517f08c379a0000000000000000000000000000000000000000000000000000000008152600401612f8f9061525a565b60405180910390fd5b60026004811115612fac57612fab6151df565b5b816004811115612fbf57612fbe6151df565b5b1415613000576040517f08c379a0000000000000000000000000000000000000000000000000000000008152600401612ff7906152c6565b60405180910390fd5b60036004811115613014576130136151df565b5b816004811115613027576130266151df565b5b1415613068576040517f08c379a000000000000000000000000000000000000000000000000000000000815260040161305f90615358565b60405180910390fd5b60048081111561307b5761307a6151df565b5b81600481111561308e5761308d6151df565b5b14156130cf576040517f08c379a00000000000000000000000000000000000000000000000000000000081526004016130c6906153ea565b60405180910390fd5b5b50565b6001816000016000828254019250508190555050565b505050565b6130f9838383613675565b61311461310584610dc7565b61310e84610dc7565b836129b0565b505050565b613122816127ce565b8073ffffffffffffffffffffffffffffffffffffffff167fbc7cd75a20ee27fd9adebab32041f755214dbc6bffa90cc0225b39da2e5c2d3b60405160405180910390a250565b6060613173836123d9565b6131b2576040517f08c379a00000000000000000000000000000000000000000000000000000000081526004016131a99061547c565b60405180910390fd5b6000808473ffffffffffffffffffffffffffffffffffffffff16846040516131da91906154e3565b600060405180830381855af49150503d8060008114613215576040519150601f19603f3d011682016040523d82523d6000602084013e61321a565b606091505b509150915061324282826040518060600160405280602781526020016155f96027913961367a565b9250505092915050565b600073ffffffffffffffffffffffffffffffffffffffff168273ffffffffffffffffffffffffffffffffffffffff1614156132bc576040517f08c379a00000000000000000000000000000000000000000000000000000000081526004016132b390615546565b60405180910390fd5b6132c860008383612744565b80603560008282546132da91906141b4565b9250508190555080603360008473ffffffffffffffffffffffffffffffffffffffff1673ffffffffffffffffffffffffffffffffffffffff168152602001908152602001600020600082825461333091906141b4565b925050819055508173ffffffffffffffffffffffffffffffffffffffff16600073ffffffffffffffffffffffffffffffffffffffff167fddf252ad1be2c89b69c2b068fc378daa952ba7f163c4a11628f55a4df523b3ef836040516133959190613a15565b60405180910390a36133a96000838361275c565b5050565b60007bffffffffffffffffffffffffffffffffffffffffffffffffffffffff905090565b600081836133df91906141b4565b905092915050565b60008060008580549050905060008114613455578560018261340991906143fa565b8154811061341a5761341961442e565b5b9060005260206000200160000160049054906101000a90047bffffffffffffffffffffffffffffffffffffffffffffffffffffffff16613458565b60005b7bffffffffffffffffffffffffffffffffffffffffffffffffffffffff16925061348683858763ffffffff16565b91506000811180156134d9575043866001836134a291906143fa565b815481106134b3576134b261442e565b5b9060005260206000200160000160009054906101000a900463ffffffff1663ffffffff16145b15613566576134e7826136e1565b866001836134f591906143fa565b815481106135065761350561442e565b5b9060005260206000200160000160046101000a8154817bffffffffffffffffffffffffffffffffffffffffffffffffffffffff02191690837bffffffffffffffffffffffffffffffffffffffffffffffffffffffff160217905550613656565b85604051806040016040528061357b436122b2565b63ffffffff16815260200161358f856136e1565b7bffffffffffffffffffffffffffffffffffffffffffffffffffffffff168152509080600181540180825580915050600190039060005260206000200160009091909190915060008201518160000160006101000a81548163ffffffff021916908363ffffffff16021790555060208201518160000160046101000a8154817bffffffffffffffffffffffffffffffffffffffffffffffffffffffff02191690837bffffffffffffffffffffffffffffffffffffffffffffffffffffffff16021790555050505b50935093915050565b6000818361366d91906143fa565b905092915050565b505050565b6060831561368a578290506136da565b60008351111561369d5782518084602001fd5b816040517f08c379a00000000000000000000000000000000000000000000000000000000081526004016136d191906138c6565b60405180910390fd5b9392505050565b60007bffffffffffffffffffffffffffffffffffffffffffffffffffffffff8016821115613744576040517f08c379a000000000000000000000000000000000000000000000000000000000815260040161373b906155d8565b60405180910390fd5b819050919050565b6040518060400160405280600063ffffffff16815260200160007bffffffffffffffffffffffffffffffffffffffffffffffffffffffff1681525090565b8280546137969061402f565b90600052602060002090601f0160209004810192826137b857600085556137ff565b82601f106137d157805160ff19168380011785556137ff565b828001600101855582156137ff579182015b828111156137fe5782518255916020019190600101906137e3565b5b50905061380c9190613810565b5090565b5b80821115613829576000816000905550600101613811565b5090565b600081519050919050565b600082825260208201905092915050565b60005b8381101561386757808201518184015260208101905061384c565b83811115613876576000848401525b50505050565b6000601f19601f8301169050919050565b60006138988261382d565b6138a28185613838565b93506138b2818560208601613849565b6138bb8161387c565b840191505092915050565b600060208201905081810360008301526138e0818461388d565b905092915050565b6000604051905090565b600080fd5b600080fd5b600073ffffffffffffffffffffffffffffffffffffffff82169050919050565b6000613927826138fc565b9050919050565b6139378161391c565b811461394257600080fd5b50565b6000813590506139548161392e565b92915050565b6000819050919050565b61396d8161395a565b811461397857600080fd5b50565b60008135905061398a81613964565b92915050565b600080604083850312156139a7576139a66138f2565b5b60006139b585828601613945565b92505060206139c68582860161397b565b9150509250929050565b60008115159050919050565b6139e5816139d0565b82525050565b6000602082019050613a0060008301846139dc565b92915050565b613a0f8161395a565b82525050565b6000602082019050613a2a6000830184613a06565b92915050565b600080600060608486031215613a4957613a486138f2565b5b6000613a5786828701613945565b9350506020613a6886828701613945565b9250506040613a798682870161397b565b9150509250925092565b600060ff82169050919050565b613a9981613a83565b82525050565b6000602082019050613ab46000830184613a90565b92915050565b6000819050919050565b613acd81613aba565b82525050565b6000602082019050613ae86000830184613ac4565b92915050565b600060208284031215613b0457613b036138f2565b5b6000613b1284828501613945565b91505092915050565b600080fd5b600080fd5b7f4e487b7100000000000000000000000000000000000000000000000000000000600052604160045260246000fd5b613b5d8261387c565b810181811067ffffffffffffffff82111715613b7c57613b7b613b25565b5b80604052505050565b6000613b8f6138e8565b9050613b9b8282613b54565b919050565b600067ffffffffffffffff821115613bbb57613bba613b25565b5b613bc48261387c565b9050602081019050919050565b82818337600083830152505050565b6000613bf3613bee84613ba0565b613b85565b905082815260208101848484011115613c0f57613c0e613b20565b5b613c1a848285613bd1565b509392505050565b600082601f830112613c3757613c36613b1b565b5b8135613c47848260208601613be0565b91505092915050565b60008060408385031215613c6757613c666138f2565b5b6000613c7585828601613945565b925050602083013567ffffffffffffffff811115613c9657613c956138f7565b5b613ca285828601613c22565b9150509250929050565b613cb58161391c565b82525050565b6000602082019050613cd06000830184613cac565b92915050565b600063ffffffff82169050919050565b613cef81613cd6565b82525050565b6000602082019050613d0a6000830184613ce6565b92915050565b600060208284031215613d2657613d256138f2565b5b6000613d348482850161397b565b91505092915050565b613d4681613a83565b8114613d5157600080fd5b50565b600081359050613d6381613d3d565b92915050565b613d7281613aba565b8114613d7d57600080fd5b50565b600081359050613d8f81613d69565b92915050565b60008060008060008060c08789031215613db257613db16138f2565b5b6000613dc089828a01613945565b9650506020613dd189828a0161397b565b9550506040613de289828a0161397b565b9450506060613df389828a01613d54565b9350506080613e0489828a01613d80565b92505060a0613e1589828a01613d80565b9150509295509295509295565b600080600080600080600060e0888a031215613e4157613e406138f2565b5b6000613e4f8a828b01613945565b9750506020613e608a828b01613945565b9650506040613e718a828b0161397b565b9550506060613e828a828b0161397b565b9450506080613e938a828b01613d54565b93505060a0613ea48a828b01613d80565b92505060c0613eb58a828b01613d80565b91505092959891949750929550565b60008060408385031215613edb57613eda6138f2565b5b6000613ee985828601613945565b9250506020613efa85828601613945565b9150509250929050565b613f0d81613cd6565b8114613f1857600080fd5b50565b600081359050613f2a81613f04565b92915050565b60008060408385031215613f4757613f466138f2565b5b6000613f5585828601613945565b9250506020613f6685828601613f1b565b9150509250929050565b613f7981613cd6565b82525050565b60007bffffffffffffffffffffffffffffffffffffffffffffffffffffffff82169050919050565b613fb081613f7f565b82525050565b604082016000820151613fcc6000850182613f70565b506020820151613fdf6020850182613fa7565b50505050565b6000604082019050613ffa6000830184613fb6565b92915050565b7f4e487b7100000000000000000000000000000000000000000000000000000000600052602260045260246000fd5b6000600282049050600182168061404757607f821691505b6020821081141561405b5761405a614000565b5b50919050565b7f46756e6374696f6e206d7573742062652063616c6c6564207468726f7567682060008201527f64656c656761746563616c6c0000000000000000000000000000000000000000602082015250565b60006140bd602c83613838565b91506140c882614061565b604082019050919050565b600060208201905081810360008301526140ec816140b0565b9050919050565b7f46756e6374696f6e206d7573742062652063616c6c6564207468726f7567682060008201527f6163746976652070726f78790000000000000000000000000000000000000000602082015250565b600061414f602c83613838565b915061415a826140f3565b604082019050919050565b6000602082019050818103600083015261417e81614142565b9050919050565b7f4e487b7100000000000000000000000000000000000000000000000000000000600052601160045260246000fd5b60006141bf8261395a565b91506141ca8361395a565b9250827fffffffffffffffffffffffffffffffffffffffffffffffffffffffffffffffff038211156141ff576141fe614185565b5b828201905092915050565b7f4552433230566f7465733a20626c6f636b206e6f7420796574206d696e656400600082015250565b6000614240601f83613838565b915061424b8261420a565b602082019050919050565b6000602082019050818103600083015261426f81614233565b9050919050565b7f555550535570677261646561626c653a206d757374206e6f742062652063616c60008201527f6c6564207468726f7567682064656c656761746563616c6c0000000000000000602082015250565b60006142d2603883613838565b91506142dd82614276565b604082019050919050565b60006020820190508181036000830152614301816142c5565b9050919050565b7f496e697469616c697a61626c653a20636f6e747261637420697320616c72656160008201527f647920696e697469616c697a6564000000000000000000000000000000000000602082015250565b6000614364602e83613838565b915061436f82614308565b604082019050919050565b6000602082019050818103600083015261439381614357565b9050919050565b6000819050919050565b6000819050919050565b60006143c96143c46143bf8461439a565b6143a4565b613a83565b9050919050565b6143d9816143ae565b82525050565b60006020820190506143f460008301846143d0565b92915050565b60006144058261395a565b91506144108361395a565b92508282101561442357614422614185565b5b828203905092915050565b7f4e487b7100000000000000000000000000000000000000000000000000000000600052603260045260246000fd5b7f45524332303a2064656372656173656420616c6c6f77616e63652062656c6f7760008201527f207a65726f000000000000000000000000000000000000000000000000000000602082015250565b60006144b9602583613838565b91506144c48261445d565b604082019050919050565b600060208201905081810360008301526144e8816144ac565b9050919050565b7f4552433230566f7465733a207369676e61747572652065787069726564000000600082015250565b6000614525601d83613838565b9150614530826144ef565b602082019050919050565b6000602082019050818103600083015261455481614518565b9050919050565b60006080820190506145706000830187613ac4565b61457d6020830186613cac565b61458a6040830185613a06565b6145976060830184613a06565b95945050505050565b7f4552433230566f7465733a20696e76616c6964206e6f6e636500000000000000600082015250565b60006145d6601983613838565b91506145e1826145a0565b602082019050919050565b60006020820190508181036000830152614605816145c9565b9050919050565b7f45524332305065726d69743a206578706972656420646561646c696e65000000600082015250565b6000614642601d83613838565b915061464d8261460c565b602082019050919050565b6000602082019050818103600083015261467181614635565b9050919050565b600060c08201905061468d6000830189613ac4565b61469a6020830188613cac565b6146a76040830187613cac565b6146b46060830186613a06565b6146c16080830185613a06565b6146ce60a0830184613a06565b979650505050505050565b7f45524332305065726d69743a20696e76616c6964207369676e61747572650000600082015250565b600061470f601e83613838565b915061471a826146d9565b602082019050919050565b6000602082019050818103600083015261473e81614702565b9050919050565b7f4f776e61626c653a206e6577206f776e657220697320746865207a65726f206160008201527f6464726573730000000000000000000000000000000000000000000000000000602082015250565b60006147a1602683613838565b91506147ac82614745565b604082019050919050565b600060208201905081810360008301526147d081614794565b9050919050565b7f45524332303a20617070726f76652066726f6d20746865207a65726f2061646460008201527f7265737300000000000000000000000000000000000000000000000000000000602082015250565b6000614833602483613838565b915061483e826147d7565b604082019050919050565b6000602082019050818103600083015261486281614826565b9050919050565b7f45524332303a20617070726f766520746f20746865207a65726f20616464726560008201527f7373000000000000000000000000000000000000000000000000000000000000602082015250565b60006148c5602283613838565b91506148d082614869565b604082019050919050565b600060208201905081810360008301526148f4816148b8565b9050919050565b7f45524332303a20696e73756666696369656e7420616c6c6f77616e6365000000600082015250565b6000614931601d83613838565b915061493c826148fb565b602082019050919050565b6000602082019050818103600083015261496081614924565b9050919050565b7f45524332303a207472616e736665722066726f6d20746865207a65726f20616460008201527f6472657373000000000000000000000000000000000000000000000000000000602082015250565b60006149c3602583613838565b91506149ce82614967565b604082019050919050565b600060208201905081810360008301526149f2816149b6565b9050919050565b7f45524332303a207472616e7366657220746f20746865207a65726f206164647260008201527f6573730000000000000000000000000000000000000000000000000000000000602082015250565b6000614a55602383613838565b9150614a60826149f9565b604082019050919050565b60006020820190508181036000830152614a8481614a48565b9050919050565b7f45524332303a207472616e7366657220616d6f756e742065786365656473206260008201527f616c616e63650000000000000000000000000000000000000000000000000000602082015250565b6000614ae7602683613838565b9150614af282614a8b565b604082019050919050565b60006020820190508181036000830152614b1681614ada565b9050919050565b600081519050614b2c81613d69565b92915050565b600060208284031215614b4857614b476138f2565b5b6000614b5684828501614b1d565b91505092915050565b7f45524331393637557067726164653a206e657720696d706c656d656e7461746960008201527f6f6e206973206e6f742055555053000000000000000000000000000000000000602082015250565b6000614bbb602e83613838565b9150614bc682614b5f565b604082019050919050565b60006020820190508181036000830152614bea81614bae565b9050919050565b7f45524331393637557067726164653a20756e737570706f727465642070726f7860008201527f6961626c65555549440000000000000000000000000000000000000000000000602082015250565b6000614c4d602983613838565b9150614c5882614bf1565b604082019050919050565b60006020820190508181036000830152614c7c81614c40565b9050919050565b7f4f776e61626c653a2063616c6c6572206973206e6f7420746865206f776e6572600082015250565b6000614cb9602083613838565b9150614cc482614c83565b602082019050919050565b60006020820190508181036000830152614ce881614cac565b9050919050565b7f53616665436173743a2076616c756520646f65736e27742066697420696e203360008201527f3220626974730000000000000000000000000000000000000000000000000000602082015250565b6000614d4b602683613838565b9150614d5682614cef565b604082019050919050565b60006020820190508181036000830152614d7a81614d3e565b9050919050565b7f496e697469616c697a61626c653a20636f6e7472616374206973206e6f74206960008201527f6e697469616c697a696e67000000000000000000000000000000000000000000602082015250565b6000614ddd602b83613838565b9150614de882614d81565b604082019050919050565b60006020820190508181036000830152614e0c81614dd0565b9050919050565b600060a082019050614e286000830188613ac4565b614e356020830187613ac4565b614e426040830186613ac4565b614e4f6060830185613a06565b614e5c6080830184613cac565b9695505050505050565b7f455243313936373a206e657720696d706c656d656e746174696f6e206973206e60008201527f6f74206120636f6e747261637400000000000000000000000000000000000000602082015250565b6000614ec2602d83613838565b9150614ecd82614e66565b604082019050919050565b60006020820190508181036000830152614ef181614eb5565b9050919050565b7f4e487b7100000000000000000000000000000000000000000000000000000000600052601260045260246000fd5b6000614f328261395a565b9150614f3d8361395a565b925082614f4d57614f4c614ef8565b5b828204905092915050565b7f5061757361626c653a206e6f7420706175736564000000000000000000000000600082015250565b6000614f8e601483613838565b9150614f9982614f58565b602082019050919050565b60006020820190508181036000830152614fbd81614f81565b9050919050565b7f4552433230566f7465733a20746f74616c20737570706c79207269736b73206f60008201527f766572666c6f77696e6720766f74657300000000000000000000000000000000602082015250565b6000615020603083613838565b915061502b82614fc4565b604082019050919050565b6000602082019050818103600083015261504f81615013565b9050919050565b600060408201905061506b6000830185613a06565b6150786020830184613a06565b9392505050565b7f5061757361626c653a2070617573656400000000000000000000000000000000600082015250565b60006150b5601083613838565b91506150c08261507f565b602082019050919050565b600060208201905081810360008301526150e4816150a8565b9050919050565b600081905092915050565b7f1901000000000000000000000000000000000000000000000000000000000000600082015250565b600061512c6002836150eb565b9150615137826150f6565b600282019050919050565b6000819050919050565b61515d61515882613aba565b615142565b82525050565b600061516e8261511f565b915061517a828561514c565b60208201915061518a828461514c565b6020820191508190509392505050565b60006080820190506151af6000830187613ac4565b6151bc6020830186613a90565b6151c96040830185613ac4565b6151d66060830184613ac4565b95945050505050565b7f4e487b7100000000000000000000000000000000000000000000000000000000600052602160045260246000fd5b7f45434453413a20696e76616c6964207369676e61747572650000000000000000600082015250565b6000615244601883613838565b915061524f8261520e565b602082019050919050565b6000602082019050818103600083015261527381615237565b9050919050565b7f45434453413a20696e76616c6964207369676e6174757265206c656e67746800600082015250565b60006152b0601f83613838565b91506152bb8261527a565b602082019050919050565b600060208201905081810360008301526152df816152a3565b9050919050565b7f45434453413a20696e76616c6964207369676e6174757265202773272076616c60008201527f7565000000000000000000000000000000000000000000000000000000000000602082015250565b6000615342602283613838565b915061534d826152e6565b604082019050919050565b6000602082019050818103600083015261537181615335565b9050919050565b7f45434453413a20696e76616c6964207369676e6174757265202776272076616c60008201527f7565000000000000000000000000000000000000000000000000000000000000602082015250565b60006153d4602283613838565b91506153df82615378565b604082019050919050565b60006020820190508181036000830152615403816153c7565b9050919050565b7f416464726573733a2064656c65676174652063616c6c20746f206e6f6e2d636f60008201527f6e74726163740000000000000000000000000000000000000000000000000000602082015250565b6000615466602683613838565b91506154718261540a565b604082019050919050565b6000602082019050818103600083015261549581615459565b9050919050565b600081519050919050565b600081905092915050565b60006154bd8261549c565b6154c781856154a7565b93506154d7818560208601613849565b80840191505092915050565b60006154ef82846154b2565b915081905092915050565b7f45524332303a206d696e7420746f20746865207a65726f206164647265737300600082015250565b6000615530601f83613838565b915061553b826154fa565b602082019050919050565b6000602082019050818103600083015261555f81615523565b9050919050565b7f53616665436173743a2076616c756520646f65736e27742066697420696e203260008201527f3234206269747300000000000000000000000000000000000000000000000000602082015250565b60006155c2602783613838565b91506155cd82615566565b604082019050919050565b600060208201905081810360008301526155f1816155b5565b905091905056fe416464726573733a206c6f772d6c6576656c2064656c65676174652063616c6c206661696c6564a26469706673582212203ec7010c9fd2fa165f4a88d22bb3b3496923c2213ae5777673a0b2b45dd6184364736f6c63430008090033",
  "linkReferences": {},
  "deployedLinkReferences": {}
}